{
  "_format": "hh-sol-artifact-1",
  "contractName": "LMNTL",
  "sourceName": "contracts/LMNTL.sol",
  "abi": [
    {
      "inputs": [],
      "stateMutability": "nonpayable",
      "type": "constructor"
    },
    {
      "anonymous": false,
      "inputs": [
        {
          "indexed": true,
          "internalType": "address",
          "name": "account",
          "type": "address"
        },
        {
          "indexed": true,
          "internalType": "address",
          "name": "operator",
          "type": "address"
        },
        {
          "indexed": false,
          "internalType": "bool",
          "name": "approved",
          "type": "bool"
        }
      ],
      "name": "ApprovalForAll",
      "type": "event"
    },
    {
      "anonymous": false,
      "inputs": [
        {
          "indexed": true,
          "internalType": "address",
          "name": "operator",
          "type": "address"
        },
        {
          "indexed": true,
          "internalType": "address",
          "name": "from",
          "type": "address"
        },
        {
          "indexed": true,
          "internalType": "address",
          "name": "to",
          "type": "address"
        },
        {
          "indexed": false,
          "internalType": "uint256[]",
          "name": "ids",
          "type": "uint256[]"
        },
        {
          "indexed": false,
          "internalType": "uint256[]",
          "name": "values",
          "type": "uint256[]"
        }
      ],
      "name": "TransferBatch",
      "type": "event"
    },
    {
      "anonymous": false,
      "inputs": [
        {
          "indexed": true,
          "internalType": "address",
          "name": "operator",
          "type": "address"
        },
        {
          "indexed": true,
          "internalType": "address",
          "name": "from",
          "type": "address"
        },
        {
          "indexed": true,
          "internalType": "address",
          "name": "to",
          "type": "address"
        },
        {
          "indexed": false,
          "internalType": "uint256",
          "name": "id",
          "type": "uint256"
        },
        {
          "indexed": false,
          "internalType": "uint256",
          "name": "value",
          "type": "uint256"
        }
      ],
      "name": "TransferSingle",
      "type": "event"
    },
    {
      "anonymous": false,
      "inputs": [
        {
          "indexed": false,
          "internalType": "string",
          "name": "value",
          "type": "string"
        },
        {
          "indexed": true,
          "internalType": "uint256",
          "name": "id",
          "type": "uint256"
        }
      ],
      "name": "URI",
      "type": "event"
    },
    {
      "inputs": [],
      "name": "INTERFACE_ID_ERC1155",
      "outputs": [
        {
          "internalType": "string",
          "name": "",
          "type": "string"
        }
      ],
      "stateMutability": "view",
      "type": "function"
    },
    {
      "inputs": [
        {
          "internalType": "uint8",
          "name": "",
          "type": "uint8"
        }
      ],
      "name": "attributes",
      "outputs": [
        {
          "internalType": "string",
          "name": "",
          "type": "string"
        }
      ],
      "stateMutability": "view",
      "type": "function"
    },
    {
      "inputs": [
        {
          "internalType": "address",
          "name": "account",
          "type": "address"
        },
        {
          "internalType": "uint256",
          "name": "id",
          "type": "uint256"
        }
      ],
      "name": "balanceOf",
      "outputs": [
        {
          "internalType": "uint256",
          "name": "",
          "type": "uint256"
        }
      ],
      "stateMutability": "view",
      "type": "function"
    },
    {
      "inputs": [
        {
          "internalType": "address[]",
          "name": "accounts",
          "type": "address[]"
        },
        {
          "internalType": "uint256[]",
          "name": "ids",
          "type": "uint256[]"
        }
      ],
      "name": "balanceOfBatch",
      "outputs": [
        {
          "internalType": "uint256[]",
          "name": "",
          "type": "uint256[]"
        }
      ],
      "stateMutability": "view",
      "type": "function"
    },
    {
      "inputs": [
        {
          "internalType": "string",
          "name": "newMetadataURI",
          "type": "string"
        }
      ],
      "name": "changeBaseMetadataURI",
      "outputs": [],
      "stateMutability": "nonpayable",
      "type": "function"
    },
    {
      "inputs": [
        {
          "internalType": "uint16",
          "name": "tokenID",
          "type": "uint16"
        },
        {
          "internalType": "string",
          "name": "newMetadataURI",
          "type": "string"
        }
      ],
      "name": "changeImageURI",
      "outputs": [],
      "stateMutability": "nonpayable",
      "type": "function"
    },
    {
      "inputs": [
        {
          "internalType": "uint16",
          "name": "",
          "type": "uint16"
        }
      ],
      "name": "characters",
      "outputs": [
        {
          "internalType": "uint8",
          "name": "element",
          "type": "uint8"
        },
        {
          "internalType": "uint256",
          "name": "exp",
          "type": "uint256"
        },
        {
          "internalType": "string",
          "name": "metadataURI",
          "type": "string"
        }
      ],
      "stateMutability": "view",
      "type": "function"
    },
    {
      "inputs": [
        {
          "internalType": "uint8",
          "name": "",
          "type": "uint8"
        }
      ],
      "name": "elements",
      "outputs": [
        {
          "internalType": "string",
          "name": "",
          "type": "string"
        }
      ],
      "stateMutability": "view",
      "type": "function"
    },
    {
      "inputs": [
        {
          "internalType": "uint16",
          "name": "tokenID",
          "type": "uint16"
        },
        {
          "internalType": "uint256",
          "name": "exp",
          "type": "uint256"
        }
      ],
      "name": "gainEXP",
      "outputs": [
        {
          "internalType": "uint256",
          "name": "",
          "type": "uint256"
        }
      ],
      "stateMutability": "nonpayable",
      "type": "function"
    },
    {
      "inputs": [
        {
          "internalType": "address",
          "name": "_userAddress",
          "type": "address"
        },
        {
          "internalType": "uint256",
          "name": "exp",
          "type": "uint256"
        }
      ],
      "name": "gainUserEXP",
      "outputs": [
        {
          "internalType": "uint256",
          "name": "",
          "type": "uint256"
        }
      ],
      "stateMutability": "nonpayable",
      "type": "function"
    },
    {
      "inputs": [
        {
          "internalType": "uint8",
          "name": "num",
          "type": "uint8"
        }
      ],
      "name": "getAttribute",
      "outputs": [
        {
          "internalType": "string",
          "name": "",
          "type": "string"
        }
      ],
      "stateMutability": "view",
      "type": "function"
    },
    {
      "inputs": [
        {
          "internalType": "uint16",
          "name": "tokenID",
          "type": "uint16"
        }
      ],
      "name": "getCurrentLevel",
      "outputs": [
        {
          "internalType": "uint16",
          "name": "currentLevel",
          "type": "uint16"
        }
      ],
      "stateMutability": "view",
      "type": "function"
    },
    {
      "inputs": [
        {
          "internalType": "uint16",
          "name": "tokenID",
          "type": "uint16"
        }
      ],
      "name": "getCurrentStats",
      "outputs": [
        {
          "internalType": "uint16",
          "name": "fire",
          "type": "uint16"
        },
        {
          "internalType": "uint16",
          "name": "water",
          "type": "uint16"
        },
        {
          "internalType": "uint16",
          "name": "air",
          "type": "uint16"
        },
        {
          "internalType": "uint16",
          "name": "earth",
          "type": "uint16"
        },
        {
          "internalType": "uint16",
          "name": "charisma",
          "type": "uint16"
        },
        {
          "internalType": "uint16",
          "name": "creativity",
          "type": "uint16"
        },
        {
          "internalType": "uint16",
          "name": "cunning",
          "type": "uint16"
        },
        {
          "internalType": "uint16",
          "name": "patience",
          "type": "uint16"
        }
      ],
      "stateMutability": "view",
      "type": "function"
    },
    {
      "inputs": [
        {
          "internalType": "uint8",
          "name": "num",
          "type": "uint8"
        }
      ],
      "name": "getElement",
      "outputs": [
        {
          "internalType": "string",
          "name": "",
          "type": "string"
        }
      ],
      "stateMutability": "view",
      "type": "function"
    },
    {
      "inputs": [
        {
          "internalType": "uint16",
          "name": "tokenID",
          "type": "uint16"
        }
      ],
      "name": "getMetadata",
      "outputs": [
        {
          "internalType": "string",
          "name": "",
          "type": "string"
        }
      ],
      "stateMutability": "view",
      "type": "function"
    },
    {
      "inputs": [
        {
          "internalType": "uint16",
          "name": "tokenID",
          "type": "uint16"
        }
      ],
      "name": "getPrimaryStats",
      "outputs": [
        {
          "internalType": "string",
          "name": "element",
          "type": "string"
        },
        {
          "internalType": "uint16",
          "name": "level",
          "type": "uint16"
        },
        {
          "internalType": "uint256",
          "name": "exp",
          "type": "uint256"
        },
        {
          "internalType": "string",
          "name": "metadataURI",
          "type": "string"
        }
      ],
      "stateMutability": "view",
      "type": "function"
    },
    {
      "inputs": [
        {
          "internalType": "address",
          "name": "_userAddress",
          "type": "address"
        }
      ],
      "name": "getUserCurrentStats",
      "outputs": [
        {
          "internalType": "uint16",
          "name": "fire",
          "type": "uint16"
        },
        {
          "internalType": "uint16",
          "name": "water",
          "type": "uint16"
        },
        {
          "internalType": "uint16",
          "name": "air",
          "type": "uint16"
        },
        {
          "internalType": "uint16",
          "name": "earth",
          "type": "uint16"
        },
        {
          "internalType": "uint16",
          "name": "charisma",
          "type": "uint16"
        },
        {
          "internalType": "uint16",
          "name": "creativity",
          "type": "uint16"
        },
        {
          "internalType": "uint16",
          "name": "cunning",
          "type": "uint16"
        },
        {
          "internalType": "uint16",
          "name": "patience",
          "type": "uint16"
        }
      ],
      "stateMutability": "view",
      "type": "function"
    },
    {
      "inputs": [
        {
          "internalType": "address",
          "name": "_userAddress",
          "type": "address"
        }
      ],
      "name": "getUserMetadata",
      "outputs": [
        {
          "internalType": "string",
          "name": "metadataURI",
          "type": "string"
        }
      ],
      "stateMutability": "view",
      "type": "function"
    },
    {
      "inputs": [
        {
          "internalType": "address",
          "name": "_userAddress",
          "type": "address"
        }
      ],
      "name": "getUserPrimaryStats",
      "outputs": [
        {
          "internalType": "string",
          "name": "element",
          "type": "string"
        },
        {
          "internalType": "uint16",
          "name": "level",
          "type": "uint16"
        },
        {
          "internalType": "uint256",
          "name": "exp",
          "type": "uint256"
        },
        {
          "internalType": "string",
          "name": "metadataURI",
          "type": "string"
        }
      ],
      "stateMutability": "view",
      "type": "function"
    },
    {
      "inputs": [
        {
          "internalType": "address",
          "name": "_userAddress",
          "type": "address"
        }
      ],
      "name": "getUserTokenID",
      "outputs": [
        {
          "internalType": "uint16",
          "name": "tokenID",
          "type": "uint16"
        }
      ],
      "stateMutability": "view",
      "type": "function"
    },
    {
      "inputs": [
        {
          "internalType": "address",
          "name": "",
          "type": "address"
        }
      ],
      "name": "holderMainAvatars",
      "outputs": [
        {
          "internalType": "uint16",
          "name": "",
          "type": "uint16"
        }
      ],
      "stateMutability": "view",
      "type": "function"
    },
    {
      "inputs": [
        {
          "internalType": "address",
          "name": "account",
          "type": "address"
        },
        {
          "internalType": "address",
          "name": "operator",
          "type": "address"
        }
      ],
      "name": "isApprovedForAll",
      "outputs": [
        {
          "internalType": "bool",
          "name": "",
          "type": "bool"
        }
      ],
      "stateMutability": "view",
      "type": "function"
    },
    {
      "inputs": [
        {
          "internalType": "address",
          "name": "_userAddress",
          "type": "address"
        },
        {
          "internalType": "string",
          "name": "metadataURI",
          "type": "string"
        }
      ],
      "name": "levelUp",
      "outputs": [],
      "stateMutability": "nonpayable",
      "type": "function"
    },
    {
      "inputs": [
        {
          "internalType": "uint8",
          "name": "element",
          "type": "uint8"
        },
        {
          "internalType": "string",
          "name": "metadataURI",
          "type": "string"
        }
      ],
      "name": "mint",
      "outputs": [
        {
          "internalType": "uint16",
          "name": "",
          "type": "uint16"
        }
      ],
      "stateMutability": "nonpayable",
      "type": "function"
    },
    {
      "inputs": [],
      "name": "nftCounter",
      "outputs": [
        {
          "internalType": "uint256",
          "name": "_value",
          "type": "uint256"
        }
      ],
      "stateMutability": "view",
      "type": "function"
    },
    {
      "inputs": [
        {
          "internalType": "address",
          "name": "from",
          "type": "address"
        },
        {
          "internalType": "address",
          "name": "to",
          "type": "address"
        },
        {
          "internalType": "uint256[]",
          "name": "ids",
          "type": "uint256[]"
        },
        {
          "internalType": "uint256[]",
          "name": "amounts",
          "type": "uint256[]"
        },
        {
          "internalType": "bytes",
          "name": "data",
          "type": "bytes"
        }
      ],
      "name": "safeBatchTransferFrom",
      "outputs": [],
      "stateMutability": "nonpayable",
      "type": "function"
    },
    {
      "inputs": [
        {
          "internalType": "address",
          "name": "from",
          "type": "address"
        },
        {
          "internalType": "address",
          "name": "to",
          "type": "address"
        },
        {
          "internalType": "uint256",
          "name": "id",
          "type": "uint256"
        },
        {
          "internalType": "uint256",
          "name": "amount",
          "type": "uint256"
        },
        {
          "internalType": "bytes",
          "name": "data",
          "type": "bytes"
        }
      ],
      "name": "safeTransferFrom",
      "outputs": [],
      "stateMutability": "nonpayable",
      "type": "function"
    },
    {
      "inputs": [
        {
          "internalType": "address",
          "name": "operator",
          "type": "address"
        },
        {
          "internalType": "bool",
          "name": "approved",
          "type": "bool"
        }
      ],
      "name": "setApprovalForAll",
      "outputs": [],
      "stateMutability": "nonpayable",
      "type": "function"
    },
    {
      "inputs": [
        {
          "internalType": "address",
          "name": "_userAddress",
          "type": "address"
        },
        {
          "internalType": "uint16",
          "name": "tokenID",
          "type": "uint16"
        }
      ],
      "name": "setMainAvatar",
      "outputs": [],
      "stateMutability": "nonpayable",
      "type": "function"
    },
    {
      "inputs": [
        {
          "internalType": "uint16",
          "name": "tokenID",
          "type": "uint16"
        },
        {
          "internalType": "string",
          "name": "_metadata",
          "type": "string"
        }
      ],
      "name": "setMetadata",
      "outputs": [],
      "stateMutability": "nonpayable",
      "type": "function"
    },
    {
      "inputs": [
        {
          "internalType": "bytes4",
          "name": "interfaceId",
          "type": "bytes4"
        }
      ],
      "name": "supportsInterface",
      "outputs": [
        {
          "internalType": "bool",
          "name": "",
          "type": "bool"
        }
      ],
      "stateMutability": "view",
      "type": "function"
    },
    {
      "inputs": [
        {
          "internalType": "uint16",
          "name": "",
          "type": "uint16"
        }
      ],
      "name": "tokenMetadata",
      "outputs": [
        {
          "internalType": "string",
          "name": "",
          "type": "string"
        }
      ],
      "stateMutability": "view",
      "type": "function"
    },
    {
      "inputs": [
        {
          "internalType": "address",
          "name": "",
          "type": "address"
        },
        {
          "internalType": "uint256",
          "name": "",
          "type": "uint256"
        }
      ],
      "name": "tokenOwners",
      "outputs": [
        {
          "internalType": "uint16",
          "name": "",
          "type": "uint16"
        }
      ],
      "stateMutability": "view",
      "type": "function"
    },
    {
      "inputs": [
        {
          "internalType": "uint16",
          "name": "tokenID",
          "type": "uint16"
        },
        {
          "internalType": "uint8",
          "name": "element",
          "type": "uint8"
        },
        {
          "internalType": "uint256",
          "name": "exp",
          "type": "uint256"
        },
        {
          "internalType": "string",
          "name": "metadataURI",
          "type": "string"
        }
      ],
      "name": "updateCharacter",
      "outputs": [],
      "stateMutability": "nonpayable",
      "type": "function"
    },
    {
      "inputs": [
        {
          "internalType": "uint256",
          "name": "",
          "type": "uint256"
        }
      ],
      "name": "uri",
      "outputs": [
        {
          "internalType": "string",
          "name": "",
          "type": "string"
        }
      ],
      "stateMutability": "view",
      "type": "function"
    }
  ],
  "bytecode": "0x60806040526040518060400160405280600581526020017f4c4d4e544c00000000000000000000000000000000000000000000000000000081525060039080519060200190620000519291906200046a565b506040518060400160405280600581526020017f4c4d4e544c000000000000000000000000000000000000000000000000000000815250600490805190602001906200009f9291906200046a565b50348015620000ad57600080fd5b506040518060400160405280600a81526020017f3078373830653964363300000000000000000000000000000000000000000000815250620000f5816200044e60201b60201c565b5060038080546200010690620005b2565b62000113929190620004fb565b5060048080546200012490620005b2565b62000131929190620004fb565b506040518060400160405280600481526020017f6669726500000000000000000000000000000000000000000000000000000000815250600760008060ff1681526020019081526020016000209080519060200190620001939291906200046a565b506040518060400160405280600581526020017f776174657200000000000000000000000000000000000000000000000000000081525060076000600160ff1681526020019081526020016000209080519060200190620001f69291906200046a565b506040518060400160405280600381526020017f616972000000000000000000000000000000000000000000000000000000000081525060076000600260ff1681526020019081526020016000209080519060200190620002599291906200046a565b506040518060400160405280600581526020017f656172746800000000000000000000000000000000000000000000000000000081525060076000600360ff1681526020019081526020016000209080519060200190620002bc9291906200046a565b506040518060400160405280600881526020017f6368617269736d61000000000000000000000000000000000000000000000000815250600860008060ff16815260200190815260200160002090805190602001906200031e9291906200046a565b506040518060400160405280600a81526020017f637265617469766974790000000000000000000000000000000000000000000081525060086000600160ff1681526020019081526020016000209080519060200190620003819291906200046a565b506040518060400160405280600781526020017f63756e6e696e670000000000000000000000000000000000000000000000000081525060086000600260ff1681526020019081526020016000209080519060200190620003e49291906200046a565b506040518060400160405280600881526020017f70617469656e636500000000000000000000000000000000000000000000000081525060086000600360ff1681526020019081526020016000209080519060200190620004479291906200046a565b5062000617565b8060029080519060200190620004669291906200046a565b5050565b8280546200047890620005b2565b90600052602060002090601f0160209004810192826200049c5760008555620004e8565b82601f10620004b757805160ff1916838001178555620004e8565b82800160010185558215620004e8579182015b82811115620004e7578251825591602001919060010190620004ca565b5b509050620004f7919062000593565b5090565b8280546200050990620005b2565b90600052602060002090601f0160209004810192826200052d576000855562000580565b82601f1062000540578054855562000580565b828001600101855582156200058057600052602060002091601f016020900482015b828111156200057f57825482559160010191906001019062000562565b5b5090506200058f919062000593565b5090565b5b80821115620005ae57600081600090555060010162000594565b5090565b60006002820490506001821680620005cb57607f821691505b60208210811415620005e257620005e1620005e8565b5b50919050565b7f4e487b7100000000000000000000000000000000000000000000000000000000600052602260045260246000fd5b614c0380620006276000396000f3fe608060405234801561001057600080fd5b50600436106102105760003560e01c8063732a810011610125578063b1e4ef06116100ad578063e574609e1161007c578063e574609e14610719578063e985e9c514610737578063ef2a876414610767578063f242432a14610797578063faf1306b146107b357610210565b8063b1e4ef0614610652578063b281e3e314610689578063b3999751146106b9578063e304c64c146106e957610210565b80638b5e51d2116100f45780638b5e51d2146105735780639fe48a86146105a35780639fef1767146105d3578063a22cb46514610603578063ad48473b1461061f57610210565b8063732a8100146104c557806379f3b872146104e15780637dedef611461051157806388d2f6cf1461054157610210565b806333bf6156116101a85780635847df80116101775780635847df80146103df578063591e992e1461040f57806359fd58a61461044257806361499c1a1461045e57806365752f081461048e57610210565b806333bf6156146103315780633d04979d1461034f578063423411b11461037f5780634e1273f4146103af57610210565b806315f09737116101e457806315f09737146102c15780632c50b6b7146102dd5780632db05c6b146102f95780632eb2c2d61461031557610210565b8062fdd58e1461021557806301ffc9a7146102455780630e5585e1146102755780630e89341c14610291575b600080fd5b61022f600480360381019061022a9190613610565b6107e3565b60405161023c9190613fb6565b60405180910390f35b61025f600480360381019061025a91906136b8565b6108ac565b60405161026c9190613d12565b60405180910390f35b61028f600480360381019061028a9190613774565b61098e565b005b6102ab60048036038101906102a6919061387f565b6109c2565b6040516102b89190613d48565b60405180910390f35b6102db60048036038101906102d691906135d4565b610a56565b005b6102f760048036038101906102f29190613774565b610ab4565b005b610313600480360381019061030e9190613804565b610af4565b005b61032f600480360381019061032a91906133f6565b610b87565b005b610339610c28565b6040516103469190613d48565b60405180910390f35b610369600480360381019061036491906138d1565b610c61565b6040516103769190613f1d565b60405180910390f35b61039960048036038101906103949190613391565b610ddf565b6040516103a69190613f1d565b60405180910390f35b6103c960048036038101906103c4919061364c565b610e36565b6040516103d69190613cb9565b60405180910390f35b6103f960048036038101906103f491906138a8565b610fe7565b6040516104069190613d48565b60405180910390f35b61042960048036038101906104249190613391565b6110d8565b6040516104399493929190613d6a565b60405180910390f35b61045c60048036038101906104579190613580565b6110ff565b005b610478600480360381019061047391906138a8565b6111e2565b6040516104859190613d48565b60405180910390f35b6104a860048036038101906104a3919061374b565b611282565b6040516104bc989796959493929190613f38565b60405180910390f35b6104df60048036038101906104da919061370a565b6119d4565b005b6104fb60048036038101906104f691906138a8565b6119e0565b6040516105089190613d48565b60405180910390f35b61052b600480360381019061052691906138a8565b611a80565b6040516105389190613d48565b60405180910390f35b61055b6004803603810190610556919061374b565b611b71565b60405161056a93929190613ffa565b60405180910390f35b61058d60048036038101906105889190613610565b611c30565b60405161059a9190613f1d565b60405180910390f35b6105bd60048036038101906105b89190613610565b611c77565b6040516105ca9190613fb6565b60405180910390f35b6105ed60048036038101906105e8919061374b565b611c93565b6040516105fa9190613f1d565b60405180910390f35b61061d60048036038101906106189190613544565b611d00565b005b6106396004803603810190610634919061374b565b611d16565b6040516106499493929190613d6a565b60405180910390f35b61066c60048036038101906106679190613391565b611e2f565b604051610680989796959493929190613f38565b60405180910390f35b6106a3600480360381019061069e919061374b565b611e67565b6040516106b09190613d48565b60405180910390f35b6106d360048036038101906106ce91906137c8565b611f07565b6040516106e09190613fb6565b60405180910390f35b61070360048036038101906106fe919061374b565b611f65565b6040516107109190613d48565b60405180910390f35b610721612012565b60405161072e9190613fb6565b60405180910390f35b610751600480360381019061074c91906133ba565b61201e565b60405161075e9190613d12565b60405180910390f35b610781600480360381019061077c9190613391565b6120b2565b60405161078e9190613d48565b60405180910390f35b6107b160048036038101906107ac91906134b5565b6120cc565b005b6107cd60048036038101906107c89190613391565b61216d565b6040516107da9190613f1d565b60405180910390f35b60008073ffffffffffffffffffffffffffffffffffffffff168373ffffffffffffffffffffffffffffffffffffffff161415610854576040517f08c379a000000000000000000000000000000000000000000000000000000000815260040161084b90613dfd565b60405180910390fd5b60008083815260200190815260200160002060008473ffffffffffffffffffffffffffffffffffffffff1673ffffffffffffffffffffffffffffffffffffffff16815260200190815260200160002054905092915050565b60007fd9b67a26000000000000000000000000000000000000000000000000000000007bffffffffffffffffffffffffffffffffffffffffffffffffffffffff1916827bffffffffffffffffffffffffffffffffffffffffffffffffffffffff1916148061097757507f0e89341c000000000000000000000000000000000000000000000000000000007bffffffffffffffffffffffffffffffffffffffffffffffffffffffff1916827bffffffffffffffffffffffffffffffffffffffffffffffffffffffff1916145b8061098757506109868261218e565b5b9050919050565b80600b60008461ffff1661ffff16815260200190815260200160002090805190602001906109bd92919061305f565b505050565b6060600280546109d19061455d565b80601f01602080910402602001604051908101604052809291908181526020018280546109fd9061455d565b8015610a4a5780601f10610a1f57610100808354040283529160200191610a4a565b820191906000526020600020905b815481529060010190602001808311610a2d57829003601f168201915b50505050509050919050565b80600660008473ffffffffffffffffffffffffffffffffffffffff1673ffffffffffffffffffffffffffffffffffffffff16815260200190815260200160002060006101000a81548161ffff021916908361ffff1602179055505050565b80600960008461ffff1661ffff1681526020019081526020016000206002019080519060200190610ae692919061305f565b50610af0816121f8565b5050565b81600960008661ffff1661ffff1681526020019081526020016000206001018190555082600960008661ffff1661ffff16815260200190815260200160002060000160006101000a81548160ff021916908360ff16021790555080600960008661ffff1661ffff1681526020019081526020016000206002019080519060200190610b8092919061305f565b5050505050565b610b8f612212565b73ffffffffffffffffffffffffffffffffffffffff168573ffffffffffffffffffffffffffffffffffffffff161480610bd55750610bd485610bcf612212565b61201e565b5b610c14576040517f08c379a0000000000000000000000000000000000000000000000000000000008152600401610c0b90613e1d565b60405180910390fd5b610c21858585858561221a565b5050505050565b6040518060400160405280600a81526020017f307837383065396436330000000000000000000000000000000000000000000081525081565b6000610c6d600a612588565b6000610c79600a61259e565b9050600560003373ffffffffffffffffffffffffffffffffffffffff1673ffffffffffffffffffffffffffffffffffffffff1681526020019081526020016000208190806001815401808255809150506001900390600052602060002090601091828204019190066002029091909190916101000a81548161ffff021916908361ffff160217905550610d33338261ffff1660016000604051602001610d1f9190613d2d565b6040516020818303038152906040526125ac565b610d3c836121f8565b610d46818461098e565b60405180606001604052808560ff1681526020016000815260200184815250600960008361ffff1661ffff16815260200190815260200160002060008201518160000160006101000a81548160ff021916908360ff160217905550602082015181600101556040820151816002019080519060200190610dc792919061305f565b50905050610dd53382610a56565b8091505092915050565b6000600660008373ffffffffffffffffffffffffffffffffffffffff1673ffffffffffffffffffffffffffffffffffffffff16815260200190815260200160002060009054906101000a900461ffff169050919050565b60608151835114610e7c576040517f08c379a0000000000000000000000000000000000000000000000000000000008152600401610e7390613e9d565b60405180910390fd5b6000835167ffffffffffffffff811115610ebf577f4e487b7100000000000000000000000000000000000000000000000000000000600052604160045260246000fd5b604051908082528060200260200182016040528015610eed5781602001602082028036833780820191505090505b50905060005b8451811015610fdc57610f86858281518110610f38577f4e487b7100000000000000000000000000000000000000000000000000000000600052603260045260246000fd5b6020026020010151858381518110610f79577f4e487b7100000000000000000000000000000000000000000000000000000000600052603260045260246000fd5b60200260200101516107e3565b828281518110610fbf577f4e487b7100000000000000000000000000000000000000000000000000000000600052603260045260246000fd5b60200260200101818152505080610fd5906145eb565b9050610ef3565b508091505092915050565b606060048260ff161061102f576040517f08c379a000000000000000000000000000000000000000000000000000000000815260040161102690613ddd565b60405180910390fd5b600760008360ff1660ff16815260200190815260200160002080546110539061455d565b80601f016020809104026020016040519081016040528092919081815260200182805461107f9061455d565b80156110cc5780601f106110a1576101008083540402835291602001916110cc565b820191906000526020600020905b8154815290600101906020018083116110af57829003601f168201915b50505050509050919050565b606060008060606110f06110eb86610ddf565b611d16565b93509350935093509193509193565b600061110a83610ddf565b9050611116818361098e565b61111f826121f8565b6000600960008361ffff1661ffff168152602001908152602001600020600101549050600061114d83611c93565b9050606460018261115e9190614412565b61ffff16600261116e919061429a565b61117891906143b8565b8261118391906141c0565b915081600960008561ffff1661ffff1681526020019081526020016000206001018190555083600960008561ffff1661ffff16815260200190815260200160002060020190805190602001906111da92919061305f565b505050505050565b600760205280600052604060002060009150905080546112019061455d565b80601f016020809104026020016040519081016040528092919081815260200182805461122d9061455d565b801561127a5780601f1061124f5761010080835404028352916020019161127a565b820191906000526020600020905b81548152906001019060200180831161125d57829003601f168201915b505050505081565b60008060008060008060008060006112998a611c93565b905060009850600097506000965060009550600094506000935060009250600091506000600960008c61ffff1661ffff16815260200190815260200160002060000160009054906101000a900460ff1660ff161415611332576003896112ff9190614188565b985060028661130e9190614188565b955060018761131d9190614188565b9650848061132a906145c0565b955050611496565b6001600960008c61ffff1661ffff16815260200190815260200160002060000160009054906101000a900460ff1660ff1614156113a9576003886113769190614188565b97506002876113859190614188565b96506001866113949190614188565b955083806113a1906145c0565b945050611495565b6002600960008c61ffff1661ffff16815260200190815260200160002060000160009054906101000a900460ff1660ff161415611420576003876113ed9190614188565b96506002886113fc9190614188565b975060018961140b9190614188565b98508280611418906145c0565b935050611494565b6003600960008c61ffff1661ffff16815260200190815260200160002060000160009054906101000a900460ff1660ff161415611493576003866114649190614188565b95506002896114739190614188565b98506001886114829190614188565b9750818061148f906145c0565b9250505b5b5b5b6000600190505b8161ffff168161ffff1610156119c7576000600960008d61ffff1661ffff16815260200190815260200160002060000160009054906101000a900460ff1660ff1614156115b35761150a600160038d846114f79190614188565b6115019190614634565b61ffff1661275d565b8a6115159190614188565b995061153d600160048d8461152a9190614188565b6115349190614634565b61ffff16612776565b876115489190614188565b96506002818c6115589190614188565b6115629190614634565b8861156d9190614188565b97506115a16000600260048e856115849190614188565b61158e9190614634565b6115989190614412565b61ffff1661275d565b896115ac9190614188565b98506118c4565b6001600960008d61ffff1661ffff16815260200190815260200160002060000160009054906101000a900460ff1660ff1614156116b957611610600160038d846115fd9190614188565b6116079190614634565b61ffff1661275d565b8961161b9190614188565b9850611643600160048d846116309190614188565b61163a9190614634565b61ffff16612776565b8861164e9190614188565b97506002818c61165e9190614188565b6116689190614634565b876116739190614188565b96506116a76000600260048e8561168a9190614188565b6116949190614634565b61169e9190614412565b61ffff1661275d565b8a6116b29190614188565b99506118c3565b6002600960008d61ffff1661ffff16815260200190815260200160002060000160009054906101000a900460ff1660ff1614156117bf57611716600160038d846117039190614188565b61170d9190614634565b61ffff1661275d565b886117219190614188565b9750611749600160048d846117369190614188565b6117409190614634565b61ffff16612776565b896117549190614188565b98506002818c6117649190614188565b61176e9190614634565b8a6117799190614188565b99506117ad6000600260048e856117909190614188565b61179a9190614634565b6117a49190614412565b61ffff1661275d565b876117b89190614188565b96506118c2565b6003600960008d61ffff1661ffff16815260200190815260200160002060000160009054906101000a900460ff1660ff1614156118c15761181c600160038d846118099190614188565b6118139190614634565b61ffff1661275d565b876118279190614188565b965061184f600160048d8461183c9190614188565b6118469190614634565b61ffff16612776565b8a61185a9190614188565b99506002818c61186a9190614188565b6118749190614634565b8961187f9190614188565b98506118b36000600260048e856118969190614188565b6118a09190614634565b6118aa9190614412565b61ffff1661275d565b886118be9190614188565b97505b5b5b5b6002818c6118d29190614188565b6118dc9190614634565b60058b6118e99190614216565b6118f39190614188565b866118fe9190614188565b95506002818c61190e9190614188565b6119189190614634565b60058a6119259190614216565b61192f9190614188565b8561193a9190614188565b94506002818c61194a9190614188565b6119549190614634565b6005896119619190614216565b61196b9190614188565b846119769190614188565b93506002818c6119869190614188565b6119909190614634565b60058861199d9190614216565b6119a79190614188565b836119b29190614188565b925080806119bf906145c0565b91505061149d565b5050919395975091939597565b6119dd816121f8565b50565b600860205280600052604060002060009150905080546119ff9061455d565b80601f0160208091040260200160405190810160405280929190818152602001828054611a2b9061455d565b8015611a785780601f10611a4d57610100808354040283529160200191611a78565b820191906000526020600020905b815481529060010190602001808311611a5b57829003601f168201915b505050505081565b606060048260ff1610611ac8576040517f08c379a0000000000000000000000000000000000000000000000000000000008152600401611abf90613ddd565b60405180910390fd5b600860008360ff1660ff1681526020019081526020016000208054611aec9061455d565b80601f0160208091040260200160405190810160405280929190818152602001828054611b189061455d565b8015611b655780601f10611b3a57610100808354040283529160200191611b65565b820191906000526020600020905b815481529060010190602001808311611b4857829003601f168201915b50505050509050919050565b60096020528060005260406000206000915090508060000160009054906101000a900460ff1690806001015490806002018054611bad9061455d565b80601f0160208091040260200160405190810160405280929190818152602001828054611bd99061455d565b8015611c265780601f10611bfb57610100808354040283529160200191611c26565b820191906000526020600020905b815481529060010190602001808311611c0957829003601f168201915b5050505050905083565b60056020528160005260406000208181548110611c4c57600080fd5b9060005260206000209060109182820401919006600202915091509054906101000a900461ffff1681565b6000611c8b611c8584610ddf565b83611f07565b905092915050565b600080600960008461ffff1661ffff168152602001908152602001600020600101549050600060649050600192505b808210611cf9578280611cd4906145c0565b9350508082611ce39190614446565b9150600281611cf291906143b8565b9050611cc2565b5050919050565b611d12611d0b612212565b838361278f565b5050565b60606000806060611d51600960008761ffff1661ffff16815260200190815260200160002060000160009054906101000a900460ff16610fe7565b9350611d5c85611c93565b9250600960008661ffff1661ffff168152602001908152602001600020600101549150600960008661ffff1661ffff1681526020019081526020016000206002018054611da89061455d565b80601f0160208091040260200160405190810160405280929190818152602001828054611dd49061455d565b8015611e215780601f10611df657610100808354040283529160200191611e21565b820191906000526020600020905b815481529060010190602001808311611e0457829003601f168201915b505050505090509193509193565b600080600080600080600080611e4c611e478a610ddf565b611282565b97509750975097509750975097509750919395975091939597565b600b6020528060005260406000206000915090508054611e869061455d565b80601f0160208091040260200160405190810160405280929190818152602001828054611eb29061455d565b8015611eff5780601f10611ed457610100808354040283529160200191611eff565b820191906000526020600020905b815481529060010190602001808311611ee257829003601f168201915b505050505081565b600081600960008561ffff1661ffff1681526020019081526020016000206001016000828254611f3791906141c0565b92505081905550600960008461ffff1661ffff16815260200190815260200160002060010154905092915050565b6060600b60008361ffff1661ffff1681526020019081526020016000208054611f8d9061455d565b80601f0160208091040260200160405190810160405280929190818152602001828054611fb99061455d565b80156120065780601f10611fdb57610100808354040283529160200191612006565b820191906000526020600020905b815481529060010190602001808311611fe957829003601f168201915b50505050509050919050565b600a8060000154905081565b6000600160008473ffffffffffffffffffffffffffffffffffffffff1673ffffffffffffffffffffffffffffffffffffffff16815260200190815260200160002060008373ffffffffffffffffffffffffffffffffffffffff1673ffffffffffffffffffffffffffffffffffffffff16815260200190815260200160002060009054906101000a900460ff16905092915050565b60606120c56120c083610ddf565b611f65565b9050919050565b6120d4612212565b73ffffffffffffffffffffffffffffffffffffffff168573ffffffffffffffffffffffffffffffffffffffff16148061211a575061211985612114612212565b61201e565b5b612159576040517f08c379a000000000000000000000000000000000000000000000000000000000815260040161215090613e1d565b60405180910390fd5b61216685858585856128fc565b5050505050565b60066020528060005260406000206000915054906101000a900461ffff1681565b60007f01ffc9a7000000000000000000000000000000000000000000000000000000007bffffffffffffffffffffffffffffffffffffffffffffffffffffffff1916827bffffffffffffffffffffffffffffffffffffffffffffffffffffffff1916149050919050565b806002908051906020019061220e92919061305f565b5050565b600033905090565b815183511461225e576040517f08c379a000000000000000000000000000000000000000000000000000000000815260040161225590613ebd565b60405180910390fd5b600073ffffffffffffffffffffffffffffffffffffffff168473ffffffffffffffffffffffffffffffffffffffff1614156122ce576040517f08c379a00000000000000000000000000000000000000000000000000000000081526004016122c590613e3d565b60405180910390fd5b60006122d8612212565b90506122e8818787878787612b98565b60005b84518110156124e557600085828151811061232f577f4e487b7100000000000000000000000000000000000000000000000000000000600052603260045260246000fd5b602002602001015190506000858381518110612374577f4e487b7100000000000000000000000000000000000000000000000000000000600052603260045260246000fd5b60200260200101519050600080600084815260200190815260200160002060008b73ffffffffffffffffffffffffffffffffffffffff1673ffffffffffffffffffffffffffffffffffffffff16815260200190815260200160002054905081811015612415576040517f08c379a000000000000000000000000000000000000000000000000000000000815260040161240c90613e5d565b60405180910390fd5b81810360008085815260200190815260200160002060008c73ffffffffffffffffffffffffffffffffffffffff1673ffffffffffffffffffffffffffffffffffffffff168152602001908152602001600020819055508160008085815260200190815260200160002060008b73ffffffffffffffffffffffffffffffffffffffff1673ffffffffffffffffffffffffffffffffffffffff16815260200190815260200160002060008282546124ca91906141c0565b92505081905550505050806124de906145eb565b90506122eb565b508473ffffffffffffffffffffffffffffffffffffffff168673ffffffffffffffffffffffffffffffffffffffff168273ffffffffffffffffffffffffffffffffffffffff167f4a39dc06d4c0dbc64b70af90fd698a233a518aa5d07e595d983b8c0526c8f7fb878760405161255c929190613cdb565b60405180910390a4612572818787878787612ba0565b612580818787878787612ba8565b505050505050565b6001816000016000828254019250508190555050565b600081600001549050919050565b600073ffffffffffffffffffffffffffffffffffffffff168473ffffffffffffffffffffffffffffffffffffffff16141561261c576040517f08c379a000000000000000000000000000000000000000000000000000000000815260040161261390613edd565b60405180910390fd5b6000612626612212565b9050600061263385612d8f565b9050600061264085612d8f565b905061265183600089858589612b98565b8460008088815260200190815260200160002060008973ffffffffffffffffffffffffffffffffffffffff1673ffffffffffffffffffffffffffffffffffffffff16815260200190815260200160002060008282546126b091906141c0565b925050819055508673ffffffffffffffffffffffffffffffffffffffff16600073ffffffffffffffffffffffffffffffffffffffff168473ffffffffffffffffffffffffffffffffffffffff167fc3d58168c5ae7397731d063d5bbf3d657854427343f4c083240f7aacaa2d0f62898960405161272e929190613fd1565b60405180910390a461274583600089858589612ba0565b61275483600089898989612e55565b50505050505050565b600081831161276c578161276e565b825b905092915050565b60008183106127855781612787565b825b905092915050565b8173ffffffffffffffffffffffffffffffffffffffff168373ffffffffffffffffffffffffffffffffffffffff1614156127fe576040517f08c379a00000000000000000000000000000000000000000000000000000000081526004016127f590613e7d565b60405180910390fd5b80600160008573ffffffffffffffffffffffffffffffffffffffff1673ffffffffffffffffffffffffffffffffffffffff16815260200190815260200160002060008473ffffffffffffffffffffffffffffffffffffffff1673ffffffffffffffffffffffffffffffffffffffff16815260200190815260200160002060006101000a81548160ff0219169083151502179055508173ffffffffffffffffffffffffffffffffffffffff168373ffffffffffffffffffffffffffffffffffffffff167f17307eab39ab6107e8899845ad3d59bd9653f200f220920489ca2b5937696c31836040516128ef9190613d12565b60405180910390a3505050565b600073ffffffffffffffffffffffffffffffffffffffff168473ffffffffffffffffffffffffffffffffffffffff16141561296c576040517f08c379a000000000000000000000000000000000000000000000000000000000815260040161296390613e3d565b60405180910390fd5b6000612976612212565b9050600061298385612d8f565b9050600061299085612d8f565b90506129a0838989858589612b98565b600080600088815260200190815260200160002060008a73ffffffffffffffffffffffffffffffffffffffff1673ffffffffffffffffffffffffffffffffffffffff16815260200190815260200160002054905085811015612a37576040517f08c379a0000000000000000000000000000000000000000000000000000000008152600401612a2e90613e5d565b60405180910390fd5b85810360008089815260200190815260200160002060008b73ffffffffffffffffffffffffffffffffffffffff1673ffffffffffffffffffffffffffffffffffffffff168152602001908152602001600020819055508560008089815260200190815260200160002060008a73ffffffffffffffffffffffffffffffffffffffff1673ffffffffffffffffffffffffffffffffffffffff1681526020019081526020016000206000828254612aec91906141c0565b925050819055508773ffffffffffffffffffffffffffffffffffffffff168973ffffffffffffffffffffffffffffffffffffffff168573ffffffffffffffffffffffffffffffffffffffff167fc3d58168c5ae7397731d063d5bbf3d657854427343f4c083240f7aacaa2d0f628a8a604051612b69929190613fd1565b60405180910390a4612b7f848a8a86868a612ba0565b612b8d848a8a8a8a8a612e55565b505050505050505050565b505050505050565b505050505050565b612bc78473ffffffffffffffffffffffffffffffffffffffff1661303c565b15612d87578373ffffffffffffffffffffffffffffffffffffffff1663bc197c8187878686866040518663ffffffff1660e01b8152600401612c0d959493929190613bf7565b602060405180830381600087803b158015612c2757600080fd5b505af1925050508015612c5857506040513d601f19601f82011682018060405250810190612c5591906136e1565b60015b612cfe57612c64614721565b806308c379a01415612cc15750612c79614aad565b80612c845750612cc3565b806040517f08c379a0000000000000000000000000000000000000000000000000000000008152600401612cb89190613d48565b60405180910390fd5b505b6040517f08c379a0000000000000000000000000000000000000000000000000000000008152600401612cf590613efd565b60405180910390fd5b63bc197c8160e01b7bffffffffffffffffffffffffffffffffffffffffffffffffffffffff1916817bffffffffffffffffffffffffffffffffffffffffffffffffffffffff191614612d85576040517f08c379a0000000000000000000000000000000000000000000000000000000008152600401612d7c90613dbd565b60405180910390fd5b505b505050505050565b60606000600167ffffffffffffffff811115612dd4577f4e487b7100000000000000000000000000000000000000000000000000000000600052604160045260246000fd5b604051908082528060200260200182016040528015612e025781602001602082028036833780820191505090505b5090508281600081518110612e40577f4e487b7100000000000000000000000000000000000000000000000000000000600052603260045260246000fd5b60200260200101818152505080915050919050565b612e748473ffffffffffffffffffffffffffffffffffffffff1661303c565b15613034578373ffffffffffffffffffffffffffffffffffffffff1663f23a6e6187878686866040518663ffffffff1660e01b8152600401612eba959493929190613c5f565b602060405180830381600087803b158015612ed457600080fd5b505af1925050508015612f0557506040513d601f19601f82011682018060405250810190612f0291906136e1565b60015b612fab57612f11614721565b806308c379a01415612f6e5750612f26614aad565b80612f315750612f70565b806040517f08c379a0000000000000000000000000000000000000000000000000000000008152600401612f659190613d48565b60405180910390fd5b505b6040517f08c379a0000000000000000000000000000000000000000000000000000000008152600401612fa290613efd565b60405180910390fd5b63f23a6e6160e01b7bffffffffffffffffffffffffffffffffffffffffffffffffffffffff1916817bffffffffffffffffffffffffffffffffffffffffffffffffffffffff191614613032576040517f08c379a000000000000000000000000000000000000000000000000000000000815260040161302990613dbd565b60405180910390fd5b505b505050505050565b6000808273ffffffffffffffffffffffffffffffffffffffff163b119050919050565b82805461306b9061455d565b90600052602060002090601f01602090048101928261308d57600085556130d4565b82601f106130a657805160ff19168380011785556130d4565b828001600101855582156130d4579182015b828111156130d35782518255916020019190600101906130b8565b5b5090506130e191906130e5565b5090565b5b808211156130fe5760008160009055506001016130e6565b5090565b60006131156131108461405d565b614038565b9050808382526020820190508285602086028201111561313457600080fd5b60005b85811015613164578161314a8882613256565b845260208401935060208301925050600181019050613137565b5050509392505050565b600061318161317c84614089565b614038565b905080838252602082019050828560208602820111156131a057600080fd5b60005b858110156131d057816131b68882613367565b8452602084019350602083019250506001810190506131a3565b5050509392505050565b60006131ed6131e8846140b5565b614038565b90508281526020810184848401111561320557600080fd5b61321084828561451b565b509392505050565b600061322b613226846140e6565b614038565b90508281526020810184848401111561324357600080fd5b61324e84828561451b565b509392505050565b60008135905061326581614b43565b92915050565b600082601f83011261327c57600080fd5b813561328c848260208601613102565b91505092915050565b600082601f8301126132a657600080fd5b81356132b684826020860161316e565b91505092915050565b6000813590506132ce81614b5a565b92915050565b6000813590506132e381614b71565b92915050565b6000815190506132f881614b71565b92915050565b600082601f83011261330f57600080fd5b813561331f8482602086016131da565b91505092915050565b600082601f83011261333957600080fd5b8135613349848260208601613218565b91505092915050565b60008135905061336181614b88565b92915050565b60008135905061337681614b9f565b92915050565b60008135905061338b81614bb6565b92915050565b6000602082840312156133a357600080fd5b60006133b184828501613256565b91505092915050565b600080604083850312156133cd57600080fd5b60006133db85828601613256565b92505060206133ec85828601613256565b9150509250929050565b600080600080600060a0868803121561340e57600080fd5b600061341c88828901613256565b955050602061342d88828901613256565b945050604086013567ffffffffffffffff81111561344a57600080fd5b61345688828901613295565b935050606086013567ffffffffffffffff81111561347357600080fd5b61347f88828901613295565b925050608086013567ffffffffffffffff81111561349c57600080fd5b6134a8888289016132fe565b9150509295509295909350565b600080600080600060a086880312156134cd57600080fd5b60006134db88828901613256565b95505060206134ec88828901613256565b94505060406134fd88828901613367565b935050606061350e88828901613367565b925050608086013567ffffffffffffffff81111561352b57600080fd5b613537888289016132fe565b9150509295509295909350565b6000806040838503121561355757600080fd5b600061356585828601613256565b9250506020613576858286016132bf565b9150509250929050565b6000806040838503121561359357600080fd5b60006135a185828601613256565b925050602083013567ffffffffffffffff8111156135be57600080fd5b6135ca85828601613328565b9150509250929050565b600080604083850312156135e757600080fd5b60006135f585828601613256565b925050602061360685828601613352565b9150509250929050565b6000806040838503121561362357600080fd5b600061363185828601613256565b925050602061364285828601613367565b9150509250929050565b6000806040838503121561365f57600080fd5b600083013567ffffffffffffffff81111561367957600080fd5b6136858582860161326b565b925050602083013567ffffffffffffffff8111156136a257600080fd5b6136ae85828601613295565b9150509250929050565b6000602082840312156136ca57600080fd5b60006136d8848285016132d4565b91505092915050565b6000602082840312156136f357600080fd5b6000613701848285016132e9565b91505092915050565b60006020828403121561371c57600080fd5b600082013567ffffffffffffffff81111561373657600080fd5b61374284828501613328565b91505092915050565b60006020828403121561375d57600080fd5b600061376b84828501613352565b91505092915050565b6000806040838503121561378757600080fd5b600061379585828601613352565b925050602083013567ffffffffffffffff8111156137b257600080fd5b6137be85828601613328565b9150509250929050565b600080604083850312156137db57600080fd5b60006137e985828601613352565b92505060206137fa85828601613367565b9150509250929050565b6000806000806080858703121561381a57600080fd5b600061382887828801613352565b94505060206138398782880161337c565b935050604061384a87828801613367565b925050606085013567ffffffffffffffff81111561386757600080fd5b61387387828801613328565b91505092959194509250565b60006020828403121561389157600080fd5b600061389f84828501613367565b91505092915050565b6000602082840312156138ba57600080fd5b60006138c88482850161337c565b91505092915050565b600080604083850312156138e457600080fd5b60006138f28582860161337c565b925050602083013567ffffffffffffffff81111561390f57600080fd5b61391b85828601613328565b9150509250929050565b60006139318383613bca565b60208301905092915050565b6139468161447a565b82525050565b600061395782614127565b6139618185614155565b935061396c83614117565b8060005b8381101561399d5781516139848882613925565b975061398f83614148565b925050600181019050613970565b5085935050505092915050565b6139b38161448c565b82525050565b60006139c482614132565b6139ce8185614166565b93506139de81856020860161452a565b6139e781614743565b840191505092915050565b6139fb81614509565b82525050565b6000613a0c8261413d565b613a168185614177565b9350613a2681856020860161452a565b613a2f81614743565b840191505092915050565b6000613a47602883614177565b9150613a528261476e565b604082019050919050565b6000613a6a601f83614177565b9150613a75826147bd565b602082019050919050565b6000613a8d602a83614177565b9150613a98826147e6565b604082019050919050565b6000613ab0602e83614177565b9150613abb82614835565b604082019050919050565b6000613ad3602583614177565b9150613ade82614884565b604082019050919050565b6000613af6602a83614177565b9150613b01826148d3565b604082019050919050565b6000613b19602983614177565b9150613b2482614922565b604082019050919050565b6000613b3c602983614177565b9150613b4782614971565b604082019050919050565b6000613b5f602883614177565b9150613b6a826149c0565b604082019050919050565b6000613b82602183614177565b9150613b8d82614a0f565b604082019050919050565b6000613ba5603483614177565b9150613bb082614a5e565b604082019050919050565b613bc4816144c4565b82525050565b613bd3816144f2565b82525050565b613be2816144f2565b82525050565b613bf1816144fc565b82525050565b600060a082019050613c0c600083018861393d565b613c19602083018761393d565b8181036040830152613c2b818661394c565b90508181036060830152613c3f818561394c565b90508181036080830152613c5381846139b9565b90509695505050505050565b600060a082019050613c74600083018861393d565b613c81602083018761393d565b613c8e6040830186613bd9565b613c9b6060830185613bd9565b8181036080830152613cad81846139b9565b90509695505050505050565b60006020820190508181036000830152613cd3818461394c565b905092915050565b60006040820190508181036000830152613cf5818561394c565b90508181036020830152613d09818461394c565b90509392505050565b6000602082019050613d2760008301846139aa565b92915050565b6000602082019050613d4260008301846139f2565b92915050565b60006020820190508181036000830152613d628184613a01565b905092915050565b60006080820190508181036000830152613d848187613a01565b9050613d936020830186613bbb565b613da06040830185613bd9565b8181036060830152613db28184613a01565b905095945050505050565b60006020820190508181036000830152613dd681613a3a565b9050919050565b60006020820190508181036000830152613df681613a5d565b9050919050565b60006020820190508181036000830152613e1681613a80565b9050919050565b60006020820190508181036000830152613e3681613aa3565b9050919050565b60006020820190508181036000830152613e5681613ac6565b9050919050565b60006020820190508181036000830152613e7681613ae9565b9050919050565b60006020820190508181036000830152613e9681613b0c565b9050919050565b60006020820190508181036000830152613eb681613b2f565b9050919050565b60006020820190508181036000830152613ed681613b52565b9050919050565b60006020820190508181036000830152613ef681613b75565b9050919050565b60006020820190508181036000830152613f1681613b98565b9050919050565b6000602082019050613f326000830184613bbb565b92915050565b600061010082019050613f4e600083018b613bbb565b613f5b602083018a613bbb565b613f686040830189613bbb565b613f756060830188613bbb565b613f826080830187613bbb565b613f8f60a0830186613bbb565b613f9c60c0830185613bbb565b613fa960e0830184613bbb565b9998505050505050505050565b6000602082019050613fcb6000830184613bd9565b92915050565b6000604082019050613fe66000830185613bd9565b613ff36020830184613bd9565b9392505050565b600060608201905061400f6000830186613be8565b61401c6020830185613bd9565b818103604083015261402e8184613a01565b9050949350505050565b6000614042614053565b905061404e828261458f565b919050565b6000604051905090565b600067ffffffffffffffff821115614078576140776146f2565b5b602082029050602081019050919050565b600067ffffffffffffffff8211156140a4576140a36146f2565b5b602082029050602081019050919050565b600067ffffffffffffffff8211156140d0576140cf6146f2565b5b6140d982614743565b9050602081019050919050565b600067ffffffffffffffff821115614101576141006146f2565b5b61410a82614743565b9050602081019050919050565b6000819050602082019050919050565b600081519050919050565b600081519050919050565b600081519050919050565b6000602082019050919050565b600082825260208201905092915050565b600082825260208201905092915050565b600082825260208201905092915050565b6000614193826144c4565b915061419e836144c4565b92508261ffff038211156141b5576141b4614665565b5b828201905092915050565b60006141cb826144f2565b91506141d6836144f2565b9250827fffffffffffffffffffffffffffffffffffffffffffffffffffffffffffffffff0382111561420b5761420a614665565b5b828201905092915050565b6000614221826144c4565b915061422c836144c4565b92508261423c5761423b614694565b5b828204905092915050565b6000808291508390505b60018511156142915780860481111561426d5761426c614665565b5b600185161561427c5780820291505b808102905061428a85614754565b9450614251565b94509492505050565b60006142a5826144f2565b91506142b0836144f2565b92506142dd7fffffffffffffffffffffffffffffffffffffffffffffffffffffffffffffffff84846142e5565b905092915050565b6000826142f557600190506143b1565b8161430357600090506143b1565b8160018114614319576002811461432357614352565b60019150506143b1565b60ff84111561433557614334614665565b5b8360020a91508482111561434c5761434b614665565b5b506143b1565b5060208310610133831016604e8410600b84101617156143875782820a90508381111561438257614381614665565b5b6143b1565b6143948484846001614247565b925090508184048111156143ab576143aa614665565b5b81810290505b9392505050565b60006143c3826144f2565b91506143ce836144f2565b9250817fffffffffffffffffffffffffffffffffffffffffffffffffffffffffffffffff048311821515161561440757614406614665565b5b828202905092915050565b600061441d826144c4565b9150614428836144c4565b92508282101561443b5761443a614665565b5b828203905092915050565b6000614451826144f2565b915061445c836144f2565b92508282101561446f5761446e614665565b5b828203905092915050565b6000614485826144d2565b9050919050565b60008115159050919050565b60007fffffffff0000000000000000000000000000000000000000000000000000000082169050919050565b600061ffff82169050919050565b600073ffffffffffffffffffffffffffffffffffffffff82169050919050565b6000819050919050565b600060ff82169050919050565b6000614514826144fc565b9050919050565b82818337600083830152505050565b60005b8381101561454857808201518184015260208101905061452d565b83811115614557576000848401525b50505050565b6000600282049050600182168061457557607f821691505b60208210811415614589576145886146c3565b5b50919050565b61459882614743565b810181811067ffffffffffffffff821117156145b7576145b66146f2565b5b80604052505050565b60006145cb826144c4565b915061ffff8214156145e0576145df614665565b5b600182019050919050565b60006145f6826144f2565b91507fffffffffffffffffffffffffffffffffffffffffffffffffffffffffffffffff82141561462957614628614665565b5b600182019050919050565b600061463f826144c4565b915061464a836144c4565b92508261465a57614659614694565b5b828206905092915050565b7f4e487b7100000000000000000000000000000000000000000000000000000000600052601160045260246000fd5b7f4e487b7100000000000000000000000000000000000000000000000000000000600052601260045260246000fd5b7f4e487b7100000000000000000000000000000000000000000000000000000000600052602260045260246000fd5b7f4e487b7100000000000000000000000000000000000000000000000000000000600052604160045260246000fd5b600060033d11156147405760046000803e61473d600051614761565b90505b90565b6000601f19601f8301169050919050565b60008160011c9050919050565b60008160e01c9050919050565b7f455243313135353a204552433131353552656365697665722072656a6563746560008201527f6420746f6b656e73000000000000000000000000000000000000000000000000602082015250565b7f4e756d626572206d757374206265206265747765656e203020616e6420332e00600082015250565b7f455243313135353a2061646472657373207a65726f206973206e6f742061207660008201527f616c6964206f776e657200000000000000000000000000000000000000000000602082015250565b7f455243313135353a2063616c6c6572206973206e6f7420746f6b656e206f776e60008201527f6572206f7220617070726f766564000000000000000000000000000000000000602082015250565b7f455243313135353a207472616e7366657220746f20746865207a65726f20616460008201527f6472657373000000000000000000000000000000000000000000000000000000602082015250565b7f455243313135353a20696e73756666696369656e742062616c616e636520666f60008201527f72207472616e7366657200000000000000000000000000000000000000000000602082015250565b7f455243313135353a2073657474696e6720617070726f76616c2073746174757360008201527f20666f722073656c660000000000000000000000000000000000000000000000602082015250565b7f455243313135353a206163636f756e747320616e6420696473206c656e67746860008201527f206d69736d617463680000000000000000000000000000000000000000000000602082015250565b7f455243313135353a2069647320616e6420616d6f756e7473206c656e6774682060008201527f6d69736d61746368000000000000000000000000000000000000000000000000602082015250565b7f455243313135353a206d696e7420746f20746865207a65726f2061646472657360008201527f7300000000000000000000000000000000000000000000000000000000000000602082015250565b7f455243313135353a207472616e7366657220746f206e6f6e2d4552433131353560008201527f526563656976657220696d706c656d656e746572000000000000000000000000602082015250565b600060443d1015614abd57614b40565b614ac5614053565b60043d036004823e80513d602482011167ffffffffffffffff82111715614aed575050614b40565b808201805167ffffffffffffffff811115614b0b5750505050614b40565b80602083010160043d038501811115614b28575050505050614b40565b614b378260200185018661458f565b82955050505050505b90565b614b4c8161447a565b8114614b5757600080fd5b50565b614b638161448c565b8114614b6e57600080fd5b50565b614b7a81614498565b8114614b8557600080fd5b50565b614b91816144c4565b8114614b9c57600080fd5b50565b614ba8816144f2565b8114614bb357600080fd5b50565b614bbf816144fc565b8114614bca57600080fd5b5056fea2646970667358221220d9f389537e28f467be3f36438db13064045cb45676d963eeeea4ccb48334e44964736f6c63430008010033",
  "linkReferences": {},
  "deployedLinkReferences": {}
}