{"contracts/LMNTL.sol":{"LMNTL":{"abi":[{"inputs":[],"stateMutability":"nonpayable","type":"constructor"},{"anonymous":false,"inputs":[{"indexed":true,"internalType":"address","name":"account","type":"address"},{"indexed":true,"internalType":"address","name":"operator","type":"address"},{"indexed":false,"internalType":"bool","name":"approved","type":"bool"}],"name":"ApprovalForAll","type":"event"},{"anonymous":false,"inputs":[{"indexed":true,"internalType":"address","name":"operator","type":"address"},{"indexed":true,"internalType":"address","name":"from","type":"address"},{"indexed":true,"internalType":"address","name":"to","type":"address"},{"indexed":false,"internalType":"uint256[]","name":"ids","type":"uint256[]"},{"indexed":false,"internalType":"uint256[]","name":"values","type":"uint256[]"}],"name":"TransferBatch","type":"event"},{"anonymous":false,"inputs":[{"indexed":true,"internalType":"address","name":"operator","type":"address"},{"indexed":true,"internalType":"address","name":"from","type":"address"},{"indexed":true,"internalType":"address","name":"to","type":"address"},{"indexed":false,"internalType":"uint256","name":"id","type":"uint256"},{"indexed":false,"internalType":"uint256","name":"value","type":"uint256"}],"name":"TransferSingle","type":"event"},{"anonymous":false,"inputs":[{"indexed":false,"internalType":"string","name":"value","type":"string"},{"indexed":true,"internalType":"uint256","name":"id","type":"uint256"}],"name":"URI","type":"event"},{"inputs":[],"name":"INTERFACE_ID_ERC1155","outputs":[{"internalType":"string","name":"","type":"string"}],"stateMutability":"view","type":"function"},{"inputs":[{"internalType":"uint8","name":"","type":"uint8"}],"name":"attributes","outputs":[{"internalType":"string","name":"","type":"string"}],"stateMutability":"view","type":"function"},{"inputs":[{"internalType":"address","name":"account","type":"address"},{"internalType":"uint256","name":"id","type":"uint256"}],"name":"balanceOf","outputs":[{"internalType":"uint256","name":"","type":"uint256"}],"stateMutability":"view","type":"function"},{"inputs":[{"internalType":"address[]","name":"accounts","type":"address[]"},{"internalType":"uint256[]","name":"ids","type":"uint256[]"}],"name":"balanceOfBatch","outputs":[{"internalType":"uint256[]","name":"","type":"uint256[]"}],"stateMutability":"view","type":"function"},{"inputs":[{"internalType":"uint16","name":"tokenID","type":"uint16"},{"internalType":"string","name":"newImageURI","type":"string"}],"name":"changeImageURI","outputs":[],"stateMutability":"nonpayable","type":"function"},{"inputs":[{"internalType":"uint16","name":"","type":"uint16"}],"name":"characters","outputs":[{"internalType":"uint8","name":"element","type":"uint8"},{"internalType":"uint256","name":"exp","type":"uint256"},{"internalType":"string","name":"imageURI","type":"string"}],"stateMutability":"view","type":"function"},{"inputs":[{"internalType":"uint8","name":"","type":"uint8"}],"name":"elements","outputs":[{"internalType":"string","name":"","type":"string"}],"stateMutability":"view","type":"function"},{"inputs":[{"internalType":"uint16","name":"tokenID","type":"uint16"},{"internalType":"uint256","name":"exp","type":"uint256"}],"name":"gainEXP","outputs":[{"internalType":"uint256","name":"","type":"uint256"}],"stateMutability":"nonpayable","type":"function"},{"inputs":[{"internalType":"address","name":"_userAddress","type":"address"},{"internalType":"uint256","name":"exp","type":"uint256"}],"name":"gainUserEXP","outputs":[{"internalType":"uint256","name":"","type":"uint256"}],"stateMutability":"nonpayable","type":"function"},{"inputs":[{"internalType":"uint8","name":"num","type":"uint8"}],"name":"getAttribute","outputs":[{"internalType":"string","name":"","type":"string"}],"stateMutability":"view","type":"function"},{"inputs":[{"internalType":"uint16","name":"tokenID","type":"uint16"}],"name":"getCurrentLevel","outputs":[{"internalType":"uint16","name":"currentLevel","type":"uint16"}],"stateMutability":"view","type":"function"},{"inputs":[{"internalType":"uint16","name":"tokenID","type":"uint16"}],"name":"getCurrentStats","outputs":[{"internalType":"uint16","name":"currentLevel","type":"uint16"},{"internalType":"uint256","name":"exp","type":"uint256"},{"internalType":"uint16","name":"fire","type":"uint16"},{"internalType":"uint16","name":"water","type":"uint16"},{"internalType":"uint16","name":"air","type":"uint16"},{"internalType":"uint16","name":"earth","type":"uint16"},{"internalType":"uint16","name":"charisma","type":"uint16"},{"internalType":"uint16","name":"creativity","type":"uint16"},{"internalType":"uint16","name":"cunning","type":"uint16"},{"internalType":"uint16","name":"patience","type":"uint16"}],"stateMutability":"view","type":"function"},{"inputs":[{"internalType":"uint8","name":"num","type":"uint8"}],"name":"getElement","outputs":[{"internalType":"string","name":"","type":"string"}],"stateMutability":"view","type":"function"},{"inputs":[{"internalType":"uint16","name":"tokenID","type":"uint16"}],"name":"getMetadata","outputs":[{"internalType":"string","name":"","type":"string"}],"stateMutability":"view","type":"function"},{"inputs":[{"internalType":"uint16","name":"tokenID","type":"uint16"}],"name":"getPrimaryStats","outputs":[{"internalType":"string","name":"element","type":"string"},{"internalType":"uint16","name":"level","type":"uint16"},{"internalType":"uint256","name":"exp","type":"uint256"},{"internalType":"string","name":"imageURI","type":"string"}],"stateMutability":"view","type":"function"},{"inputs":[{"internalType":"address","name":"_userAddress","type":"address"}],"name":"getUserCurrentStats","outputs":[{"internalType":"uint16","name":"currentLevel","type":"uint16"},{"internalType":"uint256","name":"exp","type":"uint256"},{"internalType":"uint16","name":"fire","type":"uint16"},{"internalType":"uint16","name":"water","type":"uint16"},{"internalType":"uint16","name":"air","type":"uint16"},{"internalType":"uint16","name":"earth","type":"uint16"},{"internalType":"uint16","name":"charisma","type":"uint16"},{"internalType":"uint16","name":"creativity","type":"uint16"},{"internalType":"uint16","name":"cunning","type":"uint16"},{"internalType":"uint16","name":"patience","type":"uint16"}],"stateMutability":"view","type":"function"},{"inputs":[{"internalType":"address","name":"_userAddress","type":"address"}],"name":"getUserMetadata","outputs":[{"internalType":"string","name":"metadataUri","type":"string"}],"stateMutability":"view","type":"function"},{"inputs":[{"internalType":"address","name":"_userAddress","type":"address"}],"name":"getUserPrimaryStats","outputs":[{"internalType":"string","name":"element","type":"string"},{"internalType":"uint16","name":"level","type":"uint16"},{"internalType":"uint256","name":"exp","type":"uint256"},{"internalType":"string","name":"imageURI","type":"string"}],"stateMutability":"view","type":"function"},{"inputs":[{"internalType":"address","name":"_userAddress","type":"address"}],"name":"getUserTokenID","outputs":[{"internalType":"uint16","name":"largestTokenId","type":"uint16"}],"stateMutability":"view","type":"function"},{"inputs":[{"internalType":"address","name":"account","type":"address"},{"internalType":"address","name":"operator","type":"address"}],"name":"isApprovedForAll","outputs":[{"internalType":"bool","name":"","type":"bool"}],"stateMutability":"view","type":"function"},{"inputs":[{"internalType":"address","name":"_userAddress","type":"address"},{"internalType":"string","name":"imageURI","type":"string"}],"name":"levelUp","outputs":[],"stateMutability":"nonpayable","type":"function"},{"inputs":[{"internalType":"uint8","name":"element","type":"uint8"},{"internalType":"string","name":"imageURI","type":"string"}],"name":"mint","outputs":[{"internalType":"uint16","name":"","type":"uint16"}],"stateMutability":"nonpayable","type":"function"},{"inputs":[],"name":"nftCounter","outputs":[{"internalType":"uint256","name":"_value","type":"uint256"}],"stateMutability":"view","type":"function"},{"inputs":[{"internalType":"address","name":"from","type":"address"},{"internalType":"address","name":"to","type":"address"},{"internalType":"uint256[]","name":"ids","type":"uint256[]"},{"internalType":"uint256[]","name":"amounts","type":"uint256[]"},{"internalType":"bytes","name":"data","type":"bytes"}],"name":"safeBatchTransferFrom","outputs":[],"stateMutability":"nonpayable","type":"function"},{"inputs":[{"internalType":"address","name":"from","type":"address"},{"internalType":"address","name":"to","type":"address"},{"internalType":"uint256","name":"id","type":"uint256"},{"internalType":"uint256","name":"amount","type":"uint256"},{"internalType":"bytes","name":"data","type":"bytes"}],"name":"safeTransferFrom","outputs":[],"stateMutability":"nonpayable","type":"function"},{"inputs":[{"internalType":"address","name":"operator","type":"address"},{"internalType":"bool","name":"approved","type":"bool"}],"name":"setApprovalForAll","outputs":[],"stateMutability":"nonpayable","type":"function"},{"inputs":[{"internalType":"uint16","name":"tokenID","type":"uint16"},{"internalType":"string","name":"_metadata","type":"string"}],"name":"setMetadata","outputs":[],"stateMutability":"nonpayable","type":"function"},{"inputs":[{"internalType":"bytes4","name":"interfaceId","type":"bytes4"}],"name":"supportsInterface","outputs":[{"internalType":"bool","name":"","type":"bool"}],"stateMutability":"view","type":"function"},{"inputs":[{"internalType":"uint16","name":"","type":"uint16"}],"name":"tokenMetadata","outputs":[{"internalType":"string","name":"","type":"string"}],"stateMutability":"view","type":"function"},{"inputs":[{"internalType":"address","name":"","type":"address"},{"internalType":"uint256","name":"","type":"uint256"}],"name":"tokenOwners","outputs":[{"internalType":"uint16","name":"","type":"uint16"}],"stateMutability":"view","type":"function"},{"inputs":[{"internalType":"uint16","name":"tokenID","type":"uint16"},{"internalType":"uint8","name":"element","type":"uint8"},{"internalType":"uint256","name":"exp","type":"uint256"},{"internalType":"string","name":"imageURI","type":"string"}],"name":"updateCharacter","outputs":[],"stateMutability":"nonpayable","type":"function"},{"inputs":[{"internalType":"uint256","name":"","type":"uint256"}],"name":"uri","outputs":[{"internalType":"string","name":"","type":"string"}],"stateMutability":"view","type":"function"}],"evm":{"bytecode":{"linkReferences":{},"object":"60806040526040518060400160405280600581526020017f4c4d4e544c000000000000000000000000000000000000000000000000000000815250600390805190602001906200005192919062000494565b506040518060400160405280600581526020017f4c4d4e544c000000000000000000000000000000000000000000000000000000815250600490805190602001906200009f92919062000494565b50348015620000ad57600080fd5b506040518060400160405280600a81526020017f3078373830653964363300000000000000000000000000000000000000000000815250620000f5816200047860201b60201c565b5060038080546200010690620005dc565b6200011392919062000525565b5060048080546200012490620005dc565b6200013192919062000525565b506200015c60405180608001604052806043815260200162005224604391396200047860201b60201c565b6040518060400160405280600481526020017f6669726500000000000000000000000000000000000000000000000000000000815250600660008060ff1681526020019081526020016000209080519060200190620001bd92919062000494565b506040518060400160405280600581526020017f776174657200000000000000000000000000000000000000000000000000000081525060066000600160ff16815260200190815260200160002090805190602001906200022092919062000494565b506040518060400160405280600381526020017f616972000000000000000000000000000000000000000000000000000000000081525060066000600260ff16815260200190815260200160002090805190602001906200028392919062000494565b506040518060400160405280600581526020017f656172746800000000000000000000000000000000000000000000000000000081525060066000600360ff1681526020019081526020016000209080519060200190620002e692919062000494565b506040518060400160405280600881526020017f6368617269736d61000000000000000000000000000000000000000000000000815250600760008060ff16815260200190815260200160002090805190602001906200034892919062000494565b506040518060400160405280600a81526020017f637265617469766974790000000000000000000000000000000000000000000081525060076000600160ff1681526020019081526020016000209080519060200190620003ab92919062000494565b506040518060400160405280600781526020017f63756e6e696e670000000000000000000000000000000000000000000000000081525060076000600260ff16815260200190815260200160002090805190602001906200040e92919062000494565b506040518060400160405280600881526020017f70617469656e636500000000000000000000000000000000000000000000000081525060076000600360ff16815260200190815260200160002090805190602001906200047192919062000494565b5062000641565b80600290805190602001906200049092919062000494565b5050565b828054620004a290620005dc565b90600052602060002090601f016020900481019282620004c6576000855562000512565b82601f10620004e157805160ff191683800117855562000512565b8280016001018555821562000512579182015b8281111562000511578251825591602001919060010190620004f4565b5b509050620005219190620005bd565b5090565b8280546200053390620005dc565b90600052602060002090601f016020900481019282620005575760008555620005aa565b82601f106200056a5780548555620005aa565b82800160010185558215620005aa57600052602060002091601f016020900482015b82811115620005a95782548255916001019190600101906200058c565b5b509050620005b99190620005bd565b5090565b5b80821115620005d8576000816000905550600101620005be565b5090565b60006002820490506001821680620005f557607f821691505b602082108114156200060c576200060b62000612565b5b50919050565b7f4e487b7100000000000000000000000000000000000000000000000000000000600052602260045260246000fd5b614bd380620006516000396000f3fe608060405234801561001057600080fd5b50600436106101ef5760003560e01c806379f3b8721161010f578063b1e4ef06116100a2578063e574609e11610071578063e574609e146106c4578063e985e9c5146106e2578063ef2a876414610712578063f242432a14610742576101ef565b8063b1e4ef06146105fb578063b281e3e314610634578063b399975114610664578063e304c64c14610694576101ef565b80639fe48a86116100de5780639fe48a861461054c5780639fef17671461057c578063a22cb465146105ac578063ad48473b146105c8576101ef565b806379f3b8721461048a5780637dedef61146104ba57806388d2f6cf146104ea5780638b5e51d21461051c576101ef565b80633d04979d11610187578063591e992e11610156578063591e992e146103d257806359fd58a61461040557806361499c1a1461042157806365752f0814610451576101ef565b80633d04979d14610312578063423411b1146103425780634e1273f4146103725780635847df80146103a2576101ef565b80632c50b6b7116101c35780632c50b6b7146102a05780632db05c6b146102bc5780632eb2c2d6146102d857806333bf6156146102f4576101ef565b8062fdd58e146101f457806301ffc9a7146102245780630e5585e1146102545780630e89341c14610270575b600080fd5b61020e60048036038101906102099190613597565b61075e565b60405161021b9190613f5d565b60405180910390f35b61023e6004803603810190610239919061363f565b610827565b60405161024b9190613c7b565b60405180910390f35b61026e600480360381019061026991906136ba565b610909565b005b61028a600480360381019061028591906137c5565b61093d565b6040516102979190613cb1565b60405180910390f35b6102ba60048036038101906102b591906136ba565b6109d1565b005b6102d660048036038101906102d1919061374a565b610a11565b005b6102f260048036038101906102ed91906133b9565b610aa4565b005b6102fc610b45565b6040516103099190613cb1565b60405180910390f35b61032c60048036038101906103279190613817565b610b7e565b6040516103399190613ea6565b60405180910390f35b61035c60048036038101906103579190613354565b610cf2565b6040516103699190613ea6565b60405180910390f35b61038c600480360381019061038791906135d3565b610eff565b6040516103999190613c22565b60405180910390f35b6103bc60048036038101906103b791906137ee565b6110b0565b6040516103c99190613cb1565b60405180910390f35b6103ec60048036038101906103e79190613354565b6111a1565b6040516103fc9493929190613cd3565b60405180910390f35b61041f600480360381019061041a9190613543565b6111c8565b005b61043b600480360381019061043691906137ee565b6112a2565b6040516104489190613cb1565b60405180910390f35b61046b60048036038101906104669190613691565b611342565b6040516104819a99989796959493929190613ec1565b60405180910390f35b6104a4600480360381019061049f91906137ee565b6119bb565b6040516104b19190613cb1565b60405180910390f35b6104d460048036038101906104cf91906137ee565b611a5b565b6040516104e19190613cb1565b60405180910390f35b61050460048036038101906104ff9190613691565b611b4c565b60405161051393929190613fa1565b60405180910390f35b61053660048036038101906105319190613597565b611c0b565b6040516105439190613ea6565b60405180910390f35b61056660048036038101906105619190613597565b611c52565b6040516105739190613f5d565b60405180910390f35b61059660048036038101906105919190613691565b611c6e565b6040516105a39190613ea6565b60405180910390f35b6105c660048036038101906105c19190613507565b611cdb565b005b6105e260048036038101906105dd9190613691565b611cf1565b6040516105f29493929190613cd3565b60405180910390f35b61061560048036038101906106109190613354565b611e0a565b60405161062b9a99989796959493929190613ec1565b60405180910390f35b61064e60048036038101906106499190613691565b611e4b565b60405161065b9190613cb1565b60405180910390f35b61067e6004803603810190610679919061370e565b611eeb565b60405161068b9190613f5d565b60405180910390f35b6106ae60048036038101906106a99190613691565b611f49565b6040516106bb9190613cb1565b60405180910390f35b6106cc611ff6565b6040516106d99190613f5d565b60405180910390f35b6106fc60048036038101906106f7919061337d565b612002565b6040516107099190613c7b565b60405180910390f35b61072c60048036038101906107279190613354565b612096565b6040516107399190613cb1565b60405180910390f35b61075c60048036038101906107579190613478565b6120b0565b005b60008073ffffffffffffffffffffffffffffffffffffffff168373ffffffffffffffffffffffffffffffffffffffff1614156107cf576040517f08c379a00000000000000000000000000000000000000000000000000000000081526004016107c690613d66565b60405180910390fd5b60008083815260200190815260200160002060008473ffffffffffffffffffffffffffffffffffffffff1673ffffffffffffffffffffffffffffffffffffffff16815260200190815260200160002054905092915050565b60007fd9b67a26000000000000000000000000000000000000000000000000000000007bffffffffffffffffffffffffffffffffffffffffffffffffffffffff1916827bffffffffffffffffffffffffffffffffffffffffffffffffffffffff191614806108f257507f0e89341c000000000000000000000000000000000000000000000000000000007bffffffffffffffffffffffffffffffffffffffffffffffffffffffff1916827bffffffffffffffffffffffffffffffffffffffffffffffffffffffff1916145b80610902575061090182612151565b5b9050919050565b80600a60008461ffff1661ffff1681526020019081526020016000209080519060200190610938929190613022565b505050565b60606002805461094c90614504565b80601f016020809104026020016040519081016040528092919081815260200182805461097890614504565b80156109c55780601f1061099a576101008083540402835291602001916109c5565b820191906000526020600020905b8154815290600101906020018083116109a857829003601f168201915b50505050509050919050565b80600860008461ffff1661ffff1681526020019081526020016000206002019080519060200190610a03929190613022565b50610a0d816121bb565b5050565b81600860008661ffff1661ffff1681526020019081526020016000206001018190555082600860008661ffff1661ffff16815260200190815260200160002060000160006101000a81548160ff021916908360ff16021790555080600860008661ffff1661ffff1681526020019081526020016000206002019080519060200190610a9d929190613022565b5050505050565b610aac6121d5565b73ffffffffffffffffffffffffffffffffffffffff168573ffffffffffffffffffffffffffffffffffffffff161480610af25750610af185610aec6121d5565b612002565b5b610b31576040517f08c379a0000000000000000000000000000000000000000000000000000000008152600401610b2890613d86565b60405180910390fd5b610b3e85858585856121dd565b5050505050565b6040518060400160405280600a81526020017f307837383065396436330000000000000000000000000000000000000000000081525081565b6000610b8a600961254b565b6000610b966009612561565b9050600560003373ffffffffffffffffffffffffffffffffffffffff1673ffffffffffffffffffffffffffffffffffffffff1681526020019081526020016000208190806001815401808255809150506001900390600052602060002090601091828204019190066002029091909190916101000a81548161ffff021916908361ffff160217905550610c50338261ffff1660016000604051602001610c3c9190613c96565b60405160208183030381529060405261256f565b610c59836121bb565b610c638184610909565b60405180606001604052808560ff1681526020016000815260200184815250600860008361ffff1661ffff16815260200190815260200160002060008201518160000160006101000a81548160ff021916908360ff160217905550602082015181600101556040820151816002019080519060200190610ce4929190613022565b509050508091505092915050565b600080600560008473ffffffffffffffffffffffffffffffffffffffff1673ffffffffffffffffffffffffffffffffffffffff168152602001908152602001600020805480602002602001604051908101604052809291908181526020018280548015610da657602002820191906000526020600020906000905b82829054906101000a900461ffff1661ffff1681526020019060020190602082600101049283019260010382029150808411610d6d5790505b505050505090506000815111610df1576040517f08c379a0000000000000000000000000000000000000000000000000000000008152600401610de890613e66565b60405180910390fd5b80600081518110610e2b577f4e487b7100000000000000000000000000000000000000000000000000000000600052603260045260246000fd5b602002602001015191506000600190505b81518161ffff161015610ef8578261ffff16828261ffff1681518110610e8b577f4e487b7100000000000000000000000000000000000000000000000000000000600052603260045260246000fd5b602002602001015161ffff161115610ee557818161ffff1681518110610eda577f4e487b7100000000000000000000000000000000000000000000000000000000600052603260045260246000fd5b602002602001015192505b8080610ef090614567565b915050610e3c565b5050919050565b60608151835114610f45576040517f08c379a0000000000000000000000000000000000000000000000000000000008152600401610f3c90613e06565b60405180910390fd5b6000835167ffffffffffffffff811115610f88577f4e487b7100000000000000000000000000000000000000000000000000000000600052604160045260246000fd5b604051908082528060200260200182016040528015610fb65781602001602082028036833780820191505090505b50905060005b84518110156110a55761104f858281518110611001577f4e487b7100000000000000000000000000000000000000000000000000000000600052603260045260246000fd5b6020026020010151858381518110611042577f4e487b7100000000000000000000000000000000000000000000000000000000600052603260045260246000fd5b602002602001015161075e565b828281518110611088577f4e487b7100000000000000000000000000000000000000000000000000000000600052603260045260246000fd5b6020026020010181815250508061109e90614592565b9050610fbc565b508091505092915050565b606060048260ff16106110f8576040517f08c379a00000000000000000000000000000000000000000000000000000000081526004016110ef90613d46565b60405180910390fd5b600660008360ff1660ff168152602001908152602001600020805461111c90614504565b80601f016020809104026020016040519081016040528092919081815260200182805461114890614504565b80156111955780601f1061116a57610100808354040283529160200191611195565b820191906000526020600020905b81548152906001019060200180831161117857829003601f168201915b50505050509050919050565b606060008060606111b96111b486610cf2565b611cf1565b93509350935093509193509193565b60006111d383610cf2565b90506111df8183610909565b6000600860008361ffff1661ffff168152602001908152602001600020600101549050600061120d83611c6e565b9050606460018261121e91906143b9565b61ffff16600261122e9190614241565b611238919061435f565b826112439190614167565b915081600860008561ffff1661ffff1681526020019081526020016000206001018190555083600860008561ffff1661ffff168152602001908152602001600020600201908051906020019061129a929190613022565b505050505050565b600660205280600052604060002060009150905080546112c190614504565b80601f01602080910402602001604051908101604052809291908181526020018280546112ed90614504565b801561133a5780601f1061130f5761010080835404028352916020019161133a565b820191906000526020600020905b81548152906001019060200180831161131d57829003601f168201915b505050505081565b60008060008060008060008060008061135a8b611c6e565b9950600860008c61ffff1661ffff16815260200190815260200160002060010154985060009750600096506000955060009450600093506000925060009150600090506000600860008d61ffff1661ffff16815260200190815260200160002060000160009054906101000a900460ff1660ff161415611414576003886113e1919061412f565b97506002856113f0919061412f565b94506001866113ff919061412f565b9550838061140c90614567565b945050611578565b6001600860008d61ffff1661ffff16815260200190815260200160002060000160009054906101000a900460ff1660ff16141561148b57600387611458919061412f565b9650600286611467919061412f565b9550600185611476919061412f565b9450828061148390614567565b935050611577565b6002600860008d61ffff1661ffff16815260200190815260200160002060000160009054906101000a900460ff1660ff161415611502576003866114cf919061412f565b95506002876114de919061412f565b96506001886114ed919061412f565b975081806114fa90614567565b925050611576565b6003600860008d61ffff1661ffff16815260200190815260200160002060000160009054906101000a900460ff1660ff16141561157557600385611546919061412f565b9450600288611555919061412f565b9750600187611564919061412f565b9650808061157190614567565b9150505b5b5b5b6000600190505b8a61ffff168161ffff1610156119ad576000600860008e61ffff1661ffff16815260200190815260200160002060000160009054906101000a900460ff1660ff161415611656576115ec600160038e846115d9919061412f565b6115e391906145db565b61ffff16612720565b896115f7919061412f565b985061161f600160048e8461160c919061412f565b61161691906145db565b61ffff16612739565b8661162a919061412f565b95506002818d61163a919061412f565b61164491906145db565b8761164f919061412f565b96506118aa565b6001600860008e61ffff1661ffff16815260200190815260200160002060000160009054906101000a900460ff1660ff16141561171d576116b3600160038e846116a0919061412f565b6116aa91906145db565b61ffff16612720565b886116be919061412f565b97506116e6600160048e846116d3919061412f565b6116dd91906145db565b61ffff16612739565b876116f1919061412f565b96506002818d611701919061412f565b61170b91906145db565b86611716919061412f565b95506118a9565b6002600860008e61ffff1661ffff16815260200190815260200160002060000160009054906101000a900460ff1660ff1614156117e45761177a600160038e84611767919061412f565b61177191906145db565b61ffff16612720565b87611785919061412f565b96506117ad600160048e8461179a919061412f565b6117a491906145db565b61ffff16612739565b886117b8919061412f565b97506002818d6117c8919061412f565b6117d291906145db565b896117dd919061412f565b98506118a8565b6003600860008e61ffff1661ffff16815260200190815260200160002060000160009054906101000a900460ff1660ff1614156118a757611841600160038e8461182e919061412f565b61183891906145db565b61ffff16612720565b8661184c919061412f565b9550611874600160048e84611861919061412f565b61186b91906145db565b61ffff16612739565b8961187f919061412f565b98506002818d61188f919061412f565b61189991906145db565b886118a4919061412f565b97505b5b5b5b6002818d6118b8919061412f565b6118c291906145db565b60058a6118cf91906141bd565b6118d9919061412f565b856118e4919061412f565b94506002818d6118f4919061412f565b6118fe91906145db565b60058961190b91906141bd565b611915919061412f565b84611920919061412f565b93506002818d611930919061412f565b61193a91906145db565b60058861194791906141bd565b611951919061412f565b8361195c919061412f565b92506002818d61196c919061412f565b61197691906145db565b60058761198391906141bd565b61198d919061412f565b82611998919061412f565b915080806119a590614567565b91505061157f565b509193959799509193959799565b600760205280600052604060002060009150905080546119da90614504565b80601f0160208091040260200160405190810160405280929190818152602001828054611a0690614504565b8015611a535780601f10611a2857610100808354040283529160200191611a53565b820191906000526020600020905b815481529060010190602001808311611a3657829003601f168201915b505050505081565b606060048260ff1610611aa3576040517f08c379a0000000000000000000000000000000000000000000000000000000008152600401611a9a90613d46565b60405180910390fd5b600760008360ff1660ff1681526020019081526020016000208054611ac790614504565b80601f0160208091040260200160405190810160405280929190818152602001828054611af390614504565b8015611b405780601f10611b1557610100808354040283529160200191611b40565b820191906000526020600020905b815481529060010190602001808311611b2357829003601f168201915b50505050509050919050565b60086020528060005260406000206000915090508060000160009054906101000a900460ff1690806001015490806002018054611b8890614504565b80601f0160208091040260200160405190810160405280929190818152602001828054611bb490614504565b8015611c015780601f10611bd657610100808354040283529160200191611c01565b820191906000526020600020905b815481529060010190602001808311611be457829003601f168201915b5050505050905083565b60056020528160005260406000208181548110611c2757600080fd5b9060005260206000209060109182820401919006600202915091509054906101000a900461ffff1681565b6000611c66611c6084610cf2565b83611eeb565b905092915050565b600080600860008461ffff1661ffff168152602001908152602001600020600101549050600060649050600192505b808210611cd4578280611caf90614567565b9350508082611cbe91906143ed565b9150600281611ccd919061435f565b9050611c9d565b5050919050565b611ced611ce66121d5565b8383612752565b5050565b60606000806060611d2c600860008761ffff1661ffff16815260200190815260200160002060000160009054906101000a900460ff166110b0565b9350611d3785611c6e565b9250600860008661ffff1661ffff168152602001908152602001600020600101549150600860008661ffff1661ffff1681526020019081526020016000206002018054611d8390614504565b80601f0160208091040260200160405190810160405280929190818152602001828054611daf90614504565b8015611dfc5780601f10611dd157610100808354040283529160200191611dfc565b820191906000526020600020905b815481529060010190602001808311611ddf57829003601f168201915b505050505090509193509193565b600080600080600080600080600080611e2a611e258c610cf2565b611342565b99509950995099509950995099509950995099509193959799509193959799565b600a6020528060005260406000206000915090508054611e6a90614504565b80601f0160208091040260200160405190810160405280929190818152602001828054611e9690614504565b8015611ee35780601f10611eb857610100808354040283529160200191611ee3565b820191906000526020600020905b815481529060010190602001808311611ec657829003601f168201915b505050505081565b600081600860008561ffff1661ffff1681526020019081526020016000206001016000828254611f1b9190614167565b92505081905550600860008461ffff1661ffff16815260200190815260200160002060010154905092915050565b6060600a60008361ffff1661ffff1681526020019081526020016000208054611f7190614504565b80601f0160208091040260200160405190810160405280929190818152602001828054611f9d90614504565b8015611fea5780601f10611fbf57610100808354040283529160200191611fea565b820191906000526020600020905b815481529060010190602001808311611fcd57829003601f168201915b50505050509050919050565b60098060000154905081565b6000600160008473ffffffffffffffffffffffffffffffffffffffff1673ffffffffffffffffffffffffffffffffffffffff16815260200190815260200160002060008373ffffffffffffffffffffffffffffffffffffffff1673ffffffffffffffffffffffffffffffffffffffff16815260200190815260200160002060009054906101000a900460ff16905092915050565b60606120a96120a483610cf2565b611f49565b9050919050565b6120b86121d5565b73ffffffffffffffffffffffffffffffffffffffff168573ffffffffffffffffffffffffffffffffffffffff1614806120fe57506120fd856120f86121d5565b612002565b5b61213d576040517f08c379a000000000000000000000000000000000000000000000000000000000815260040161213490613d86565b60405180910390fd5b61214a85858585856128bf565b5050505050565b60007f01ffc9a7000000000000000000000000000000000000000000000000000000007bffffffffffffffffffffffffffffffffffffffffffffffffffffffff1916827bffffffffffffffffffffffffffffffffffffffffffffffffffffffff1916149050919050565b80600290805190602001906121d1929190613022565b5050565b600033905090565b8151835114612221576040517f08c379a000000000000000000000000000000000000000000000000000000000815260040161221890613e26565b60405180910390fd5b600073ffffffffffffffffffffffffffffffffffffffff168473ffffffffffffffffffffffffffffffffffffffff161415612291576040517f08c379a000000000000000000000000000000000000000000000000000000000815260040161228890613da6565b60405180910390fd5b600061229b6121d5565b90506122ab818787878787612b5b565b60005b84518110156124a85760008582815181106122f2577f4e487b7100000000000000000000000000000000000000000000000000000000600052603260045260246000fd5b602002602001015190506000858381518110612337577f4e487b7100000000000000000000000000000000000000000000000000000000600052603260045260246000fd5b60200260200101519050600080600084815260200190815260200160002060008b73ffffffffffffffffffffffffffffffffffffffff1673ffffffffffffffffffffffffffffffffffffffff168152602001908152602001600020549050818110156123d8576040517f08c379a00000000000000000000000000000000000000000000000000000000081526004016123cf90613dc6565b60405180910390fd5b81810360008085815260200190815260200160002060008c73ffffffffffffffffffffffffffffffffffffffff1673ffffffffffffffffffffffffffffffffffffffff168152602001908152602001600020819055508160008085815260200190815260200160002060008b73ffffffffffffffffffffffffffffffffffffffff1673ffffffffffffffffffffffffffffffffffffffff168152602001908152602001600020600082825461248d9190614167565b92505081905550505050806124a190614592565b90506122ae565b508473ffffffffffffffffffffffffffffffffffffffff168673ffffffffffffffffffffffffffffffffffffffff168273ffffffffffffffffffffffffffffffffffffffff167f4a39dc06d4c0dbc64b70af90fd698a233a518aa5d07e595d983b8c0526c8f7fb878760405161251f929190613c44565b60405180910390a4612535818787878787612b63565b612543818787878787612b6b565b505050505050565b6001816000016000828254019250508190555050565b600081600001549050919050565b600073ffffffffffffffffffffffffffffffffffffffff168473ffffffffffffffffffffffffffffffffffffffff1614156125df576040517f08c379a00000000000000000000000000000000000000000000000000000000081526004016125d690613e46565b60405180910390fd5b60006125e96121d5565b905060006125f685612d52565b9050600061260385612d52565b905061261483600089858589612b5b565b8460008088815260200190815260200160002060008973ffffffffffffffffffffffffffffffffffffffff1673ffffffffffffffffffffffffffffffffffffffff16815260200190815260200160002060008282546126739190614167565b925050819055508673ffffffffffffffffffffffffffffffffffffffff16600073ffffffffffffffffffffffffffffffffffffffff168473ffffffffffffffffffffffffffffffffffffffff167fc3d58168c5ae7397731d063d5bbf3d657854427343f4c083240f7aacaa2d0f6289896040516126f1929190613f78565b60405180910390a461270883600089858589612b63565b61271783600089898989612e18565b50505050505050565b600081831161272f5781612731565b825b905092915050565b6000818310612748578161274a565b825b905092915050565b8173ffffffffffffffffffffffffffffffffffffffff168373ffffffffffffffffffffffffffffffffffffffff1614156127c1576040517f08c379a00000000000000000000000000000000000000000000000000000000081526004016127b890613de6565b60405180910390fd5b80600160008573ffffffffffffffffffffffffffffffffffffffff1673ffffffffffffffffffffffffffffffffffffffff16815260200190815260200160002060008473ffffffffffffffffffffffffffffffffffffffff1673ffffffffffffffffffffffffffffffffffffffff16815260200190815260200160002060006101000a81548160ff0219169083151502179055508173ffffffffffffffffffffffffffffffffffffffff168373ffffffffffffffffffffffffffffffffffffffff167f17307eab39ab6107e8899845ad3d59bd9653f200f220920489ca2b5937696c31836040516128b29190613c7b565b60405180910390a3505050565b600073ffffffffffffffffffffffffffffffffffffffff168473ffffffffffffffffffffffffffffffffffffffff16141561292f576040517f08c379a000000000000000000000000000000000000000000000000000000000815260040161292690613da6565b60405180910390fd5b60006129396121d5565b9050600061294685612d52565b9050600061295385612d52565b9050612963838989858589612b5b565b600080600088815260200190815260200160002060008a73ffffffffffffffffffffffffffffffffffffffff1673ffffffffffffffffffffffffffffffffffffffff168152602001908152602001600020549050858110156129fa576040517f08c379a00000000000000000000000000000000000000000000000000000000081526004016129f190613dc6565b60405180910390fd5b85810360008089815260200190815260200160002060008b73ffffffffffffffffffffffffffffffffffffffff1673ffffffffffffffffffffffffffffffffffffffff168152602001908152602001600020819055508560008089815260200190815260200160002060008a73ffffffffffffffffffffffffffffffffffffffff1673ffffffffffffffffffffffffffffffffffffffff1681526020019081526020016000206000828254612aaf9190614167565b925050819055508773ffffffffffffffffffffffffffffffffffffffff168973ffffffffffffffffffffffffffffffffffffffff168573ffffffffffffffffffffffffffffffffffffffff167fc3d58168c5ae7397731d063d5bbf3d657854427343f4c083240f7aacaa2d0f628a8a604051612b2c929190613f78565b60405180910390a4612b42848a8a86868a612b63565b612b50848a8a8a8a8a612e18565b505050505050505050565b505050505050565b505050505050565b612b8a8473ffffffffffffffffffffffffffffffffffffffff16612fff565b15612d4a578373ffffffffffffffffffffffffffffffffffffffff1663bc197c8187878686866040518663ffffffff1660e01b8152600401612bd0959493929190613b60565b602060405180830381600087803b158015612bea57600080fd5b505af1925050508015612c1b57506040513d601f19601f82011682018060405250810190612c189190613668565b60015b612cc157612c276146c8565b806308c379a01415612c845750612c3c614a7d565b80612c475750612c86565b806040517f08c379a0000000000000000000000000000000000000000000000000000000008152600401612c7b9190613cb1565b60405180910390fd5b505b6040517f08c379a0000000000000000000000000000000000000000000000000000000008152600401612cb890613e86565b60405180910390fd5b63bc197c8160e01b7bffffffffffffffffffffffffffffffffffffffffffffffffffffffff1916817bffffffffffffffffffffffffffffffffffffffffffffffffffffffff191614612d48576040517f08c379a0000000000000000000000000000000000000000000000000000000008152600401612d3f90613d26565b60405180910390fd5b505b505050505050565b60606000600167ffffffffffffffff811115612d97577f4e487b7100000000000000000000000000000000000000000000000000000000600052604160045260246000fd5b604051908082528060200260200182016040528015612dc55781602001602082028036833780820191505090505b5090508281600081518110612e03577f4e487b7100000000000000000000000000000000000000000000000000000000600052603260045260246000fd5b60200260200101818152505080915050919050565b612e378473ffffffffffffffffffffffffffffffffffffffff16612fff565b15612ff7578373ffffffffffffffffffffffffffffffffffffffff1663f23a6e6187878686866040518663ffffffff1660e01b8152600401612e7d959493929190613bc8565b602060405180830381600087803b158015612e9757600080fd5b505af1925050508015612ec857506040513d601f19601f82011682018060405250810190612ec59190613668565b60015b612f6e57612ed46146c8565b806308c379a01415612f315750612ee9614a7d565b80612ef45750612f33565b806040517f08c379a0000000000000000000000000000000000000000000000000000000008152600401612f289190613cb1565b60405180910390fd5b505b6040517f08c379a0000000000000000000000000000000000000000000000000000000008152600401612f6590613e86565b60405180910390fd5b63f23a6e6160e01b7bffffffffffffffffffffffffffffffffffffffffffffffffffffffff1916817bffffffffffffffffffffffffffffffffffffffffffffffffffffffff191614612ff5576040517f08c379a0000000000000000000000000000000000000000000000000000000008152600401612fec90613d26565b60405180910390fd5b505b505050505050565b6000808273ffffffffffffffffffffffffffffffffffffffff163b119050919050565b82805461302e90614504565b90600052602060002090601f0160209004810192826130505760008555613097565b82601f1061306957805160ff1916838001178555613097565b82800160010185558215613097579182015b8281111561309657825182559160200191906001019061307b565b5b5090506130a491906130a8565b5090565b5b808211156130c15760008160009055506001016130a9565b5090565b60006130d86130d384614004565b613fdf565b905080838252602082019050828560208602820111156130f757600080fd5b60005b85811015613127578161310d8882613219565b8452602084019350602083019250506001810190506130fa565b5050509392505050565b600061314461313f84614030565b613fdf565b9050808382526020820190508285602086028201111561316357600080fd5b60005b858110156131935781613179888261332a565b845260208401935060208301925050600181019050613166565b5050509392505050565b60006131b06131ab8461405c565b613fdf565b9050828152602081018484840111156131c857600080fd5b6131d38482856144c2565b509392505050565b60006131ee6131e98461408d565b613fdf565b90508281526020810184848401111561320657600080fd5b6132118482856144c2565b509392505050565b60008135905061322881614b13565b92915050565b600082601f83011261323f57600080fd5b813561324f8482602086016130c5565b91505092915050565b600082601f83011261326957600080fd5b8135613279848260208601613131565b91505092915050565b60008135905061329181614b2a565b92915050565b6000813590506132a681614b41565b92915050565b6000815190506132bb81614b41565b92915050565b600082601f8301126132d257600080fd5b81356132e284826020860161319d565b91505092915050565b600082601f8301126132fc57600080fd5b813561330c8482602086016131db565b91505092915050565b60008135905061332481614b58565b92915050565b60008135905061333981614b6f565b92915050565b60008135905061334e81614b86565b92915050565b60006020828403121561336657600080fd5b600061337484828501613219565b91505092915050565b6000806040838503121561339057600080fd5b600061339e85828601613219565b92505060206133af85828601613219565b9150509250929050565b600080600080600060a086880312156133d157600080fd5b60006133df88828901613219565b95505060206133f088828901613219565b945050604086013567ffffffffffffffff81111561340d57600080fd5b61341988828901613258565b935050606086013567ffffffffffffffff81111561343657600080fd5b61344288828901613258565b925050608086013567ffffffffffffffff81111561345f57600080fd5b61346b888289016132c1565b9150509295509295909350565b600080600080600060a0868803121561349057600080fd5b600061349e88828901613219565b95505060206134af88828901613219565b94505060406134c08882890161332a565b93505060606134d18882890161332a565b925050608086013567ffffffffffffffff8111156134ee57600080fd5b6134fa888289016132c1565b9150509295509295909350565b6000806040838503121561351a57600080fd5b600061352885828601613219565b925050602061353985828601613282565b9150509250929050565b6000806040838503121561355657600080fd5b600061356485828601613219565b925050602083013567ffffffffffffffff81111561358157600080fd5b61358d858286016132eb565b9150509250929050565b600080604083850312156135aa57600080fd5b60006135b885828601613219565b92505060206135c98582860161332a565b9150509250929050565b600080604083850312156135e657600080fd5b600083013567ffffffffffffffff81111561360057600080fd5b61360c8582860161322e565b925050602083013567ffffffffffffffff81111561362957600080fd5b61363585828601613258565b9150509250929050565b60006020828403121561365157600080fd5b600061365f84828501613297565b91505092915050565b60006020828403121561367a57600080fd5b6000613688848285016132ac565b91505092915050565b6000602082840312156136a357600080fd5b60006136b184828501613315565b91505092915050565b600080604083850312156136cd57600080fd5b60006136db85828601613315565b925050602083013567ffffffffffffffff8111156136f857600080fd5b613704858286016132eb565b9150509250929050565b6000806040838503121561372157600080fd5b600061372f85828601613315565b92505060206137408582860161332a565b9150509250929050565b6000806000806080858703121561376057600080fd5b600061376e87828801613315565b945050602061377f8782880161333f565b93505060406137908782880161332a565b925050606085013567ffffffffffffffff8111156137ad57600080fd5b6137b9878288016132eb565b91505092959194509250565b6000602082840312156137d757600080fd5b60006137e58482850161332a565b91505092915050565b60006020828403121561380057600080fd5b600061380e8482850161333f565b91505092915050565b6000806040838503121561382a57600080fd5b60006138388582860161333f565b925050602083013567ffffffffffffffff81111561385557600080fd5b613861858286016132eb565b9150509250929050565b60006138778383613b33565b60208301905092915050565b61388c81614421565b82525050565b600061389d826140ce565b6138a781856140fc565b93506138b2836140be565b8060005b838110156138e35781516138ca888261386b565b97506138d5836140ef565b9250506001810190506138b6565b5085935050505092915050565b6138f981614433565b82525050565b600061390a826140d9565b613914818561410d565b93506139248185602086016144d1565b61392d816146ea565b840191505092915050565b613941816144b0565b82525050565b6000613952826140e4565b61395c818561411e565b935061396c8185602086016144d1565b613975816146ea565b840191505092915050565b600061398d60288361411e565b915061399882614715565b604082019050919050565b60006139b0601f8361411e565b91506139bb82614764565b602082019050919050565b60006139d3602a8361411e565b91506139de8261478d565b604082019050919050565b60006139f6602e8361411e565b9150613a01826147dc565b604082019050919050565b6000613a1960258361411e565b9150613a248261482b565b604082019050919050565b6000613a3c602a8361411e565b9150613a478261487a565b604082019050919050565b6000613a5f60298361411e565b9150613a6a826148c9565b604082019050919050565b6000613a8260298361411e565b9150613a8d82614918565b604082019050919050565b6000613aa560288361411e565b9150613ab082614967565b604082019050919050565b6000613ac860218361411e565b9150613ad3826149b6565b604082019050919050565b6000613aeb60178361411e565b9150613af682614a05565b602082019050919050565b6000613b0e60348361411e565b9150613b1982614a2e565b604082019050919050565b613b2d8161446b565b82525050565b613b3c81614499565b82525050565b613b4b81614499565b82525050565b613b5a816144a3565b82525050565b600060a082019050613b756000830188613883565b613b826020830187613883565b8181036040830152613b948186613892565b90508181036060830152613ba88185613892565b90508181036080830152613bbc81846138ff565b90509695505050505050565b600060a082019050613bdd6000830188613883565b613bea6020830187613883565b613bf76040830186613b42565b613c046060830185613b42565b8181036080830152613c1681846138ff565b90509695505050505050565b60006020820190508181036000830152613c3c8184613892565b905092915050565b60006040820190508181036000830152613c5e8185613892565b90508181036020830152613c728184613892565b90509392505050565b6000602082019050613c9060008301846138f0565b92915050565b6000602082019050613cab6000830184613938565b92915050565b60006020820190508181036000830152613ccb8184613947565b905092915050565b60006080820190508181036000830152613ced8187613947565b9050613cfc6020830186613b24565b613d096040830185613b42565b8181036060830152613d1b8184613947565b905095945050505050565b60006020820190508181036000830152613d3f81613980565b9050919050565b60006020820190508181036000830152613d5f816139a3565b9050919050565b60006020820190508181036000830152613d7f816139c6565b9050919050565b60006020820190508181036000830152613d9f816139e9565b9050919050565b60006020820190508181036000830152613dbf81613a0c565b9050919050565b60006020820190508181036000830152613ddf81613a2f565b9050919050565b60006020820190508181036000830152613dff81613a52565b9050919050565b60006020820190508181036000830152613e1f81613a75565b9050919050565b60006020820190508181036000830152613e3f81613a98565b9050919050565b60006020820190508181036000830152613e5f81613abb565b9050919050565b60006020820190508181036000830152613e7f81613ade565b9050919050565b60006020820190508181036000830152613e9f81613b01565b9050919050565b6000602082019050613ebb6000830184613b24565b92915050565b600061014082019050613ed7600083018d613b24565b613ee4602083018c613b42565b613ef1604083018b613b24565b613efe606083018a613b24565b613f0b6080830189613b24565b613f1860a0830188613b24565b613f2560c0830187613b24565b613f3260e0830186613b24565b613f40610100830185613b24565b613f4e610120830184613b24565b9b9a5050505050505050505050565b6000602082019050613f726000830184613b42565b92915050565b6000604082019050613f8d6000830185613b42565b613f9a6020830184613b42565b9392505050565b6000606082019050613fb66000830186613b51565b613fc36020830185613b42565b8181036040830152613fd58184613947565b9050949350505050565b6000613fe9613ffa565b9050613ff58282614536565b919050565b6000604051905090565b600067ffffffffffffffff82111561401f5761401e614699565b5b602082029050602081019050919050565b600067ffffffffffffffff82111561404b5761404a614699565b5b602082029050602081019050919050565b600067ffffffffffffffff82111561407757614076614699565b5b614080826146ea565b9050602081019050919050565b600067ffffffffffffffff8211156140a8576140a7614699565b5b6140b1826146ea565b9050602081019050919050565b6000819050602082019050919050565b600081519050919050565b600081519050919050565b600081519050919050565b6000602082019050919050565b600082825260208201905092915050565b600082825260208201905092915050565b600082825260208201905092915050565b600061413a8261446b565b91506141458361446b565b92508261ffff0382111561415c5761415b61460c565b5b828201905092915050565b600061417282614499565b915061417d83614499565b9250827fffffffffffffffffffffffffffffffffffffffffffffffffffffffffffffffff038211156141b2576141b161460c565b5b828201905092915050565b60006141c88261446b565b91506141d38361446b565b9250826141e3576141e261463b565b5b828204905092915050565b6000808291508390505b6001851115614238578086048111156142145761421361460c565b5b60018516156142235780820291505b8081029050614231856146fb565b94506141f8565b94509492505050565b600061424c82614499565b915061425783614499565b92506142847fffffffffffffffffffffffffffffffffffffffffffffffffffffffffffffffff848461428c565b905092915050565b60008261429c5760019050614358565b816142aa5760009050614358565b81600181146142c057600281146142ca576142f9565b6001915050614358565b60ff8411156142dc576142db61460c565b5b8360020a9150848211156142f3576142f261460c565b5b50614358565b5060208310610133831016604e8410600b841016171561432e5782820a9050838111156143295761432861460c565b5b614358565b61433b84848460016141ee565b925090508184048111156143525761435161460c565b5b81810290505b9392505050565b600061436a82614499565b915061437583614499565b9250817fffffffffffffffffffffffffffffffffffffffffffffffffffffffffffffffff04831182151516156143ae576143ad61460c565b5b828202905092915050565b60006143c48261446b565b91506143cf8361446b565b9250828210156143e2576143e161460c565b5b828203905092915050565b60006143f882614499565b915061440383614499565b9250828210156144165761441561460c565b5b828203905092915050565b600061442c82614479565b9050919050565b60008115159050919050565b60007fffffffff0000000000000000000000000000000000000000000000000000000082169050919050565b600061ffff82169050919050565b600073ffffffffffffffffffffffffffffffffffffffff82169050919050565b6000819050919050565b600060ff82169050919050565b60006144bb826144a3565b9050919050565b82818337600083830152505050565b60005b838110156144ef5780820151818401526020810190506144d4565b838111156144fe576000848401525b50505050565b6000600282049050600182168061451c57607f821691505b602082108114156145305761452f61466a565b5b50919050565b61453f826146ea565b810181811067ffffffffffffffff8211171561455e5761455d614699565b5b80604052505050565b60006145728261446b565b915061ffff8214156145875761458661460c565b5b600182019050919050565b600061459d82614499565b91507fffffffffffffffffffffffffffffffffffffffffffffffffffffffffffffffff8214156145d0576145cf61460c565b5b600182019050919050565b60006145e68261446b565b91506145f18361446b565b9250826146015761460061463b565b5b828206905092915050565b7f4e487b7100000000000000000000000000000000000000000000000000000000600052601160045260246000fd5b7f4e487b7100000000000000000000000000000000000000000000000000000000600052601260045260246000fd5b7f4e487b7100000000000000000000000000000000000000000000000000000000600052602260045260246000fd5b7f4e487b7100000000000000000000000000000000000000000000000000000000600052604160045260246000fd5b600060033d11156146e75760046000803e6146e4600051614708565b90505b90565b6000601f19601f8301169050919050565b60008160011c9050919050565b60008160e01c9050919050565b7f455243313135353a204552433131353552656365697665722072656a6563746560008201527f6420746f6b656e73000000000000000000000000000000000000000000000000602082015250565b7f4e756d626572206d757374206265206265747765656e203020616e6420332e00600082015250565b7f455243313135353a2061646472657373207a65726f206973206e6f742061207660008201527f616c6964206f776e657200000000000000000000000000000000000000000000602082015250565b7f455243313135353a2063616c6c6572206973206e6f7420746f6b656e206f776e60008201527f6572206f7220617070726f766564000000000000000000000000000000000000602082015250565b7f455243313135353a207472616e7366657220746f20746865207a65726f20616460008201527f6472657373000000000000000000000000000000000000000000000000000000602082015250565b7f455243313135353a20696e73756666696369656e742062616c616e636520666f60008201527f72207472616e7366657200000000000000000000000000000000000000000000602082015250565b7f455243313135353a2073657474696e6720617070726f76616c2073746174757360008201527f20666f722073656c660000000000000000000000000000000000000000000000602082015250565b7f455243313135353a206163636f756e747320616e6420696473206c656e67746860008201527f206d69736d617463680000000000000000000000000000000000000000000000602082015250565b7f455243313135353a2069647320616e6420616d6f756e7473206c656e6774682060008201527f6d69736d61746368000000000000000000000000000000000000000000000000602082015250565b7f455243313135353a206d696e7420746f20746865207a65726f2061646472657360008201527f7300000000000000000000000000000000000000000000000000000000000000602082015250565b7f5573657220686173206e6f204c4d4e544c204e4654732e000000000000000000600082015250565b7f455243313135353a207472616e7366657220746f206e6f6e2d4552433131353560008201527f526563656976657220696d706c656d656e746572000000000000000000000000602082015250565b600060443d1015614a8d57614b10565b614a95613ffa565b60043d036004823e80513d602482011167ffffffffffffffff82111715614abd575050614b10565b808201805167ffffffffffffffff811115614adb5750505050614b10565b80602083010160043d038501811115614af8575050505050614b10565b614b0782602001850186614536565b82955050505050505b90565b614b1c81614421565b8114614b2757600080fd5b50565b614b3381614433565b8114614b3e57600080fd5b50565b614b4a8161443f565b8114614b5557600080fd5b50565b614b618161446b565b8114614b6c57600080fd5b50565b614b7881614499565b8114614b8357600080fd5b50565b614b8f816144a3565b8114614b9a57600080fd5b5056fea2646970667358221220bdbf4c595010402cf84cdfa50e7d5fa6550256f00c875e767c9bba29ec11d13a64736f6c6343000801003368747470733a2f2f697066732e696f2f697066732f516d63334c35544673466f517151427055584c67744e7745435872505855384d644136545a56375a45576b4d6d66","opcodes":"PUSH1 0x80 PUSH1 0x40 MSTORE PUSH1 0x40 MLOAD DUP1 PUSH1 0x40 ADD PUSH1 0x40 MSTORE DUP1 PUSH1 0x5 DUP2 MSTORE PUSH1 0x20 ADD PUSH32 0x4C4D4E544C000000000000000000000000000000000000000000000000000000 DUP2 MSTORE POP PUSH1 0x3 SWAP1 DUP1 MLOAD SWAP1 PUSH1 0x20 ADD SWAP1 PUSH3 0x51 SWAP3 SWAP2 SWAP1 PUSH3 0x494 JUMP JUMPDEST POP PUSH1 0x40 MLOAD DUP1 PUSH1 0x40 ADD PUSH1 0x40 MSTORE DUP1 PUSH1 0x5 DUP2 MSTORE PUSH1 0x20 ADD PUSH32 0x4C4D4E544C000000000000000000000000000000000000000000000000000000 DUP2 MSTORE POP PUSH1 0x4 SWAP1 DUP1 MLOAD SWAP1 PUSH1 0x20 ADD SWAP1 PUSH3 0x9F SWAP3 SWAP2 SWAP1 PUSH3 0x494 JUMP JUMPDEST POP CALLVALUE DUP1 ISZERO PUSH3 0xAD JUMPI PUSH1 0x0 DUP1 REVERT JUMPDEST POP PUSH1 0x40 MLOAD DUP1 PUSH1 0x40 ADD PUSH1 0x40 MSTORE DUP1 PUSH1 0xA DUP2 MSTORE PUSH1 0x20 ADD PUSH32 0x3078373830653964363300000000000000000000000000000000000000000000 DUP2 MSTORE POP PUSH3 0xF5 DUP2 PUSH3 0x478 PUSH1 0x20 SHL PUSH1 0x20 SHR JUMP JUMPDEST POP PUSH1 0x3 DUP1 DUP1 SLOAD PUSH3 0x106 SWAP1 PUSH3 0x5DC JUMP JUMPDEST PUSH3 0x113 SWAP3 SWAP2 SWAP1 PUSH3 0x525 JUMP JUMPDEST POP PUSH1 0x4 DUP1 DUP1 SLOAD PUSH3 0x124 SWAP1 PUSH3 0x5DC JUMP JUMPDEST PUSH3 0x131 SWAP3 SWAP2 SWAP1 PUSH3 0x525 JUMP JUMPDEST POP PUSH3 0x15C PUSH1 0x40 MLOAD DUP1 PUSH1 0x80 ADD PUSH1 0x40 MSTORE DUP1 PUSH1 0x43 DUP2 MSTORE PUSH1 0x20 ADD PUSH3 0x5224 PUSH1 0x43 SWAP2 CODECOPY PUSH3 0x478 PUSH1 0x20 SHL PUSH1 0x20 SHR JUMP JUMPDEST PUSH1 0x40 MLOAD DUP1 PUSH1 0x40 ADD PUSH1 0x40 MSTORE DUP1 PUSH1 0x4 DUP2 MSTORE PUSH1 0x20 ADD PUSH32 0x6669726500000000000000000000000000000000000000000000000000000000 DUP2 MSTORE POP PUSH1 0x6 PUSH1 0x0 DUP1 PUSH1 0xFF AND DUP2 MSTORE PUSH1 0x20 ADD SWAP1 DUP2 MSTORE PUSH1 0x20 ADD PUSH1 0x0 KECCAK256 SWAP1 DUP1 MLOAD SWAP1 PUSH1 0x20 ADD SWAP1 PUSH3 0x1BD SWAP3 SWAP2 SWAP1 PUSH3 0x494 JUMP JUMPDEST POP PUSH1 0x40 MLOAD DUP1 PUSH1 0x40 ADD PUSH1 0x40 MSTORE DUP1 PUSH1 0x5 DUP2 MSTORE PUSH1 0x20 ADD PUSH32 0x7761746572000000000000000000000000000000000000000000000000000000 DUP2 MSTORE POP PUSH1 0x6 PUSH1 0x0 PUSH1 0x1 PUSH1 0xFF AND DUP2 MSTORE PUSH1 0x20 ADD SWAP1 DUP2 MSTORE PUSH1 0x20 ADD PUSH1 0x0 KECCAK256 SWAP1 DUP1 MLOAD SWAP1 PUSH1 0x20 ADD SWAP1 PUSH3 0x220 SWAP3 SWAP2 SWAP1 PUSH3 0x494 JUMP JUMPDEST POP PUSH1 0x40 MLOAD DUP1 PUSH1 0x40 ADD PUSH1 0x40 MSTORE DUP1 PUSH1 0x3 DUP2 MSTORE PUSH1 0x20 ADD PUSH32 0x6169720000000000000000000000000000000000000000000000000000000000 DUP2 MSTORE POP PUSH1 0x6 PUSH1 0x0 PUSH1 0x2 PUSH1 0xFF AND DUP2 MSTORE PUSH1 0x20 ADD SWAP1 DUP2 MSTORE PUSH1 0x20 ADD PUSH1 0x0 KECCAK256 SWAP1 DUP1 MLOAD SWAP1 PUSH1 0x20 ADD SWAP1 PUSH3 0x283 SWAP3 SWAP2 SWAP1 PUSH3 0x494 JUMP JUMPDEST POP PUSH1 0x40 MLOAD DUP1 PUSH1 0x40 ADD PUSH1 0x40 MSTORE DUP1 PUSH1 0x5 DUP2 MSTORE PUSH1 0x20 ADD PUSH32 0x6561727468000000000000000000000000000000000000000000000000000000 DUP2 MSTORE POP PUSH1 0x6 PUSH1 0x0 PUSH1 0x3 PUSH1 0xFF AND DUP2 MSTORE PUSH1 0x20 ADD SWAP1 DUP2 MSTORE PUSH1 0x20 ADD PUSH1 0x0 KECCAK256 SWAP1 DUP1 MLOAD SWAP1 PUSH1 0x20 ADD SWAP1 PUSH3 0x2E6 SWAP3 SWAP2 SWAP1 PUSH3 0x494 JUMP JUMPDEST POP PUSH1 0x40 MLOAD DUP1 PUSH1 0x40 ADD PUSH1 0x40 MSTORE DUP1 PUSH1 0x8 DUP2 MSTORE PUSH1 0x20 ADD PUSH32 0x6368617269736D61000000000000000000000000000000000000000000000000 DUP2 MSTORE POP PUSH1 0x7 PUSH1 0x0 DUP1 PUSH1 0xFF AND DUP2 MSTORE PUSH1 0x20 ADD SWAP1 DUP2 MSTORE PUSH1 0x20 ADD PUSH1 0x0 KECCAK256 SWAP1 DUP1 MLOAD SWAP1 PUSH1 0x20 ADD SWAP1 PUSH3 0x348 SWAP3 SWAP2 SWAP1 PUSH3 0x494 JUMP JUMPDEST POP PUSH1 0x40 MLOAD DUP1 PUSH1 0x40 ADD PUSH1 0x40 MSTORE DUP1 PUSH1 0xA DUP2 MSTORE PUSH1 0x20 ADD PUSH32 0x6372656174697669747900000000000000000000000000000000000000000000 DUP2 MSTORE POP PUSH1 0x7 PUSH1 0x0 PUSH1 0x1 PUSH1 0xFF AND DUP2 MSTORE PUSH1 0x20 ADD SWAP1 DUP2 MSTORE PUSH1 0x20 ADD PUSH1 0x0 KECCAK256 SWAP1 DUP1 MLOAD SWAP1 PUSH1 0x20 ADD SWAP1 PUSH3 0x3AB SWAP3 SWAP2 SWAP1 PUSH3 0x494 JUMP JUMPDEST POP PUSH1 0x40 MLOAD DUP1 PUSH1 0x40 ADD PUSH1 0x40 MSTORE DUP1 PUSH1 0x7 DUP2 MSTORE PUSH1 0x20 ADD PUSH32 0x63756E6E696E6700000000000000000000000000000000000000000000000000 DUP2 MSTORE POP PUSH1 0x7 PUSH1 0x0 PUSH1 0x2 PUSH1 0xFF AND DUP2 MSTORE PUSH1 0x20 ADD SWAP1 DUP2 MSTORE PUSH1 0x20 ADD PUSH1 0x0 KECCAK256 SWAP1 DUP1 MLOAD SWAP1 PUSH1 0x20 ADD SWAP1 PUSH3 0x40E SWAP3 SWAP2 SWAP1 PUSH3 0x494 JUMP JUMPDEST POP PUSH1 0x40 MLOAD DUP1 PUSH1 0x40 ADD PUSH1 0x40 MSTORE DUP1 PUSH1 0x8 DUP2 MSTORE PUSH1 0x20 ADD PUSH32 0x70617469656E6365000000000000000000000000000000000000000000000000 DUP2 MSTORE POP PUSH1 0x7 PUSH1 0x0 PUSH1 0x3 PUSH1 0xFF AND DUP2 MSTORE PUSH1 0x20 ADD SWAP1 DUP2 MSTORE PUSH1 0x20 ADD PUSH1 0x0 KECCAK256 SWAP1 DUP1 MLOAD SWAP1 PUSH1 0x20 ADD SWAP1 PUSH3 0x471 SWAP3 SWAP2 SWAP1 PUSH3 0x494 JUMP JUMPDEST POP PUSH3 0x641 JUMP JUMPDEST DUP1 PUSH1 0x2 SWAP1 DUP1 MLOAD SWAP1 PUSH1 0x20 ADD SWAP1 PUSH3 0x490 SWAP3 SWAP2 SWAP1 PUSH3 0x494 JUMP JUMPDEST POP POP JUMP JUMPDEST DUP3 DUP1 SLOAD PUSH3 0x4A2 SWAP1 PUSH3 0x5DC JUMP JUMPDEST SWAP1 PUSH1 0x0 MSTORE PUSH1 0x20 PUSH1 0x0 KECCAK256 SWAP1 PUSH1 0x1F ADD PUSH1 0x20 SWAP1 DIV DUP2 ADD SWAP3 DUP3 PUSH3 0x4C6 JUMPI PUSH1 0x0 DUP6 SSTORE PUSH3 0x512 JUMP JUMPDEST DUP3 PUSH1 0x1F LT PUSH3 0x4E1 JUMPI DUP1 MLOAD PUSH1 0xFF NOT AND DUP4 DUP1 ADD OR DUP6 SSTORE PUSH3 0x512 JUMP JUMPDEST DUP3 DUP1 ADD PUSH1 0x1 ADD DUP6 SSTORE DUP3 ISZERO PUSH3 0x512 JUMPI SWAP2 DUP3 ADD JUMPDEST DUP3 DUP2 GT ISZERO PUSH3 0x511 JUMPI DUP3 MLOAD DUP3 SSTORE SWAP2 PUSH1 0x20 ADD SWAP2 SWAP1 PUSH1 0x1 ADD SWAP1 PUSH3 0x4F4 JUMP JUMPDEST JUMPDEST POP SWAP1 POP PUSH3 0x521 SWAP2 SWAP1 PUSH3 0x5BD JUMP JUMPDEST POP SWAP1 JUMP JUMPDEST DUP3 DUP1 SLOAD PUSH3 0x533 SWAP1 PUSH3 0x5DC JUMP JUMPDEST SWAP1 PUSH1 0x0 MSTORE PUSH1 0x20 PUSH1 0x0 KECCAK256 SWAP1 PUSH1 0x1F ADD PUSH1 0x20 SWAP1 DIV DUP2 ADD SWAP3 DUP3 PUSH3 0x557 JUMPI PUSH1 0x0 DUP6 SSTORE PUSH3 0x5AA JUMP JUMPDEST DUP3 PUSH1 0x1F LT PUSH3 0x56A JUMPI DUP1 SLOAD DUP6 SSTORE PUSH3 0x5AA JUMP JUMPDEST DUP3 DUP1 ADD PUSH1 0x1 ADD DUP6 SSTORE DUP3 ISZERO PUSH3 0x5AA JUMPI PUSH1 0x0 MSTORE PUSH1 0x20 PUSH1 0x0 KECCAK256 SWAP2 PUSH1 0x1F ADD PUSH1 0x20 SWAP1 DIV DUP3 ADD JUMPDEST DUP3 DUP2 GT ISZERO PUSH3 0x5A9 JUMPI DUP3 SLOAD DUP3 SSTORE SWAP2 PUSH1 0x1 ADD SWAP2 SWAP1 PUSH1 0x1 ADD SWAP1 PUSH3 0x58C JUMP JUMPDEST JUMPDEST POP SWAP1 POP PUSH3 0x5B9 SWAP2 SWAP1 PUSH3 0x5BD JUMP JUMPDEST POP SWAP1 JUMP JUMPDEST JUMPDEST DUP1 DUP3 GT ISZERO PUSH3 0x5D8 JUMPI PUSH1 0x0 DUP2 PUSH1 0x0 SWAP1 SSTORE POP PUSH1 0x1 ADD PUSH3 0x5BE JUMP JUMPDEST POP SWAP1 JUMP JUMPDEST PUSH1 0x0 PUSH1 0x2 DUP3 DIV SWAP1 POP PUSH1 0x1 DUP3 AND DUP1 PUSH3 0x5F5 JUMPI PUSH1 0x7F DUP3 AND SWAP2 POP JUMPDEST PUSH1 0x20 DUP3 LT DUP2 EQ ISZERO PUSH3 0x60C JUMPI PUSH3 0x60B PUSH3 0x612 JUMP JUMPDEST JUMPDEST POP SWAP2 SWAP1 POP JUMP JUMPDEST PUSH32 0x4E487B7100000000000000000000000000000000000000000000000000000000 PUSH1 0x0 MSTORE PUSH1 0x22 PUSH1 0x4 MSTORE PUSH1 0x24 PUSH1 0x0 REVERT JUMPDEST PUSH2 0x4BD3 DUP1 PUSH3 0x651 PUSH1 0x0 CODECOPY PUSH1 0x0 RETURN INVALID PUSH1 0x80 PUSH1 0x40 MSTORE CALLVALUE DUP1 ISZERO PUSH2 0x10 JUMPI PUSH1 0x0 DUP1 REVERT JUMPDEST POP PUSH1 0x4 CALLDATASIZE LT PUSH2 0x1EF JUMPI PUSH1 0x0 CALLDATALOAD PUSH1 0xE0 SHR DUP1 PUSH4 0x79F3B872 GT PUSH2 0x10F JUMPI DUP1 PUSH4 0xB1E4EF06 GT PUSH2 0xA2 JUMPI DUP1 PUSH4 0xE574609E GT PUSH2 0x71 JUMPI DUP1 PUSH4 0xE574609E EQ PUSH2 0x6C4 JUMPI DUP1 PUSH4 0xE985E9C5 EQ PUSH2 0x6E2 JUMPI DUP1 PUSH4 0xEF2A8764 EQ PUSH2 0x712 JUMPI DUP1 PUSH4 0xF242432A EQ PUSH2 0x742 JUMPI PUSH2 0x1EF JUMP JUMPDEST DUP1 PUSH4 0xB1E4EF06 EQ PUSH2 0x5FB JUMPI DUP1 PUSH4 0xB281E3E3 EQ PUSH2 0x634 JUMPI DUP1 PUSH4 0xB3999751 EQ PUSH2 0x664 JUMPI DUP1 PUSH4 0xE304C64C EQ PUSH2 0x694 JUMPI PUSH2 0x1EF JUMP JUMPDEST DUP1 PUSH4 0x9FE48A86 GT PUSH2 0xDE JUMPI DUP1 PUSH4 0x9FE48A86 EQ PUSH2 0x54C JUMPI DUP1 PUSH4 0x9FEF1767 EQ PUSH2 0x57C JUMPI DUP1 PUSH4 0xA22CB465 EQ PUSH2 0x5AC JUMPI DUP1 PUSH4 0xAD48473B EQ PUSH2 0x5C8 JUMPI PUSH2 0x1EF JUMP JUMPDEST DUP1 PUSH4 0x79F3B872 EQ PUSH2 0x48A JUMPI DUP1 PUSH4 0x7DEDEF61 EQ PUSH2 0x4BA JUMPI DUP1 PUSH4 0x88D2F6CF EQ PUSH2 0x4EA JUMPI DUP1 PUSH4 0x8B5E51D2 EQ PUSH2 0x51C JUMPI PUSH2 0x1EF JUMP JUMPDEST DUP1 PUSH4 0x3D04979D GT PUSH2 0x187 JUMPI DUP1 PUSH4 0x591E992E GT PUSH2 0x156 JUMPI DUP1 PUSH4 0x591E992E EQ PUSH2 0x3D2 JUMPI DUP1 PUSH4 0x59FD58A6 EQ PUSH2 0x405 JUMPI DUP1 PUSH4 0x61499C1A EQ PUSH2 0x421 JUMPI DUP1 PUSH4 0x65752F08 EQ PUSH2 0x451 JUMPI PUSH2 0x1EF JUMP JUMPDEST DUP1 PUSH4 0x3D04979D EQ PUSH2 0x312 JUMPI DUP1 PUSH4 0x423411B1 EQ PUSH2 0x342 JUMPI DUP1 PUSH4 0x4E1273F4 EQ PUSH2 0x372 JUMPI DUP1 PUSH4 0x5847DF80 EQ PUSH2 0x3A2 JUMPI PUSH2 0x1EF JUMP JUMPDEST DUP1 PUSH4 0x2C50B6B7 GT PUSH2 0x1C3 JUMPI DUP1 PUSH4 0x2C50B6B7 EQ PUSH2 0x2A0 JUMPI DUP1 PUSH4 0x2DB05C6B EQ PUSH2 0x2BC JUMPI DUP1 PUSH4 0x2EB2C2D6 EQ PUSH2 0x2D8 JUMPI DUP1 PUSH4 0x33BF6156 EQ PUSH2 0x2F4 JUMPI PUSH2 0x1EF JUMP JUMPDEST DUP1 PUSH3 0xFDD58E EQ PUSH2 0x1F4 JUMPI DUP1 PUSH4 0x1FFC9A7 EQ PUSH2 0x224 JUMPI DUP1 PUSH4 0xE5585E1 EQ PUSH2 0x254 JUMPI DUP1 PUSH4 0xE89341C EQ PUSH2 0x270 JUMPI JUMPDEST PUSH1 0x0 DUP1 REVERT JUMPDEST PUSH2 0x20E PUSH1 0x4 DUP1 CALLDATASIZE SUB DUP2 ADD SWAP1 PUSH2 0x209 SWAP2 SWAP1 PUSH2 0x3597 JUMP JUMPDEST PUSH2 0x75E JUMP JUMPDEST PUSH1 0x40 MLOAD PUSH2 0x21B SWAP2 SWAP1 PUSH2 0x3F5D JUMP JUMPDEST PUSH1 0x40 MLOAD DUP1 SWAP2 SUB SWAP1 RETURN JUMPDEST PUSH2 0x23E PUSH1 0x4 DUP1 CALLDATASIZE SUB DUP2 ADD SWAP1 PUSH2 0x239 SWAP2 SWAP1 PUSH2 0x363F JUMP JUMPDEST PUSH2 0x827 JUMP JUMPDEST PUSH1 0x40 MLOAD PUSH2 0x24B SWAP2 SWAP1 PUSH2 0x3C7B JUMP JUMPDEST PUSH1 0x40 MLOAD DUP1 SWAP2 SUB SWAP1 RETURN JUMPDEST PUSH2 0x26E PUSH1 0x4 DUP1 CALLDATASIZE SUB DUP2 ADD SWAP1 PUSH2 0x269 SWAP2 SWAP1 PUSH2 0x36BA JUMP JUMPDEST PUSH2 0x909 JUMP JUMPDEST STOP JUMPDEST PUSH2 0x28A PUSH1 0x4 DUP1 CALLDATASIZE SUB DUP2 ADD SWAP1 PUSH2 0x285 SWAP2 SWAP1 PUSH2 0x37C5 JUMP JUMPDEST PUSH2 0x93D JUMP JUMPDEST PUSH1 0x40 MLOAD PUSH2 0x297 SWAP2 SWAP1 PUSH2 0x3CB1 JUMP JUMPDEST PUSH1 0x40 MLOAD DUP1 SWAP2 SUB SWAP1 RETURN JUMPDEST PUSH2 0x2BA PUSH1 0x4 DUP1 CALLDATASIZE SUB DUP2 ADD SWAP1 PUSH2 0x2B5 SWAP2 SWAP1 PUSH2 0x36BA JUMP JUMPDEST PUSH2 0x9D1 JUMP JUMPDEST STOP JUMPDEST PUSH2 0x2D6 PUSH1 0x4 DUP1 CALLDATASIZE SUB DUP2 ADD SWAP1 PUSH2 0x2D1 SWAP2 SWAP1 PUSH2 0x374A JUMP JUMPDEST PUSH2 0xA11 JUMP JUMPDEST STOP JUMPDEST PUSH2 0x2F2 PUSH1 0x4 DUP1 CALLDATASIZE SUB DUP2 ADD SWAP1 PUSH2 0x2ED SWAP2 SWAP1 PUSH2 0x33B9 JUMP JUMPDEST PUSH2 0xAA4 JUMP JUMPDEST STOP JUMPDEST PUSH2 0x2FC PUSH2 0xB45 JUMP JUMPDEST PUSH1 0x40 MLOAD PUSH2 0x309 SWAP2 SWAP1 PUSH2 0x3CB1 JUMP JUMPDEST PUSH1 0x40 MLOAD DUP1 SWAP2 SUB SWAP1 RETURN JUMPDEST PUSH2 0x32C PUSH1 0x4 DUP1 CALLDATASIZE SUB DUP2 ADD SWAP1 PUSH2 0x327 SWAP2 SWAP1 PUSH2 0x3817 JUMP JUMPDEST PUSH2 0xB7E JUMP JUMPDEST PUSH1 0x40 MLOAD PUSH2 0x339 SWAP2 SWAP1 PUSH2 0x3EA6 JUMP JUMPDEST PUSH1 0x40 MLOAD DUP1 SWAP2 SUB SWAP1 RETURN JUMPDEST PUSH2 0x35C PUSH1 0x4 DUP1 CALLDATASIZE SUB DUP2 ADD SWAP1 PUSH2 0x357 SWAP2 SWAP1 PUSH2 0x3354 JUMP JUMPDEST PUSH2 0xCF2 JUMP JUMPDEST PUSH1 0x40 MLOAD PUSH2 0x369 SWAP2 SWAP1 PUSH2 0x3EA6 JUMP JUMPDEST PUSH1 0x40 MLOAD DUP1 SWAP2 SUB SWAP1 RETURN JUMPDEST PUSH2 0x38C PUSH1 0x4 DUP1 CALLDATASIZE SUB DUP2 ADD SWAP1 PUSH2 0x387 SWAP2 SWAP1 PUSH2 0x35D3 JUMP JUMPDEST PUSH2 0xEFF JUMP JUMPDEST PUSH1 0x40 MLOAD PUSH2 0x399 SWAP2 SWAP1 PUSH2 0x3C22 JUMP JUMPDEST PUSH1 0x40 MLOAD DUP1 SWAP2 SUB SWAP1 RETURN JUMPDEST PUSH2 0x3BC PUSH1 0x4 DUP1 CALLDATASIZE SUB DUP2 ADD SWAP1 PUSH2 0x3B7 SWAP2 SWAP1 PUSH2 0x37EE JUMP JUMPDEST PUSH2 0x10B0 JUMP JUMPDEST PUSH1 0x40 MLOAD PUSH2 0x3C9 SWAP2 SWAP1 PUSH2 0x3CB1 JUMP JUMPDEST PUSH1 0x40 MLOAD DUP1 SWAP2 SUB SWAP1 RETURN JUMPDEST PUSH2 0x3EC PUSH1 0x4 DUP1 CALLDATASIZE SUB DUP2 ADD SWAP1 PUSH2 0x3E7 SWAP2 SWAP1 PUSH2 0x3354 JUMP JUMPDEST PUSH2 0x11A1 JUMP JUMPDEST PUSH1 0x40 MLOAD PUSH2 0x3FC SWAP5 SWAP4 SWAP3 SWAP2 SWAP1 PUSH2 0x3CD3 JUMP JUMPDEST PUSH1 0x40 MLOAD DUP1 SWAP2 SUB SWAP1 RETURN JUMPDEST PUSH2 0x41F PUSH1 0x4 DUP1 CALLDATASIZE SUB DUP2 ADD SWAP1 PUSH2 0x41A SWAP2 SWAP1 PUSH2 0x3543 JUMP JUMPDEST PUSH2 0x11C8 JUMP JUMPDEST STOP JUMPDEST PUSH2 0x43B PUSH1 0x4 DUP1 CALLDATASIZE SUB DUP2 ADD SWAP1 PUSH2 0x436 SWAP2 SWAP1 PUSH2 0x37EE JUMP JUMPDEST PUSH2 0x12A2 JUMP JUMPDEST PUSH1 0x40 MLOAD PUSH2 0x448 SWAP2 SWAP1 PUSH2 0x3CB1 JUMP JUMPDEST PUSH1 0x40 MLOAD DUP1 SWAP2 SUB SWAP1 RETURN JUMPDEST PUSH2 0x46B PUSH1 0x4 DUP1 CALLDATASIZE SUB DUP2 ADD SWAP1 PUSH2 0x466 SWAP2 SWAP1 PUSH2 0x3691 JUMP JUMPDEST PUSH2 0x1342 JUMP JUMPDEST PUSH1 0x40 MLOAD PUSH2 0x481 SWAP11 SWAP10 SWAP9 SWAP8 SWAP7 SWAP6 SWAP5 SWAP4 SWAP3 SWAP2 SWAP1 PUSH2 0x3EC1 JUMP JUMPDEST PUSH1 0x40 MLOAD DUP1 SWAP2 SUB SWAP1 RETURN JUMPDEST PUSH2 0x4A4 PUSH1 0x4 DUP1 CALLDATASIZE SUB DUP2 ADD SWAP1 PUSH2 0x49F SWAP2 SWAP1 PUSH2 0x37EE JUMP JUMPDEST PUSH2 0x19BB JUMP JUMPDEST PUSH1 0x40 MLOAD PUSH2 0x4B1 SWAP2 SWAP1 PUSH2 0x3CB1 JUMP JUMPDEST PUSH1 0x40 MLOAD DUP1 SWAP2 SUB SWAP1 RETURN JUMPDEST PUSH2 0x4D4 PUSH1 0x4 DUP1 CALLDATASIZE SUB DUP2 ADD SWAP1 PUSH2 0x4CF SWAP2 SWAP1 PUSH2 0x37EE JUMP JUMPDEST PUSH2 0x1A5B JUMP JUMPDEST PUSH1 0x40 MLOAD PUSH2 0x4E1 SWAP2 SWAP1 PUSH2 0x3CB1 JUMP JUMPDEST PUSH1 0x40 MLOAD DUP1 SWAP2 SUB SWAP1 RETURN JUMPDEST PUSH2 0x504 PUSH1 0x4 DUP1 CALLDATASIZE SUB DUP2 ADD SWAP1 PUSH2 0x4FF SWAP2 SWAP1 PUSH2 0x3691 JUMP JUMPDEST PUSH2 0x1B4C JUMP JUMPDEST PUSH1 0x40 MLOAD PUSH2 0x513 SWAP4 SWAP3 SWAP2 SWAP1 PUSH2 0x3FA1 JUMP JUMPDEST PUSH1 0x40 MLOAD DUP1 SWAP2 SUB SWAP1 RETURN JUMPDEST PUSH2 0x536 PUSH1 0x4 DUP1 CALLDATASIZE SUB DUP2 ADD SWAP1 PUSH2 0x531 SWAP2 SWAP1 PUSH2 0x3597 JUMP JUMPDEST PUSH2 0x1C0B JUMP JUMPDEST PUSH1 0x40 MLOAD PUSH2 0x543 SWAP2 SWAP1 PUSH2 0x3EA6 JUMP JUMPDEST PUSH1 0x40 MLOAD DUP1 SWAP2 SUB SWAP1 RETURN JUMPDEST PUSH2 0x566 PUSH1 0x4 DUP1 CALLDATASIZE SUB DUP2 ADD SWAP1 PUSH2 0x561 SWAP2 SWAP1 PUSH2 0x3597 JUMP JUMPDEST PUSH2 0x1C52 JUMP JUMPDEST PUSH1 0x40 MLOAD PUSH2 0x573 SWAP2 SWAP1 PUSH2 0x3F5D JUMP JUMPDEST PUSH1 0x40 MLOAD DUP1 SWAP2 SUB SWAP1 RETURN JUMPDEST PUSH2 0x596 PUSH1 0x4 DUP1 CALLDATASIZE SUB DUP2 ADD SWAP1 PUSH2 0x591 SWAP2 SWAP1 PUSH2 0x3691 JUMP JUMPDEST PUSH2 0x1C6E JUMP JUMPDEST PUSH1 0x40 MLOAD PUSH2 0x5A3 SWAP2 SWAP1 PUSH2 0x3EA6 JUMP JUMPDEST PUSH1 0x40 MLOAD DUP1 SWAP2 SUB SWAP1 RETURN JUMPDEST PUSH2 0x5C6 PUSH1 0x4 DUP1 CALLDATASIZE SUB DUP2 ADD SWAP1 PUSH2 0x5C1 SWAP2 SWAP1 PUSH2 0x3507 JUMP JUMPDEST PUSH2 0x1CDB JUMP JUMPDEST STOP JUMPDEST PUSH2 0x5E2 PUSH1 0x4 DUP1 CALLDATASIZE SUB DUP2 ADD SWAP1 PUSH2 0x5DD SWAP2 SWAP1 PUSH2 0x3691 JUMP JUMPDEST PUSH2 0x1CF1 JUMP JUMPDEST PUSH1 0x40 MLOAD PUSH2 0x5F2 SWAP5 SWAP4 SWAP3 SWAP2 SWAP1 PUSH2 0x3CD3 JUMP JUMPDEST PUSH1 0x40 MLOAD DUP1 SWAP2 SUB SWAP1 RETURN JUMPDEST PUSH2 0x615 PUSH1 0x4 DUP1 CALLDATASIZE SUB DUP2 ADD SWAP1 PUSH2 0x610 SWAP2 SWAP1 PUSH2 0x3354 JUMP JUMPDEST PUSH2 0x1E0A JUMP JUMPDEST PUSH1 0x40 MLOAD PUSH2 0x62B SWAP11 SWAP10 SWAP9 SWAP8 SWAP7 SWAP6 SWAP5 SWAP4 SWAP3 SWAP2 SWAP1 PUSH2 0x3EC1 JUMP JUMPDEST PUSH1 0x40 MLOAD DUP1 SWAP2 SUB SWAP1 RETURN JUMPDEST PUSH2 0x64E PUSH1 0x4 DUP1 CALLDATASIZE SUB DUP2 ADD SWAP1 PUSH2 0x649 SWAP2 SWAP1 PUSH2 0x3691 JUMP JUMPDEST PUSH2 0x1E4B JUMP JUMPDEST PUSH1 0x40 MLOAD PUSH2 0x65B SWAP2 SWAP1 PUSH2 0x3CB1 JUMP JUMPDEST PUSH1 0x40 MLOAD DUP1 SWAP2 SUB SWAP1 RETURN JUMPDEST PUSH2 0x67E PUSH1 0x4 DUP1 CALLDATASIZE SUB DUP2 ADD SWAP1 PUSH2 0x679 SWAP2 SWAP1 PUSH2 0x370E JUMP JUMPDEST PUSH2 0x1EEB JUMP JUMPDEST PUSH1 0x40 MLOAD PUSH2 0x68B SWAP2 SWAP1 PUSH2 0x3F5D JUMP JUMPDEST PUSH1 0x40 MLOAD DUP1 SWAP2 SUB SWAP1 RETURN JUMPDEST PUSH2 0x6AE PUSH1 0x4 DUP1 CALLDATASIZE SUB DUP2 ADD SWAP1 PUSH2 0x6A9 SWAP2 SWAP1 PUSH2 0x3691 JUMP JUMPDEST PUSH2 0x1F49 JUMP JUMPDEST PUSH1 0x40 MLOAD PUSH2 0x6BB SWAP2 SWAP1 PUSH2 0x3CB1 JUMP JUMPDEST PUSH1 0x40 MLOAD DUP1 SWAP2 SUB SWAP1 RETURN JUMPDEST PUSH2 0x6CC PUSH2 0x1FF6 JUMP JUMPDEST PUSH1 0x40 MLOAD PUSH2 0x6D9 SWAP2 SWAP1 PUSH2 0x3F5D JUMP JUMPDEST PUSH1 0x40 MLOAD DUP1 SWAP2 SUB SWAP1 RETURN JUMPDEST PUSH2 0x6FC PUSH1 0x4 DUP1 CALLDATASIZE SUB DUP2 ADD SWAP1 PUSH2 0x6F7 SWAP2 SWAP1 PUSH2 0x337D JUMP JUMPDEST PUSH2 0x2002 JUMP JUMPDEST PUSH1 0x40 MLOAD PUSH2 0x709 SWAP2 SWAP1 PUSH2 0x3C7B JUMP JUMPDEST PUSH1 0x40 MLOAD DUP1 SWAP2 SUB SWAP1 RETURN JUMPDEST PUSH2 0x72C PUSH1 0x4 DUP1 CALLDATASIZE SUB DUP2 ADD SWAP1 PUSH2 0x727 SWAP2 SWAP1 PUSH2 0x3354 JUMP JUMPDEST PUSH2 0x2096 JUMP JUMPDEST PUSH1 0x40 MLOAD PUSH2 0x739 SWAP2 SWAP1 PUSH2 0x3CB1 JUMP JUMPDEST PUSH1 0x40 MLOAD DUP1 SWAP2 SUB SWAP1 RETURN JUMPDEST PUSH2 0x75C PUSH1 0x4 DUP1 CALLDATASIZE SUB DUP2 ADD SWAP1 PUSH2 0x757 SWAP2 SWAP1 PUSH2 0x3478 JUMP JUMPDEST PUSH2 0x20B0 JUMP JUMPDEST STOP JUMPDEST PUSH1 0x0 DUP1 PUSH20 0xFFFFFFFFFFFFFFFFFFFFFFFFFFFFFFFFFFFFFFFF AND DUP4 PUSH20 0xFFFFFFFFFFFFFFFFFFFFFFFFFFFFFFFFFFFFFFFF AND EQ ISZERO PUSH2 0x7CF JUMPI PUSH1 0x40 MLOAD PUSH32 0x8C379A000000000000000000000000000000000000000000000000000000000 DUP2 MSTORE PUSH1 0x4 ADD PUSH2 0x7C6 SWAP1 PUSH2 0x3D66 JUMP JUMPDEST PUSH1 0x40 MLOAD DUP1 SWAP2 SUB SWAP1 REVERT JUMPDEST PUSH1 0x0 DUP1 DUP4 DUP2 MSTORE PUSH1 0x20 ADD SWAP1 DUP2 MSTORE PUSH1 0x20 ADD PUSH1 0x0 KECCAK256 PUSH1 0x0 DUP5 PUSH20 0xFFFFFFFFFFFFFFFFFFFFFFFFFFFFFFFFFFFFFFFF AND PUSH20 0xFFFFFFFFFFFFFFFFFFFFFFFFFFFFFFFFFFFFFFFF AND DUP2 MSTORE PUSH1 0x20 ADD SWAP1 DUP2 MSTORE PUSH1 0x20 ADD PUSH1 0x0 KECCAK256 SLOAD SWAP1 POP SWAP3 SWAP2 POP POP JUMP JUMPDEST PUSH1 0x0 PUSH32 0xD9B67A2600000000000000000000000000000000000000000000000000000000 PUSH28 0xFFFFFFFFFFFFFFFFFFFFFFFFFFFFFFFFFFFFFFFFFFFFFFFFFFFFFFFF NOT AND DUP3 PUSH28 0xFFFFFFFFFFFFFFFFFFFFFFFFFFFFFFFFFFFFFFFFFFFFFFFFFFFFFFFF NOT AND EQ DUP1 PUSH2 0x8F2 JUMPI POP PUSH32 0xE89341C00000000000000000000000000000000000000000000000000000000 PUSH28 0xFFFFFFFFFFFFFFFFFFFFFFFFFFFFFFFFFFFFFFFFFFFFFFFFFFFFFFFF NOT AND DUP3 PUSH28 0xFFFFFFFFFFFFFFFFFFFFFFFFFFFFFFFFFFFFFFFFFFFFFFFFFFFFFFFF NOT AND EQ JUMPDEST DUP1 PUSH2 0x902 JUMPI POP PUSH2 0x901 DUP3 PUSH2 0x2151 JUMP JUMPDEST JUMPDEST SWAP1 POP SWAP2 SWAP1 POP JUMP JUMPDEST DUP1 PUSH1 0xA PUSH1 0x0 DUP5 PUSH2 0xFFFF AND PUSH2 0xFFFF AND DUP2 MSTORE PUSH1 0x20 ADD SWAP1 DUP2 MSTORE PUSH1 0x20 ADD PUSH1 0x0 KECCAK256 SWAP1 DUP1 MLOAD SWAP1 PUSH1 0x20 ADD SWAP1 PUSH2 0x938 SWAP3 SWAP2 SWAP1 PUSH2 0x3022 JUMP JUMPDEST POP POP POP JUMP JUMPDEST PUSH1 0x60 PUSH1 0x2 DUP1 SLOAD PUSH2 0x94C SWAP1 PUSH2 0x4504 JUMP JUMPDEST DUP1 PUSH1 0x1F ADD PUSH1 0x20 DUP1 SWAP2 DIV MUL PUSH1 0x20 ADD PUSH1 0x40 MLOAD SWAP1 DUP2 ADD PUSH1 0x40 MSTORE DUP1 SWAP3 SWAP2 SWAP1 DUP2 DUP2 MSTORE PUSH1 0x20 ADD DUP3 DUP1 SLOAD PUSH2 0x978 SWAP1 PUSH2 0x4504 JUMP JUMPDEST DUP1 ISZERO PUSH2 0x9C5 JUMPI DUP1 PUSH1 0x1F LT PUSH2 0x99A JUMPI PUSH2 0x100 DUP1 DUP4 SLOAD DIV MUL DUP4 MSTORE SWAP2 PUSH1 0x20 ADD SWAP2 PUSH2 0x9C5 JUMP JUMPDEST DUP3 ADD SWAP2 SWAP1 PUSH1 0x0 MSTORE PUSH1 0x20 PUSH1 0x0 KECCAK256 SWAP1 JUMPDEST DUP2 SLOAD DUP2 MSTORE SWAP1 PUSH1 0x1 ADD SWAP1 PUSH1 0x20 ADD DUP1 DUP4 GT PUSH2 0x9A8 JUMPI DUP3 SWAP1 SUB PUSH1 0x1F AND DUP3 ADD SWAP2 JUMPDEST POP POP POP POP POP SWAP1 POP SWAP2 SWAP1 POP JUMP JUMPDEST DUP1 PUSH1 0x8 PUSH1 0x0 DUP5 PUSH2 0xFFFF AND PUSH2 0xFFFF AND DUP2 MSTORE PUSH1 0x20 ADD SWAP1 DUP2 MSTORE PUSH1 0x20 ADD PUSH1 0x0 KECCAK256 PUSH1 0x2 ADD SWAP1 DUP1 MLOAD SWAP1 PUSH1 0x20 ADD SWAP1 PUSH2 0xA03 SWAP3 SWAP2 SWAP1 PUSH2 0x3022 JUMP JUMPDEST POP PUSH2 0xA0D DUP2 PUSH2 0x21BB JUMP JUMPDEST POP POP JUMP JUMPDEST DUP2 PUSH1 0x8 PUSH1 0x0 DUP7 PUSH2 0xFFFF AND PUSH2 0xFFFF AND DUP2 MSTORE PUSH1 0x20 ADD SWAP1 DUP2 MSTORE PUSH1 0x20 ADD PUSH1 0x0 KECCAK256 PUSH1 0x1 ADD DUP2 SWAP1 SSTORE POP DUP3 PUSH1 0x8 PUSH1 0x0 DUP7 PUSH2 0xFFFF AND PUSH2 0xFFFF AND DUP2 MSTORE PUSH1 0x20 ADD SWAP1 DUP2 MSTORE PUSH1 0x20 ADD PUSH1 0x0 KECCAK256 PUSH1 0x0 ADD PUSH1 0x0 PUSH2 0x100 EXP DUP2 SLOAD DUP2 PUSH1 0xFF MUL NOT AND SWAP1 DUP4 PUSH1 0xFF AND MUL OR SWAP1 SSTORE POP DUP1 PUSH1 0x8 PUSH1 0x0 DUP7 PUSH2 0xFFFF AND PUSH2 0xFFFF AND DUP2 MSTORE PUSH1 0x20 ADD SWAP1 DUP2 MSTORE PUSH1 0x20 ADD PUSH1 0x0 KECCAK256 PUSH1 0x2 ADD SWAP1 DUP1 MLOAD SWAP1 PUSH1 0x20 ADD SWAP1 PUSH2 0xA9D SWAP3 SWAP2 SWAP1 PUSH2 0x3022 JUMP JUMPDEST POP POP POP POP POP JUMP JUMPDEST PUSH2 0xAAC PUSH2 0x21D5 JUMP JUMPDEST PUSH20 0xFFFFFFFFFFFFFFFFFFFFFFFFFFFFFFFFFFFFFFFF AND DUP6 PUSH20 0xFFFFFFFFFFFFFFFFFFFFFFFFFFFFFFFFFFFFFFFF AND EQ DUP1 PUSH2 0xAF2 JUMPI POP PUSH2 0xAF1 DUP6 PUSH2 0xAEC PUSH2 0x21D5 JUMP JUMPDEST PUSH2 0x2002 JUMP JUMPDEST JUMPDEST PUSH2 0xB31 JUMPI PUSH1 0x40 MLOAD PUSH32 0x8C379A000000000000000000000000000000000000000000000000000000000 DUP2 MSTORE PUSH1 0x4 ADD PUSH2 0xB28 SWAP1 PUSH2 0x3D86 JUMP JUMPDEST PUSH1 0x40 MLOAD DUP1 SWAP2 SUB SWAP1 REVERT JUMPDEST PUSH2 0xB3E DUP6 DUP6 DUP6 DUP6 DUP6 PUSH2 0x21DD JUMP JUMPDEST POP POP POP POP POP JUMP JUMPDEST PUSH1 0x40 MLOAD DUP1 PUSH1 0x40 ADD PUSH1 0x40 MSTORE DUP1 PUSH1 0xA DUP2 MSTORE PUSH1 0x20 ADD PUSH32 0x3078373830653964363300000000000000000000000000000000000000000000 DUP2 MSTORE POP DUP2 JUMP JUMPDEST PUSH1 0x0 PUSH2 0xB8A PUSH1 0x9 PUSH2 0x254B JUMP JUMPDEST PUSH1 0x0 PUSH2 0xB96 PUSH1 0x9 PUSH2 0x2561 JUMP JUMPDEST SWAP1 POP PUSH1 0x5 PUSH1 0x0 CALLER PUSH20 0xFFFFFFFFFFFFFFFFFFFFFFFFFFFFFFFFFFFFFFFF AND PUSH20 0xFFFFFFFFFFFFFFFFFFFFFFFFFFFFFFFFFFFFFFFF AND DUP2 MSTORE PUSH1 0x20 ADD SWAP1 DUP2 MSTORE PUSH1 0x20 ADD PUSH1 0x0 KECCAK256 DUP2 SWAP1 DUP1 PUSH1 0x1 DUP2 SLOAD ADD DUP1 DUP3 SSTORE DUP1 SWAP2 POP POP PUSH1 0x1 SWAP1 SUB SWAP1 PUSH1 0x0 MSTORE PUSH1 0x20 PUSH1 0x0 KECCAK256 SWAP1 PUSH1 0x10 SWAP2 DUP3 DUP3 DIV ADD SWAP2 SWAP1 MOD PUSH1 0x2 MUL SWAP1 SWAP2 SWAP1 SWAP2 SWAP1 SWAP2 PUSH2 0x100 EXP DUP2 SLOAD DUP2 PUSH2 0xFFFF MUL NOT AND SWAP1 DUP4 PUSH2 0xFFFF AND MUL OR SWAP1 SSTORE POP PUSH2 0xC50 CALLER DUP3 PUSH2 0xFFFF AND PUSH1 0x1 PUSH1 0x0 PUSH1 0x40 MLOAD PUSH1 0x20 ADD PUSH2 0xC3C SWAP2 SWAP1 PUSH2 0x3C96 JUMP JUMPDEST PUSH1 0x40 MLOAD PUSH1 0x20 DUP2 DUP4 SUB SUB DUP2 MSTORE SWAP1 PUSH1 0x40 MSTORE PUSH2 0x256F JUMP JUMPDEST PUSH2 0xC59 DUP4 PUSH2 0x21BB JUMP JUMPDEST PUSH2 0xC63 DUP2 DUP5 PUSH2 0x909 JUMP JUMPDEST PUSH1 0x40 MLOAD DUP1 PUSH1 0x60 ADD PUSH1 0x40 MSTORE DUP1 DUP6 PUSH1 0xFF AND DUP2 MSTORE PUSH1 0x20 ADD PUSH1 0x0 DUP2 MSTORE PUSH1 0x20 ADD DUP5 DUP2 MSTORE POP PUSH1 0x8 PUSH1 0x0 DUP4 PUSH2 0xFFFF AND PUSH2 0xFFFF AND DUP2 MSTORE PUSH1 0x20 ADD SWAP1 DUP2 MSTORE PUSH1 0x20 ADD PUSH1 0x0 KECCAK256 PUSH1 0x0 DUP3 ADD MLOAD DUP2 PUSH1 0x0 ADD PUSH1 0x0 PUSH2 0x100 EXP DUP2 SLOAD DUP2 PUSH1 0xFF MUL NOT AND SWAP1 DUP4 PUSH1 0xFF AND MUL OR SWAP1 SSTORE POP PUSH1 0x20 DUP3 ADD MLOAD DUP2 PUSH1 0x1 ADD SSTORE PUSH1 0x40 DUP3 ADD MLOAD DUP2 PUSH1 0x2 ADD SWAP1 DUP1 MLOAD SWAP1 PUSH1 0x20 ADD SWAP1 PUSH2 0xCE4 SWAP3 SWAP2 SWAP1 PUSH2 0x3022 JUMP JUMPDEST POP SWAP1 POP POP DUP1 SWAP2 POP POP SWAP3 SWAP2 POP POP JUMP JUMPDEST PUSH1 0x0 DUP1 PUSH1 0x5 PUSH1 0x0 DUP5 PUSH20 0xFFFFFFFFFFFFFFFFFFFFFFFFFFFFFFFFFFFFFFFF AND PUSH20 0xFFFFFFFFFFFFFFFFFFFFFFFFFFFFFFFFFFFFFFFF AND DUP2 MSTORE PUSH1 0x20 ADD SWAP1 DUP2 MSTORE PUSH1 0x20 ADD PUSH1 0x0 KECCAK256 DUP1 SLOAD DUP1 PUSH1 0x20 MUL PUSH1 0x20 ADD PUSH1 0x40 MLOAD SWAP1 DUP2 ADD PUSH1 0x40 MSTORE DUP1 SWAP3 SWAP2 SWAP1 DUP2 DUP2 MSTORE PUSH1 0x20 ADD DUP3 DUP1 SLOAD DUP1 ISZERO PUSH2 0xDA6 JUMPI PUSH1 0x20 MUL DUP3 ADD SWAP2 SWAP1 PUSH1 0x0 MSTORE PUSH1 0x20 PUSH1 0x0 KECCAK256 SWAP1 PUSH1 0x0 SWAP1 JUMPDEST DUP3 DUP3 SWAP1 SLOAD SWAP1 PUSH2 0x100 EXP SWAP1 DIV PUSH2 0xFFFF AND PUSH2 0xFFFF AND DUP2 MSTORE PUSH1 0x20 ADD SWAP1 PUSH1 0x2 ADD SWAP1 PUSH1 0x20 DUP3 PUSH1 0x1 ADD DIV SWAP3 DUP4 ADD SWAP3 PUSH1 0x1 SUB DUP3 MUL SWAP2 POP DUP1 DUP5 GT PUSH2 0xD6D JUMPI SWAP1 POP JUMPDEST POP POP POP POP POP SWAP1 POP PUSH1 0x0 DUP2 MLOAD GT PUSH2 0xDF1 JUMPI PUSH1 0x40 MLOAD PUSH32 0x8C379A000000000000000000000000000000000000000000000000000000000 DUP2 MSTORE PUSH1 0x4 ADD PUSH2 0xDE8 SWAP1 PUSH2 0x3E66 JUMP JUMPDEST PUSH1 0x40 MLOAD DUP1 SWAP2 SUB SWAP1 REVERT JUMPDEST DUP1 PUSH1 0x0 DUP2 MLOAD DUP2 LT PUSH2 0xE2B JUMPI PUSH32 0x4E487B7100000000000000000000000000000000000000000000000000000000 PUSH1 0x0 MSTORE PUSH1 0x32 PUSH1 0x4 MSTORE PUSH1 0x24 PUSH1 0x0 REVERT JUMPDEST PUSH1 0x20 MUL PUSH1 0x20 ADD ADD MLOAD SWAP2 POP PUSH1 0x0 PUSH1 0x1 SWAP1 POP JUMPDEST DUP2 MLOAD DUP2 PUSH2 0xFFFF AND LT ISZERO PUSH2 0xEF8 JUMPI DUP3 PUSH2 0xFFFF AND DUP3 DUP3 PUSH2 0xFFFF AND DUP2 MLOAD DUP2 LT PUSH2 0xE8B JUMPI PUSH32 0x4E487B7100000000000000000000000000000000000000000000000000000000 PUSH1 0x0 MSTORE PUSH1 0x32 PUSH1 0x4 MSTORE PUSH1 0x24 PUSH1 0x0 REVERT JUMPDEST PUSH1 0x20 MUL PUSH1 0x20 ADD ADD MLOAD PUSH2 0xFFFF AND GT ISZERO PUSH2 0xEE5 JUMPI DUP2 DUP2 PUSH2 0xFFFF AND DUP2 MLOAD DUP2 LT PUSH2 0xEDA JUMPI PUSH32 0x4E487B7100000000000000000000000000000000000000000000000000000000 PUSH1 0x0 MSTORE PUSH1 0x32 PUSH1 0x4 MSTORE PUSH1 0x24 PUSH1 0x0 REVERT JUMPDEST PUSH1 0x20 MUL PUSH1 0x20 ADD ADD MLOAD SWAP3 POP JUMPDEST DUP1 DUP1 PUSH2 0xEF0 SWAP1 PUSH2 0x4567 JUMP JUMPDEST SWAP2 POP POP PUSH2 0xE3C JUMP JUMPDEST POP POP SWAP2 SWAP1 POP JUMP JUMPDEST PUSH1 0x60 DUP2 MLOAD DUP4 MLOAD EQ PUSH2 0xF45 JUMPI PUSH1 0x40 MLOAD PUSH32 0x8C379A000000000000000000000000000000000000000000000000000000000 DUP2 MSTORE PUSH1 0x4 ADD PUSH2 0xF3C SWAP1 PUSH2 0x3E06 JUMP JUMPDEST PUSH1 0x40 MLOAD DUP1 SWAP2 SUB SWAP1 REVERT JUMPDEST PUSH1 0x0 DUP4 MLOAD PUSH8 0xFFFFFFFFFFFFFFFF DUP2 GT ISZERO PUSH2 0xF88 JUMPI PUSH32 0x4E487B7100000000000000000000000000000000000000000000000000000000 PUSH1 0x0 MSTORE PUSH1 0x41 PUSH1 0x4 MSTORE PUSH1 0x24 PUSH1 0x0 REVERT JUMPDEST PUSH1 0x40 MLOAD SWAP1 DUP1 DUP3 MSTORE DUP1 PUSH1 0x20 MUL PUSH1 0x20 ADD DUP3 ADD PUSH1 0x40 MSTORE DUP1 ISZERO PUSH2 0xFB6 JUMPI DUP2 PUSH1 0x20 ADD PUSH1 0x20 DUP3 MUL DUP1 CALLDATASIZE DUP4 CALLDATACOPY DUP1 DUP3 ADD SWAP2 POP POP SWAP1 POP JUMPDEST POP SWAP1 POP PUSH1 0x0 JUMPDEST DUP5 MLOAD DUP2 LT ISZERO PUSH2 0x10A5 JUMPI PUSH2 0x104F DUP6 DUP3 DUP2 MLOAD DUP2 LT PUSH2 0x1001 JUMPI PUSH32 0x4E487B7100000000000000000000000000000000000000000000000000000000 PUSH1 0x0 MSTORE PUSH1 0x32 PUSH1 0x4 MSTORE PUSH1 0x24 PUSH1 0x0 REVERT JUMPDEST PUSH1 0x20 MUL PUSH1 0x20 ADD ADD MLOAD DUP6 DUP4 DUP2 MLOAD DUP2 LT PUSH2 0x1042 JUMPI PUSH32 0x4E487B7100000000000000000000000000000000000000000000000000000000 PUSH1 0x0 MSTORE PUSH1 0x32 PUSH1 0x4 MSTORE PUSH1 0x24 PUSH1 0x0 REVERT JUMPDEST PUSH1 0x20 MUL PUSH1 0x20 ADD ADD MLOAD PUSH2 0x75E JUMP JUMPDEST DUP3 DUP3 DUP2 MLOAD DUP2 LT PUSH2 0x1088 JUMPI PUSH32 0x4E487B7100000000000000000000000000000000000000000000000000000000 PUSH1 0x0 MSTORE PUSH1 0x32 PUSH1 0x4 MSTORE PUSH1 0x24 PUSH1 0x0 REVERT JUMPDEST PUSH1 0x20 MUL PUSH1 0x20 ADD ADD DUP2 DUP2 MSTORE POP POP DUP1 PUSH2 0x109E SWAP1 PUSH2 0x4592 JUMP JUMPDEST SWAP1 POP PUSH2 0xFBC JUMP JUMPDEST POP DUP1 SWAP2 POP POP SWAP3 SWAP2 POP POP JUMP JUMPDEST PUSH1 0x60 PUSH1 0x4 DUP3 PUSH1 0xFF AND LT PUSH2 0x10F8 JUMPI PUSH1 0x40 MLOAD PUSH32 0x8C379A000000000000000000000000000000000000000000000000000000000 DUP2 MSTORE PUSH1 0x4 ADD PUSH2 0x10EF SWAP1 PUSH2 0x3D46 JUMP JUMPDEST PUSH1 0x40 MLOAD DUP1 SWAP2 SUB SWAP1 REVERT JUMPDEST PUSH1 0x6 PUSH1 0x0 DUP4 PUSH1 0xFF AND PUSH1 0xFF AND DUP2 MSTORE PUSH1 0x20 ADD SWAP1 DUP2 MSTORE PUSH1 0x20 ADD PUSH1 0x0 KECCAK256 DUP1 SLOAD PUSH2 0x111C SWAP1 PUSH2 0x4504 JUMP JUMPDEST DUP1 PUSH1 0x1F ADD PUSH1 0x20 DUP1 SWAP2 DIV MUL PUSH1 0x20 ADD PUSH1 0x40 MLOAD SWAP1 DUP2 ADD PUSH1 0x40 MSTORE DUP1 SWAP3 SWAP2 SWAP1 DUP2 DUP2 MSTORE PUSH1 0x20 ADD DUP3 DUP1 SLOAD PUSH2 0x1148 SWAP1 PUSH2 0x4504 JUMP JUMPDEST DUP1 ISZERO PUSH2 0x1195 JUMPI DUP1 PUSH1 0x1F LT PUSH2 0x116A JUMPI PUSH2 0x100 DUP1 DUP4 SLOAD DIV MUL DUP4 MSTORE SWAP2 PUSH1 0x20 ADD SWAP2 PUSH2 0x1195 JUMP JUMPDEST DUP3 ADD SWAP2 SWAP1 PUSH1 0x0 MSTORE PUSH1 0x20 PUSH1 0x0 KECCAK256 SWAP1 JUMPDEST DUP2 SLOAD DUP2 MSTORE SWAP1 PUSH1 0x1 ADD SWAP1 PUSH1 0x20 ADD DUP1 DUP4 GT PUSH2 0x1178 JUMPI DUP3 SWAP1 SUB PUSH1 0x1F AND DUP3 ADD SWAP2 JUMPDEST POP POP POP POP POP SWAP1 POP SWAP2 SWAP1 POP JUMP JUMPDEST PUSH1 0x60 PUSH1 0x0 DUP1 PUSH1 0x60 PUSH2 0x11B9 PUSH2 0x11B4 DUP7 PUSH2 0xCF2 JUMP JUMPDEST PUSH2 0x1CF1 JUMP JUMPDEST SWAP4 POP SWAP4 POP SWAP4 POP SWAP4 POP SWAP2 SWAP4 POP SWAP2 SWAP4 JUMP JUMPDEST PUSH1 0x0 PUSH2 0x11D3 DUP4 PUSH2 0xCF2 JUMP JUMPDEST SWAP1 POP PUSH2 0x11DF DUP2 DUP4 PUSH2 0x909 JUMP JUMPDEST PUSH1 0x0 PUSH1 0x8 PUSH1 0x0 DUP4 PUSH2 0xFFFF AND PUSH2 0xFFFF AND DUP2 MSTORE PUSH1 0x20 ADD SWAP1 DUP2 MSTORE PUSH1 0x20 ADD PUSH1 0x0 KECCAK256 PUSH1 0x1 ADD SLOAD SWAP1 POP PUSH1 0x0 PUSH2 0x120D DUP4 PUSH2 0x1C6E JUMP JUMPDEST SWAP1 POP PUSH1 0x64 PUSH1 0x1 DUP3 PUSH2 0x121E SWAP2 SWAP1 PUSH2 0x43B9 JUMP JUMPDEST PUSH2 0xFFFF AND PUSH1 0x2 PUSH2 0x122E SWAP2 SWAP1 PUSH2 0x4241 JUMP JUMPDEST PUSH2 0x1238 SWAP2 SWAP1 PUSH2 0x435F JUMP JUMPDEST DUP3 PUSH2 0x1243 SWAP2 SWAP1 PUSH2 0x4167 JUMP JUMPDEST SWAP2 POP DUP2 PUSH1 0x8 PUSH1 0x0 DUP6 PUSH2 0xFFFF AND PUSH2 0xFFFF AND DUP2 MSTORE PUSH1 0x20 ADD SWAP1 DUP2 MSTORE PUSH1 0x20 ADD PUSH1 0x0 KECCAK256 PUSH1 0x1 ADD DUP2 SWAP1 SSTORE POP DUP4 PUSH1 0x8 PUSH1 0x0 DUP6 PUSH2 0xFFFF AND PUSH2 0xFFFF AND DUP2 MSTORE PUSH1 0x20 ADD SWAP1 DUP2 MSTORE PUSH1 0x20 ADD PUSH1 0x0 KECCAK256 PUSH1 0x2 ADD SWAP1 DUP1 MLOAD SWAP1 PUSH1 0x20 ADD SWAP1 PUSH2 0x129A SWAP3 SWAP2 SWAP1 PUSH2 0x3022 JUMP JUMPDEST POP POP POP POP POP POP JUMP JUMPDEST PUSH1 0x6 PUSH1 0x20 MSTORE DUP1 PUSH1 0x0 MSTORE PUSH1 0x40 PUSH1 0x0 KECCAK256 PUSH1 0x0 SWAP2 POP SWAP1 POP DUP1 SLOAD PUSH2 0x12C1 SWAP1 PUSH2 0x4504 JUMP JUMPDEST DUP1 PUSH1 0x1F ADD PUSH1 0x20 DUP1 SWAP2 DIV MUL PUSH1 0x20 ADD PUSH1 0x40 MLOAD SWAP1 DUP2 ADD PUSH1 0x40 MSTORE DUP1 SWAP3 SWAP2 SWAP1 DUP2 DUP2 MSTORE PUSH1 0x20 ADD DUP3 DUP1 SLOAD PUSH2 0x12ED SWAP1 PUSH2 0x4504 JUMP JUMPDEST DUP1 ISZERO PUSH2 0x133A JUMPI DUP1 PUSH1 0x1F LT PUSH2 0x130F JUMPI PUSH2 0x100 DUP1 DUP4 SLOAD DIV MUL DUP4 MSTORE SWAP2 PUSH1 0x20 ADD SWAP2 PUSH2 0x133A JUMP JUMPDEST DUP3 ADD SWAP2 SWAP1 PUSH1 0x0 MSTORE PUSH1 0x20 PUSH1 0x0 KECCAK256 SWAP1 JUMPDEST DUP2 SLOAD DUP2 MSTORE SWAP1 PUSH1 0x1 ADD SWAP1 PUSH1 0x20 ADD DUP1 DUP4 GT PUSH2 0x131D JUMPI DUP3 SWAP1 SUB PUSH1 0x1F AND DUP3 ADD SWAP2 JUMPDEST POP POP POP POP POP DUP2 JUMP JUMPDEST PUSH1 0x0 DUP1 PUSH1 0x0 DUP1 PUSH1 0x0 DUP1 PUSH1 0x0 DUP1 PUSH1 0x0 DUP1 PUSH2 0x135A DUP12 PUSH2 0x1C6E JUMP JUMPDEST SWAP10 POP PUSH1 0x8 PUSH1 0x0 DUP13 PUSH2 0xFFFF AND PUSH2 0xFFFF AND DUP2 MSTORE PUSH1 0x20 ADD SWAP1 DUP2 MSTORE PUSH1 0x20 ADD PUSH1 0x0 KECCAK256 PUSH1 0x1 ADD SLOAD SWAP9 POP PUSH1 0x0 SWAP8 POP PUSH1 0x0 SWAP7 POP PUSH1 0x0 SWAP6 POP PUSH1 0x0 SWAP5 POP PUSH1 0x0 SWAP4 POP PUSH1 0x0 SWAP3 POP PUSH1 0x0 SWAP2 POP PUSH1 0x0 SWAP1 POP PUSH1 0x0 PUSH1 0x8 PUSH1 0x0 DUP14 PUSH2 0xFFFF AND PUSH2 0xFFFF AND DUP2 MSTORE PUSH1 0x20 ADD SWAP1 DUP2 MSTORE PUSH1 0x20 ADD PUSH1 0x0 KECCAK256 PUSH1 0x0 ADD PUSH1 0x0 SWAP1 SLOAD SWAP1 PUSH2 0x100 EXP SWAP1 DIV PUSH1 0xFF AND PUSH1 0xFF AND EQ ISZERO PUSH2 0x1414 JUMPI PUSH1 0x3 DUP9 PUSH2 0x13E1 SWAP2 SWAP1 PUSH2 0x412F JUMP JUMPDEST SWAP8 POP PUSH1 0x2 DUP6 PUSH2 0x13F0 SWAP2 SWAP1 PUSH2 0x412F JUMP JUMPDEST SWAP5 POP PUSH1 0x1 DUP7 PUSH2 0x13FF SWAP2 SWAP1 PUSH2 0x412F JUMP JUMPDEST SWAP6 POP DUP4 DUP1 PUSH2 0x140C SWAP1 PUSH2 0x4567 JUMP JUMPDEST SWAP5 POP POP PUSH2 0x1578 JUMP JUMPDEST PUSH1 0x1 PUSH1 0x8 PUSH1 0x0 DUP14 PUSH2 0xFFFF AND PUSH2 0xFFFF AND DUP2 MSTORE PUSH1 0x20 ADD SWAP1 DUP2 MSTORE PUSH1 0x20 ADD PUSH1 0x0 KECCAK256 PUSH1 0x0 ADD PUSH1 0x0 SWAP1 SLOAD SWAP1 PUSH2 0x100 EXP SWAP1 DIV PUSH1 0xFF AND PUSH1 0xFF AND EQ ISZERO PUSH2 0x148B JUMPI PUSH1 0x3 DUP8 PUSH2 0x1458 SWAP2 SWAP1 PUSH2 0x412F JUMP JUMPDEST SWAP7 POP PUSH1 0x2 DUP7 PUSH2 0x1467 SWAP2 SWAP1 PUSH2 0x412F JUMP JUMPDEST SWAP6 POP PUSH1 0x1 DUP6 PUSH2 0x1476 SWAP2 SWAP1 PUSH2 0x412F JUMP JUMPDEST SWAP5 POP DUP3 DUP1 PUSH2 0x1483 SWAP1 PUSH2 0x4567 JUMP JUMPDEST SWAP4 POP POP PUSH2 0x1577 JUMP JUMPDEST PUSH1 0x2 PUSH1 0x8 PUSH1 0x0 DUP14 PUSH2 0xFFFF AND PUSH2 0xFFFF AND DUP2 MSTORE PUSH1 0x20 ADD SWAP1 DUP2 MSTORE PUSH1 0x20 ADD PUSH1 0x0 KECCAK256 PUSH1 0x0 ADD PUSH1 0x0 SWAP1 SLOAD SWAP1 PUSH2 0x100 EXP SWAP1 DIV PUSH1 0xFF AND PUSH1 0xFF AND EQ ISZERO PUSH2 0x1502 JUMPI PUSH1 0x3 DUP7 PUSH2 0x14CF SWAP2 SWAP1 PUSH2 0x412F JUMP JUMPDEST SWAP6 POP PUSH1 0x2 DUP8 PUSH2 0x14DE SWAP2 SWAP1 PUSH2 0x412F JUMP JUMPDEST SWAP7 POP PUSH1 0x1 DUP9 PUSH2 0x14ED SWAP2 SWAP1 PUSH2 0x412F JUMP JUMPDEST SWAP8 POP DUP2 DUP1 PUSH2 0x14FA SWAP1 PUSH2 0x4567 JUMP JUMPDEST SWAP3 POP POP PUSH2 0x1576 JUMP JUMPDEST PUSH1 0x3 PUSH1 0x8 PUSH1 0x0 DUP14 PUSH2 0xFFFF AND PUSH2 0xFFFF AND DUP2 MSTORE PUSH1 0x20 ADD SWAP1 DUP2 MSTORE PUSH1 0x20 ADD PUSH1 0x0 KECCAK256 PUSH1 0x0 ADD PUSH1 0x0 SWAP1 SLOAD SWAP1 PUSH2 0x100 EXP SWAP1 DIV PUSH1 0xFF AND PUSH1 0xFF AND EQ ISZERO PUSH2 0x1575 JUMPI PUSH1 0x3 DUP6 PUSH2 0x1546 SWAP2 SWAP1 PUSH2 0x412F JUMP JUMPDEST SWAP5 POP PUSH1 0x2 DUP9 PUSH2 0x1555 SWAP2 SWAP1 PUSH2 0x412F JUMP JUMPDEST SWAP8 POP PUSH1 0x1 DUP8 PUSH2 0x1564 SWAP2 SWAP1 PUSH2 0x412F JUMP JUMPDEST SWAP7 POP DUP1 DUP1 PUSH2 0x1571 SWAP1 PUSH2 0x4567 JUMP JUMPDEST SWAP2 POP POP JUMPDEST JUMPDEST JUMPDEST JUMPDEST PUSH1 0x0 PUSH1 0x1 SWAP1 POP JUMPDEST DUP11 PUSH2 0xFFFF AND DUP2 PUSH2 0xFFFF AND LT ISZERO PUSH2 0x19AD JUMPI PUSH1 0x0 PUSH1 0x8 PUSH1 0x0 DUP15 PUSH2 0xFFFF AND PUSH2 0xFFFF AND DUP2 MSTORE PUSH1 0x20 ADD SWAP1 DUP2 MSTORE PUSH1 0x20 ADD PUSH1 0x0 KECCAK256 PUSH1 0x0 ADD PUSH1 0x0 SWAP1 SLOAD SWAP1 PUSH2 0x100 EXP SWAP1 DIV PUSH1 0xFF AND PUSH1 0xFF AND EQ ISZERO PUSH2 0x1656 JUMPI PUSH2 0x15EC PUSH1 0x1 PUSH1 0x3 DUP15 DUP5 PUSH2 0x15D9 SWAP2 SWAP1 PUSH2 0x412F JUMP JUMPDEST PUSH2 0x15E3 SWAP2 SWAP1 PUSH2 0x45DB JUMP JUMPDEST PUSH2 0xFFFF AND PUSH2 0x2720 JUMP JUMPDEST DUP10 PUSH2 0x15F7 SWAP2 SWAP1 PUSH2 0x412F JUMP JUMPDEST SWAP9 POP PUSH2 0x161F PUSH1 0x1 PUSH1 0x4 DUP15 DUP5 PUSH2 0x160C SWAP2 SWAP1 PUSH2 0x412F JUMP JUMPDEST PUSH2 0x1616 SWAP2 SWAP1 PUSH2 0x45DB JUMP JUMPDEST PUSH2 0xFFFF AND PUSH2 0x2739 JUMP JUMPDEST DUP7 PUSH2 0x162A SWAP2 SWAP1 PUSH2 0x412F JUMP JUMPDEST SWAP6 POP PUSH1 0x2 DUP2 DUP14 PUSH2 0x163A SWAP2 SWAP1 PUSH2 0x412F JUMP JUMPDEST PUSH2 0x1644 SWAP2 SWAP1 PUSH2 0x45DB JUMP JUMPDEST DUP8 PUSH2 0x164F SWAP2 SWAP1 PUSH2 0x412F JUMP JUMPDEST SWAP7 POP PUSH2 0x18AA JUMP JUMPDEST PUSH1 0x1 PUSH1 0x8 PUSH1 0x0 DUP15 PUSH2 0xFFFF AND PUSH2 0xFFFF AND DUP2 MSTORE PUSH1 0x20 ADD SWAP1 DUP2 MSTORE PUSH1 0x20 ADD PUSH1 0x0 KECCAK256 PUSH1 0x0 ADD PUSH1 0x0 SWAP1 SLOAD SWAP1 PUSH2 0x100 EXP SWAP1 DIV PUSH1 0xFF AND PUSH1 0xFF AND EQ ISZERO PUSH2 0x171D JUMPI PUSH2 0x16B3 PUSH1 0x1 PUSH1 0x3 DUP15 DUP5 PUSH2 0x16A0 SWAP2 SWAP1 PUSH2 0x412F JUMP JUMPDEST PUSH2 0x16AA SWAP2 SWAP1 PUSH2 0x45DB JUMP JUMPDEST PUSH2 0xFFFF AND PUSH2 0x2720 JUMP JUMPDEST DUP9 PUSH2 0x16BE SWAP2 SWAP1 PUSH2 0x412F JUMP JUMPDEST SWAP8 POP PUSH2 0x16E6 PUSH1 0x1 PUSH1 0x4 DUP15 DUP5 PUSH2 0x16D3 SWAP2 SWAP1 PUSH2 0x412F JUMP JUMPDEST PUSH2 0x16DD SWAP2 SWAP1 PUSH2 0x45DB JUMP JUMPDEST PUSH2 0xFFFF AND PUSH2 0x2739 JUMP JUMPDEST DUP8 PUSH2 0x16F1 SWAP2 SWAP1 PUSH2 0x412F JUMP JUMPDEST SWAP7 POP PUSH1 0x2 DUP2 DUP14 PUSH2 0x1701 SWAP2 SWAP1 PUSH2 0x412F JUMP JUMPDEST PUSH2 0x170B SWAP2 SWAP1 PUSH2 0x45DB JUMP JUMPDEST DUP7 PUSH2 0x1716 SWAP2 SWAP1 PUSH2 0x412F JUMP JUMPDEST SWAP6 POP PUSH2 0x18A9 JUMP JUMPDEST PUSH1 0x2 PUSH1 0x8 PUSH1 0x0 DUP15 PUSH2 0xFFFF AND PUSH2 0xFFFF AND DUP2 MSTORE PUSH1 0x20 ADD SWAP1 DUP2 MSTORE PUSH1 0x20 ADD PUSH1 0x0 KECCAK256 PUSH1 0x0 ADD PUSH1 0x0 SWAP1 SLOAD SWAP1 PUSH2 0x100 EXP SWAP1 DIV PUSH1 0xFF AND PUSH1 0xFF AND EQ ISZERO PUSH2 0x17E4 JUMPI PUSH2 0x177A PUSH1 0x1 PUSH1 0x3 DUP15 DUP5 PUSH2 0x1767 SWAP2 SWAP1 PUSH2 0x412F JUMP JUMPDEST PUSH2 0x1771 SWAP2 SWAP1 PUSH2 0x45DB JUMP JUMPDEST PUSH2 0xFFFF AND PUSH2 0x2720 JUMP JUMPDEST DUP8 PUSH2 0x1785 SWAP2 SWAP1 PUSH2 0x412F JUMP JUMPDEST SWAP7 POP PUSH2 0x17AD PUSH1 0x1 PUSH1 0x4 DUP15 DUP5 PUSH2 0x179A SWAP2 SWAP1 PUSH2 0x412F JUMP JUMPDEST PUSH2 0x17A4 SWAP2 SWAP1 PUSH2 0x45DB JUMP JUMPDEST PUSH2 0xFFFF AND PUSH2 0x2739 JUMP JUMPDEST DUP9 PUSH2 0x17B8 SWAP2 SWAP1 PUSH2 0x412F JUMP JUMPDEST SWAP8 POP PUSH1 0x2 DUP2 DUP14 PUSH2 0x17C8 SWAP2 SWAP1 PUSH2 0x412F JUMP JUMPDEST PUSH2 0x17D2 SWAP2 SWAP1 PUSH2 0x45DB JUMP JUMPDEST DUP10 PUSH2 0x17DD SWAP2 SWAP1 PUSH2 0x412F JUMP JUMPDEST SWAP9 POP PUSH2 0x18A8 JUMP JUMPDEST PUSH1 0x3 PUSH1 0x8 PUSH1 0x0 DUP15 PUSH2 0xFFFF AND PUSH2 0xFFFF AND DUP2 MSTORE PUSH1 0x20 ADD SWAP1 DUP2 MSTORE PUSH1 0x20 ADD PUSH1 0x0 KECCAK256 PUSH1 0x0 ADD PUSH1 0x0 SWAP1 SLOAD SWAP1 PUSH2 0x100 EXP SWAP1 DIV PUSH1 0xFF AND PUSH1 0xFF AND EQ ISZERO PUSH2 0x18A7 JUMPI PUSH2 0x1841 PUSH1 0x1 PUSH1 0x3 DUP15 DUP5 PUSH2 0x182E SWAP2 SWAP1 PUSH2 0x412F JUMP JUMPDEST PUSH2 0x1838 SWAP2 SWAP1 PUSH2 0x45DB JUMP JUMPDEST PUSH2 0xFFFF AND PUSH2 0x2720 JUMP JUMPDEST DUP7 PUSH2 0x184C SWAP2 SWAP1 PUSH2 0x412F JUMP JUMPDEST SWAP6 POP PUSH2 0x1874 PUSH1 0x1 PUSH1 0x4 DUP15 DUP5 PUSH2 0x1861 SWAP2 SWAP1 PUSH2 0x412F JUMP JUMPDEST PUSH2 0x186B SWAP2 SWAP1 PUSH2 0x45DB JUMP JUMPDEST PUSH2 0xFFFF AND PUSH2 0x2739 JUMP JUMPDEST DUP10 PUSH2 0x187F SWAP2 SWAP1 PUSH2 0x412F JUMP JUMPDEST SWAP9 POP PUSH1 0x2 DUP2 DUP14 PUSH2 0x188F SWAP2 SWAP1 PUSH2 0x412F JUMP JUMPDEST PUSH2 0x1899 SWAP2 SWAP1 PUSH2 0x45DB JUMP JUMPDEST DUP9 PUSH2 0x18A4 SWAP2 SWAP1 PUSH2 0x412F JUMP JUMPDEST SWAP8 POP JUMPDEST JUMPDEST JUMPDEST JUMPDEST PUSH1 0x2 DUP2 DUP14 PUSH2 0x18B8 SWAP2 SWAP1 PUSH2 0x412F JUMP JUMPDEST PUSH2 0x18C2 SWAP2 SWAP1 PUSH2 0x45DB JUMP JUMPDEST PUSH1 0x5 DUP11 PUSH2 0x18CF SWAP2 SWAP1 PUSH2 0x41BD JUMP JUMPDEST PUSH2 0x18D9 SWAP2 SWAP1 PUSH2 0x412F JUMP JUMPDEST DUP6 PUSH2 0x18E4 SWAP2 SWAP1 PUSH2 0x412F JUMP JUMPDEST SWAP5 POP PUSH1 0x2 DUP2 DUP14 PUSH2 0x18F4 SWAP2 SWAP1 PUSH2 0x412F JUMP JUMPDEST PUSH2 0x18FE SWAP2 SWAP1 PUSH2 0x45DB JUMP JUMPDEST PUSH1 0x5 DUP10 PUSH2 0x190B SWAP2 SWAP1 PUSH2 0x41BD JUMP JUMPDEST PUSH2 0x1915 SWAP2 SWAP1 PUSH2 0x412F JUMP JUMPDEST DUP5 PUSH2 0x1920 SWAP2 SWAP1 PUSH2 0x412F JUMP JUMPDEST SWAP4 POP PUSH1 0x2 DUP2 DUP14 PUSH2 0x1930 SWAP2 SWAP1 PUSH2 0x412F JUMP JUMPDEST PUSH2 0x193A SWAP2 SWAP1 PUSH2 0x45DB JUMP JUMPDEST PUSH1 0x5 DUP9 PUSH2 0x1947 SWAP2 SWAP1 PUSH2 0x41BD JUMP JUMPDEST PUSH2 0x1951 SWAP2 SWAP1 PUSH2 0x412F JUMP JUMPDEST DUP4 PUSH2 0x195C SWAP2 SWAP1 PUSH2 0x412F JUMP JUMPDEST SWAP3 POP PUSH1 0x2 DUP2 DUP14 PUSH2 0x196C SWAP2 SWAP1 PUSH2 0x412F JUMP JUMPDEST PUSH2 0x1976 SWAP2 SWAP1 PUSH2 0x45DB JUMP JUMPDEST PUSH1 0x5 DUP8 PUSH2 0x1983 SWAP2 SWAP1 PUSH2 0x41BD JUMP JUMPDEST PUSH2 0x198D SWAP2 SWAP1 PUSH2 0x412F JUMP JUMPDEST DUP3 PUSH2 0x1998 SWAP2 SWAP1 PUSH2 0x412F JUMP JUMPDEST SWAP2 POP DUP1 DUP1 PUSH2 0x19A5 SWAP1 PUSH2 0x4567 JUMP JUMPDEST SWAP2 POP POP PUSH2 0x157F JUMP JUMPDEST POP SWAP2 SWAP4 SWAP6 SWAP8 SWAP10 POP SWAP2 SWAP4 SWAP6 SWAP8 SWAP10 JUMP JUMPDEST PUSH1 0x7 PUSH1 0x20 MSTORE DUP1 PUSH1 0x0 MSTORE PUSH1 0x40 PUSH1 0x0 KECCAK256 PUSH1 0x0 SWAP2 POP SWAP1 POP DUP1 SLOAD PUSH2 0x19DA SWAP1 PUSH2 0x4504 JUMP JUMPDEST DUP1 PUSH1 0x1F ADD PUSH1 0x20 DUP1 SWAP2 DIV MUL PUSH1 0x20 ADD PUSH1 0x40 MLOAD SWAP1 DUP2 ADD PUSH1 0x40 MSTORE DUP1 SWAP3 SWAP2 SWAP1 DUP2 DUP2 MSTORE PUSH1 0x20 ADD DUP3 DUP1 SLOAD PUSH2 0x1A06 SWAP1 PUSH2 0x4504 JUMP JUMPDEST DUP1 ISZERO PUSH2 0x1A53 JUMPI DUP1 PUSH1 0x1F LT PUSH2 0x1A28 JUMPI PUSH2 0x100 DUP1 DUP4 SLOAD DIV MUL DUP4 MSTORE SWAP2 PUSH1 0x20 ADD SWAP2 PUSH2 0x1A53 JUMP JUMPDEST DUP3 ADD SWAP2 SWAP1 PUSH1 0x0 MSTORE PUSH1 0x20 PUSH1 0x0 KECCAK256 SWAP1 JUMPDEST DUP2 SLOAD DUP2 MSTORE SWAP1 PUSH1 0x1 ADD SWAP1 PUSH1 0x20 ADD DUP1 DUP4 GT PUSH2 0x1A36 JUMPI DUP3 SWAP1 SUB PUSH1 0x1F AND DUP3 ADD SWAP2 JUMPDEST POP POP POP POP POP DUP2 JUMP JUMPDEST PUSH1 0x60 PUSH1 0x4 DUP3 PUSH1 0xFF AND LT PUSH2 0x1AA3 JUMPI PUSH1 0x40 MLOAD PUSH32 0x8C379A000000000000000000000000000000000000000000000000000000000 DUP2 MSTORE PUSH1 0x4 ADD PUSH2 0x1A9A SWAP1 PUSH2 0x3D46 JUMP JUMPDEST PUSH1 0x40 MLOAD DUP1 SWAP2 SUB SWAP1 REVERT JUMPDEST PUSH1 0x7 PUSH1 0x0 DUP4 PUSH1 0xFF AND PUSH1 0xFF AND DUP2 MSTORE PUSH1 0x20 ADD SWAP1 DUP2 MSTORE PUSH1 0x20 ADD PUSH1 0x0 KECCAK256 DUP1 SLOAD PUSH2 0x1AC7 SWAP1 PUSH2 0x4504 JUMP JUMPDEST DUP1 PUSH1 0x1F ADD PUSH1 0x20 DUP1 SWAP2 DIV MUL PUSH1 0x20 ADD PUSH1 0x40 MLOAD SWAP1 DUP2 ADD PUSH1 0x40 MSTORE DUP1 SWAP3 SWAP2 SWAP1 DUP2 DUP2 MSTORE PUSH1 0x20 ADD DUP3 DUP1 SLOAD PUSH2 0x1AF3 SWAP1 PUSH2 0x4504 JUMP JUMPDEST DUP1 ISZERO PUSH2 0x1B40 JUMPI DUP1 PUSH1 0x1F LT PUSH2 0x1B15 JUMPI PUSH2 0x100 DUP1 DUP4 SLOAD DIV MUL DUP4 MSTORE SWAP2 PUSH1 0x20 ADD SWAP2 PUSH2 0x1B40 JUMP JUMPDEST DUP3 ADD SWAP2 SWAP1 PUSH1 0x0 MSTORE PUSH1 0x20 PUSH1 0x0 KECCAK256 SWAP1 JUMPDEST DUP2 SLOAD DUP2 MSTORE SWAP1 PUSH1 0x1 ADD SWAP1 PUSH1 0x20 ADD DUP1 DUP4 GT PUSH2 0x1B23 JUMPI DUP3 SWAP1 SUB PUSH1 0x1F AND DUP3 ADD SWAP2 JUMPDEST POP POP POP POP POP SWAP1 POP SWAP2 SWAP1 POP JUMP JUMPDEST PUSH1 0x8 PUSH1 0x20 MSTORE DUP1 PUSH1 0x0 MSTORE PUSH1 0x40 PUSH1 0x0 KECCAK256 PUSH1 0x0 SWAP2 POP SWAP1 POP DUP1 PUSH1 0x0 ADD PUSH1 0x0 SWAP1 SLOAD SWAP1 PUSH2 0x100 EXP SWAP1 DIV PUSH1 0xFF AND SWAP1 DUP1 PUSH1 0x1 ADD SLOAD SWAP1 DUP1 PUSH1 0x2 ADD DUP1 SLOAD PUSH2 0x1B88 SWAP1 PUSH2 0x4504 JUMP JUMPDEST DUP1 PUSH1 0x1F ADD PUSH1 0x20 DUP1 SWAP2 DIV MUL PUSH1 0x20 ADD PUSH1 0x40 MLOAD SWAP1 DUP2 ADD PUSH1 0x40 MSTORE DUP1 SWAP3 SWAP2 SWAP1 DUP2 DUP2 MSTORE PUSH1 0x20 ADD DUP3 DUP1 SLOAD PUSH2 0x1BB4 SWAP1 PUSH2 0x4504 JUMP JUMPDEST DUP1 ISZERO PUSH2 0x1C01 JUMPI DUP1 PUSH1 0x1F LT PUSH2 0x1BD6 JUMPI PUSH2 0x100 DUP1 DUP4 SLOAD DIV MUL DUP4 MSTORE SWAP2 PUSH1 0x20 ADD SWAP2 PUSH2 0x1C01 JUMP JUMPDEST DUP3 ADD SWAP2 SWAP1 PUSH1 0x0 MSTORE PUSH1 0x20 PUSH1 0x0 KECCAK256 SWAP1 JUMPDEST DUP2 SLOAD DUP2 MSTORE SWAP1 PUSH1 0x1 ADD SWAP1 PUSH1 0x20 ADD DUP1 DUP4 GT PUSH2 0x1BE4 JUMPI DUP3 SWAP1 SUB PUSH1 0x1F AND DUP3 ADD SWAP2 JUMPDEST POP POP POP POP POP SWAP1 POP DUP4 JUMP JUMPDEST PUSH1 0x5 PUSH1 0x20 MSTORE DUP2 PUSH1 0x0 MSTORE PUSH1 0x40 PUSH1 0x0 KECCAK256 DUP2 DUP2 SLOAD DUP2 LT PUSH2 0x1C27 JUMPI PUSH1 0x0 DUP1 REVERT JUMPDEST SWAP1 PUSH1 0x0 MSTORE PUSH1 0x20 PUSH1 0x0 KECCAK256 SWAP1 PUSH1 0x10 SWAP2 DUP3 DUP3 DIV ADD SWAP2 SWAP1 MOD PUSH1 0x2 MUL SWAP2 POP SWAP2 POP SWAP1 SLOAD SWAP1 PUSH2 0x100 EXP SWAP1 DIV PUSH2 0xFFFF AND DUP2 JUMP JUMPDEST PUSH1 0x0 PUSH2 0x1C66 PUSH2 0x1C60 DUP5 PUSH2 0xCF2 JUMP JUMPDEST DUP4 PUSH2 0x1EEB JUMP JUMPDEST SWAP1 POP SWAP3 SWAP2 POP POP JUMP JUMPDEST PUSH1 0x0 DUP1 PUSH1 0x8 PUSH1 0x0 DUP5 PUSH2 0xFFFF AND PUSH2 0xFFFF AND DUP2 MSTORE PUSH1 0x20 ADD SWAP1 DUP2 MSTORE PUSH1 0x20 ADD PUSH1 0x0 KECCAK256 PUSH1 0x1 ADD SLOAD SWAP1 POP PUSH1 0x0 PUSH1 0x64 SWAP1 POP PUSH1 0x1 SWAP3 POP JUMPDEST DUP1 DUP3 LT PUSH2 0x1CD4 JUMPI DUP3 DUP1 PUSH2 0x1CAF SWAP1 PUSH2 0x4567 JUMP JUMPDEST SWAP4 POP POP DUP1 DUP3 PUSH2 0x1CBE SWAP2 SWAP1 PUSH2 0x43ED JUMP JUMPDEST SWAP2 POP PUSH1 0x2 DUP2 PUSH2 0x1CCD SWAP2 SWAP1 PUSH2 0x435F JUMP JUMPDEST SWAP1 POP PUSH2 0x1C9D JUMP JUMPDEST POP POP SWAP2 SWAP1 POP JUMP JUMPDEST PUSH2 0x1CED PUSH2 0x1CE6 PUSH2 0x21D5 JUMP JUMPDEST DUP4 DUP4 PUSH2 0x2752 JUMP JUMPDEST POP POP JUMP JUMPDEST PUSH1 0x60 PUSH1 0x0 DUP1 PUSH1 0x60 PUSH2 0x1D2C PUSH1 0x8 PUSH1 0x0 DUP8 PUSH2 0xFFFF AND PUSH2 0xFFFF AND DUP2 MSTORE PUSH1 0x20 ADD SWAP1 DUP2 MSTORE PUSH1 0x20 ADD PUSH1 0x0 KECCAK256 PUSH1 0x0 ADD PUSH1 0x0 SWAP1 SLOAD SWAP1 PUSH2 0x100 EXP SWAP1 DIV PUSH1 0xFF AND PUSH2 0x10B0 JUMP JUMPDEST SWAP4 POP PUSH2 0x1D37 DUP6 PUSH2 0x1C6E JUMP JUMPDEST SWAP3 POP PUSH1 0x8 PUSH1 0x0 DUP7 PUSH2 0xFFFF AND PUSH2 0xFFFF AND DUP2 MSTORE PUSH1 0x20 ADD SWAP1 DUP2 MSTORE PUSH1 0x20 ADD PUSH1 0x0 KECCAK256 PUSH1 0x1 ADD SLOAD SWAP2 POP PUSH1 0x8 PUSH1 0x0 DUP7 PUSH2 0xFFFF AND PUSH2 0xFFFF AND DUP2 MSTORE PUSH1 0x20 ADD SWAP1 DUP2 MSTORE PUSH1 0x20 ADD PUSH1 0x0 KECCAK256 PUSH1 0x2 ADD DUP1 SLOAD PUSH2 0x1D83 SWAP1 PUSH2 0x4504 JUMP JUMPDEST DUP1 PUSH1 0x1F ADD PUSH1 0x20 DUP1 SWAP2 DIV MUL PUSH1 0x20 ADD PUSH1 0x40 MLOAD SWAP1 DUP2 ADD PUSH1 0x40 MSTORE DUP1 SWAP3 SWAP2 SWAP1 DUP2 DUP2 MSTORE PUSH1 0x20 ADD DUP3 DUP1 SLOAD PUSH2 0x1DAF SWAP1 PUSH2 0x4504 JUMP JUMPDEST DUP1 ISZERO PUSH2 0x1DFC JUMPI DUP1 PUSH1 0x1F LT PUSH2 0x1DD1 JUMPI PUSH2 0x100 DUP1 DUP4 SLOAD DIV MUL DUP4 MSTORE SWAP2 PUSH1 0x20 ADD SWAP2 PUSH2 0x1DFC JUMP JUMPDEST DUP3 ADD SWAP2 SWAP1 PUSH1 0x0 MSTORE PUSH1 0x20 PUSH1 0x0 KECCAK256 SWAP1 JUMPDEST DUP2 SLOAD DUP2 MSTORE SWAP1 PUSH1 0x1 ADD SWAP1 PUSH1 0x20 ADD DUP1 DUP4 GT PUSH2 0x1DDF JUMPI DUP3 SWAP1 SUB PUSH1 0x1F AND DUP3 ADD SWAP2 JUMPDEST POP POP POP POP POP SWAP1 POP SWAP2 SWAP4 POP SWAP2 SWAP4 JUMP JUMPDEST PUSH1 0x0 DUP1 PUSH1 0x0 DUP1 PUSH1 0x0 DUP1 PUSH1 0x0 DUP1 PUSH1 0x0 DUP1 PUSH2 0x1E2A PUSH2 0x1E25 DUP13 PUSH2 0xCF2 JUMP JUMPDEST PUSH2 0x1342 JUMP JUMPDEST SWAP10 POP SWAP10 POP SWAP10 POP SWAP10 POP SWAP10 POP SWAP10 POP SWAP10 POP SWAP10 POP SWAP10 POP SWAP10 POP SWAP2 SWAP4 SWAP6 SWAP8 SWAP10 POP SWAP2 SWAP4 SWAP6 SWAP8 SWAP10 JUMP JUMPDEST PUSH1 0xA PUSH1 0x20 MSTORE DUP1 PUSH1 0x0 MSTORE PUSH1 0x40 PUSH1 0x0 KECCAK256 PUSH1 0x0 SWAP2 POP SWAP1 POP DUP1 SLOAD PUSH2 0x1E6A SWAP1 PUSH2 0x4504 JUMP JUMPDEST DUP1 PUSH1 0x1F ADD PUSH1 0x20 DUP1 SWAP2 DIV MUL PUSH1 0x20 ADD PUSH1 0x40 MLOAD SWAP1 DUP2 ADD PUSH1 0x40 MSTORE DUP1 SWAP3 SWAP2 SWAP1 DUP2 DUP2 MSTORE PUSH1 0x20 ADD DUP3 DUP1 SLOAD PUSH2 0x1E96 SWAP1 PUSH2 0x4504 JUMP JUMPDEST DUP1 ISZERO PUSH2 0x1EE3 JUMPI DUP1 PUSH1 0x1F LT PUSH2 0x1EB8 JUMPI PUSH2 0x100 DUP1 DUP4 SLOAD DIV MUL DUP4 MSTORE SWAP2 PUSH1 0x20 ADD SWAP2 PUSH2 0x1EE3 JUMP JUMPDEST DUP3 ADD SWAP2 SWAP1 PUSH1 0x0 MSTORE PUSH1 0x20 PUSH1 0x0 KECCAK256 SWAP1 JUMPDEST DUP2 SLOAD DUP2 MSTORE SWAP1 PUSH1 0x1 ADD SWAP1 PUSH1 0x20 ADD DUP1 DUP4 GT PUSH2 0x1EC6 JUMPI DUP3 SWAP1 SUB PUSH1 0x1F AND DUP3 ADD SWAP2 JUMPDEST POP POP POP POP POP DUP2 JUMP JUMPDEST PUSH1 0x0 DUP2 PUSH1 0x8 PUSH1 0x0 DUP6 PUSH2 0xFFFF AND PUSH2 0xFFFF AND DUP2 MSTORE PUSH1 0x20 ADD SWAP1 DUP2 MSTORE PUSH1 0x20 ADD PUSH1 0x0 KECCAK256 PUSH1 0x1 ADD PUSH1 0x0 DUP3 DUP3 SLOAD PUSH2 0x1F1B SWAP2 SWAP1 PUSH2 0x4167 JUMP JUMPDEST SWAP3 POP POP DUP2 SWAP1 SSTORE POP PUSH1 0x8 PUSH1 0x0 DUP5 PUSH2 0xFFFF AND PUSH2 0xFFFF AND DUP2 MSTORE PUSH1 0x20 ADD SWAP1 DUP2 MSTORE PUSH1 0x20 ADD PUSH1 0x0 KECCAK256 PUSH1 0x1 ADD SLOAD SWAP1 POP SWAP3 SWAP2 POP POP JUMP JUMPDEST PUSH1 0x60 PUSH1 0xA PUSH1 0x0 DUP4 PUSH2 0xFFFF AND PUSH2 0xFFFF AND DUP2 MSTORE PUSH1 0x20 ADD SWAP1 DUP2 MSTORE PUSH1 0x20 ADD PUSH1 0x0 KECCAK256 DUP1 SLOAD PUSH2 0x1F71 SWAP1 PUSH2 0x4504 JUMP JUMPDEST DUP1 PUSH1 0x1F ADD PUSH1 0x20 DUP1 SWAP2 DIV MUL PUSH1 0x20 ADD PUSH1 0x40 MLOAD SWAP1 DUP2 ADD PUSH1 0x40 MSTORE DUP1 SWAP3 SWAP2 SWAP1 DUP2 DUP2 MSTORE PUSH1 0x20 ADD DUP3 DUP1 SLOAD PUSH2 0x1F9D SWAP1 PUSH2 0x4504 JUMP JUMPDEST DUP1 ISZERO PUSH2 0x1FEA JUMPI DUP1 PUSH1 0x1F LT PUSH2 0x1FBF JUMPI PUSH2 0x100 DUP1 DUP4 SLOAD DIV MUL DUP4 MSTORE SWAP2 PUSH1 0x20 ADD SWAP2 PUSH2 0x1FEA JUMP JUMPDEST DUP3 ADD SWAP2 SWAP1 PUSH1 0x0 MSTORE PUSH1 0x20 PUSH1 0x0 KECCAK256 SWAP1 JUMPDEST DUP2 SLOAD DUP2 MSTORE SWAP1 PUSH1 0x1 ADD SWAP1 PUSH1 0x20 ADD DUP1 DUP4 GT PUSH2 0x1FCD JUMPI DUP3 SWAP1 SUB PUSH1 0x1F AND DUP3 ADD SWAP2 JUMPDEST POP POP POP POP POP SWAP1 POP SWAP2 SWAP1 POP JUMP JUMPDEST PUSH1 0x9 DUP1 PUSH1 0x0 ADD SLOAD SWAP1 POP DUP2 JUMP JUMPDEST PUSH1 0x0 PUSH1 0x1 PUSH1 0x0 DUP5 PUSH20 0xFFFFFFFFFFFFFFFFFFFFFFFFFFFFFFFFFFFFFFFF AND PUSH20 0xFFFFFFFFFFFFFFFFFFFFFFFFFFFFFFFFFFFFFFFF AND DUP2 MSTORE PUSH1 0x20 ADD SWAP1 DUP2 MSTORE PUSH1 0x20 ADD PUSH1 0x0 KECCAK256 PUSH1 0x0 DUP4 PUSH20 0xFFFFFFFFFFFFFFFFFFFFFFFFFFFFFFFFFFFFFFFF AND PUSH20 0xFFFFFFFFFFFFFFFFFFFFFFFFFFFFFFFFFFFFFFFF AND DUP2 MSTORE PUSH1 0x20 ADD SWAP1 DUP2 MSTORE PUSH1 0x20 ADD PUSH1 0x0 KECCAK256 PUSH1 0x0 SWAP1 SLOAD SWAP1 PUSH2 0x100 EXP SWAP1 DIV PUSH1 0xFF AND SWAP1 POP SWAP3 SWAP2 POP POP JUMP JUMPDEST PUSH1 0x60 PUSH2 0x20A9 PUSH2 0x20A4 DUP4 PUSH2 0xCF2 JUMP JUMPDEST PUSH2 0x1F49 JUMP JUMPDEST SWAP1 POP SWAP2 SWAP1 POP JUMP JUMPDEST PUSH2 0x20B8 PUSH2 0x21D5 JUMP JUMPDEST PUSH20 0xFFFFFFFFFFFFFFFFFFFFFFFFFFFFFFFFFFFFFFFF AND DUP6 PUSH20 0xFFFFFFFFFFFFFFFFFFFFFFFFFFFFFFFFFFFFFFFF AND EQ DUP1 PUSH2 0x20FE JUMPI POP PUSH2 0x20FD DUP6 PUSH2 0x20F8 PUSH2 0x21D5 JUMP JUMPDEST PUSH2 0x2002 JUMP JUMPDEST JUMPDEST PUSH2 0x213D JUMPI PUSH1 0x40 MLOAD PUSH32 0x8C379A000000000000000000000000000000000000000000000000000000000 DUP2 MSTORE PUSH1 0x4 ADD PUSH2 0x2134 SWAP1 PUSH2 0x3D86 JUMP JUMPDEST PUSH1 0x40 MLOAD DUP1 SWAP2 SUB SWAP1 REVERT JUMPDEST PUSH2 0x214A DUP6 DUP6 DUP6 DUP6 DUP6 PUSH2 0x28BF JUMP JUMPDEST POP POP POP POP POP JUMP JUMPDEST PUSH1 0x0 PUSH32 0x1FFC9A700000000000000000000000000000000000000000000000000000000 PUSH28 0xFFFFFFFFFFFFFFFFFFFFFFFFFFFFFFFFFFFFFFFFFFFFFFFFFFFFFFFF NOT AND DUP3 PUSH28 0xFFFFFFFFFFFFFFFFFFFFFFFFFFFFFFFFFFFFFFFFFFFFFFFFFFFFFFFF NOT AND EQ SWAP1 POP SWAP2 SWAP1 POP JUMP JUMPDEST DUP1 PUSH1 0x2 SWAP1 DUP1 MLOAD SWAP1 PUSH1 0x20 ADD SWAP1 PUSH2 0x21D1 SWAP3 SWAP2 SWAP1 PUSH2 0x3022 JUMP JUMPDEST POP POP JUMP JUMPDEST PUSH1 0x0 CALLER SWAP1 POP SWAP1 JUMP JUMPDEST DUP2 MLOAD DUP4 MLOAD EQ PUSH2 0x2221 JUMPI PUSH1 0x40 MLOAD PUSH32 0x8C379A000000000000000000000000000000000000000000000000000000000 DUP2 MSTORE PUSH1 0x4 ADD PUSH2 0x2218 SWAP1 PUSH2 0x3E26 JUMP JUMPDEST PUSH1 0x40 MLOAD DUP1 SWAP2 SUB SWAP1 REVERT JUMPDEST PUSH1 0x0 PUSH20 0xFFFFFFFFFFFFFFFFFFFFFFFFFFFFFFFFFFFFFFFF AND DUP5 PUSH20 0xFFFFFFFFFFFFFFFFFFFFFFFFFFFFFFFFFFFFFFFF AND EQ ISZERO PUSH2 0x2291 JUMPI PUSH1 0x40 MLOAD PUSH32 0x8C379A000000000000000000000000000000000000000000000000000000000 DUP2 MSTORE PUSH1 0x4 ADD PUSH2 0x2288 SWAP1 PUSH2 0x3DA6 JUMP JUMPDEST PUSH1 0x40 MLOAD DUP1 SWAP2 SUB SWAP1 REVERT JUMPDEST PUSH1 0x0 PUSH2 0x229B PUSH2 0x21D5 JUMP JUMPDEST SWAP1 POP PUSH2 0x22AB DUP2 DUP8 DUP8 DUP8 DUP8 DUP8 PUSH2 0x2B5B JUMP JUMPDEST PUSH1 0x0 JUMPDEST DUP5 MLOAD DUP2 LT ISZERO PUSH2 0x24A8 JUMPI PUSH1 0x0 DUP6 DUP3 DUP2 MLOAD DUP2 LT PUSH2 0x22F2 JUMPI PUSH32 0x4E487B7100000000000000000000000000000000000000000000000000000000 PUSH1 0x0 MSTORE PUSH1 0x32 PUSH1 0x4 MSTORE PUSH1 0x24 PUSH1 0x0 REVERT JUMPDEST PUSH1 0x20 MUL PUSH1 0x20 ADD ADD MLOAD SWAP1 POP PUSH1 0x0 DUP6 DUP4 DUP2 MLOAD DUP2 LT PUSH2 0x2337 JUMPI PUSH32 0x4E487B7100000000000000000000000000000000000000000000000000000000 PUSH1 0x0 MSTORE PUSH1 0x32 PUSH1 0x4 MSTORE PUSH1 0x24 PUSH1 0x0 REVERT JUMPDEST PUSH1 0x20 MUL PUSH1 0x20 ADD ADD MLOAD SWAP1 POP PUSH1 0x0 DUP1 PUSH1 0x0 DUP5 DUP2 MSTORE PUSH1 0x20 ADD SWAP1 DUP2 MSTORE PUSH1 0x20 ADD PUSH1 0x0 KECCAK256 PUSH1 0x0 DUP12 PUSH20 0xFFFFFFFFFFFFFFFFFFFFFFFFFFFFFFFFFFFFFFFF AND PUSH20 0xFFFFFFFFFFFFFFFFFFFFFFFFFFFFFFFFFFFFFFFF AND DUP2 MSTORE PUSH1 0x20 ADD SWAP1 DUP2 MSTORE PUSH1 0x20 ADD PUSH1 0x0 KECCAK256 SLOAD SWAP1 POP DUP2 DUP2 LT ISZERO PUSH2 0x23D8 JUMPI PUSH1 0x40 MLOAD PUSH32 0x8C379A000000000000000000000000000000000000000000000000000000000 DUP2 MSTORE PUSH1 0x4 ADD PUSH2 0x23CF SWAP1 PUSH2 0x3DC6 JUMP JUMPDEST PUSH1 0x40 MLOAD DUP1 SWAP2 SUB SWAP1 REVERT JUMPDEST DUP2 DUP2 SUB PUSH1 0x0 DUP1 DUP6 DUP2 MSTORE PUSH1 0x20 ADD SWAP1 DUP2 MSTORE PUSH1 0x20 ADD PUSH1 0x0 KECCAK256 PUSH1 0x0 DUP13 PUSH20 0xFFFFFFFFFFFFFFFFFFFFFFFFFFFFFFFFFFFFFFFF AND PUSH20 0xFFFFFFFFFFFFFFFFFFFFFFFFFFFFFFFFFFFFFFFF AND DUP2 MSTORE PUSH1 0x20 ADD SWAP1 DUP2 MSTORE PUSH1 0x20 ADD PUSH1 0x0 KECCAK256 DUP2 SWAP1 SSTORE POP DUP2 PUSH1 0x0 DUP1 DUP6 DUP2 MSTORE PUSH1 0x20 ADD SWAP1 DUP2 MSTORE PUSH1 0x20 ADD PUSH1 0x0 KECCAK256 PUSH1 0x0 DUP12 PUSH20 0xFFFFFFFFFFFFFFFFFFFFFFFFFFFFFFFFFFFFFFFF AND PUSH20 0xFFFFFFFFFFFFFFFFFFFFFFFFFFFFFFFFFFFFFFFF AND DUP2 MSTORE PUSH1 0x20 ADD SWAP1 DUP2 MSTORE PUSH1 0x20 ADD PUSH1 0x0 KECCAK256 PUSH1 0x0 DUP3 DUP3 SLOAD PUSH2 0x248D SWAP2 SWAP1 PUSH2 0x4167 JUMP JUMPDEST SWAP3 POP POP DUP2 SWAP1 SSTORE POP POP POP POP DUP1 PUSH2 0x24A1 SWAP1 PUSH2 0x4592 JUMP JUMPDEST SWAP1 POP PUSH2 0x22AE JUMP JUMPDEST POP DUP5 PUSH20 0xFFFFFFFFFFFFFFFFFFFFFFFFFFFFFFFFFFFFFFFF AND DUP7 PUSH20 0xFFFFFFFFFFFFFFFFFFFFFFFFFFFFFFFFFFFFFFFF AND DUP3 PUSH20 0xFFFFFFFFFFFFFFFFFFFFFFFFFFFFFFFFFFFFFFFF AND PUSH32 0x4A39DC06D4C0DBC64B70AF90FD698A233A518AA5D07E595D983B8C0526C8F7FB DUP8 DUP8 PUSH1 0x40 MLOAD PUSH2 0x251F SWAP3 SWAP2 SWAP1 PUSH2 0x3C44 JUMP JUMPDEST PUSH1 0x40 MLOAD DUP1 SWAP2 SUB SWAP1 LOG4 PUSH2 0x2535 DUP2 DUP8 DUP8 DUP8 DUP8 DUP8 PUSH2 0x2B63 JUMP JUMPDEST PUSH2 0x2543 DUP2 DUP8 DUP8 DUP8 DUP8 DUP8 PUSH2 0x2B6B JUMP JUMPDEST POP POP POP POP POP POP JUMP JUMPDEST PUSH1 0x1 DUP2 PUSH1 0x0 ADD PUSH1 0x0 DUP3 DUP3 SLOAD ADD SWAP3 POP POP DUP2 SWAP1 SSTORE POP POP JUMP JUMPDEST PUSH1 0x0 DUP2 PUSH1 0x0 ADD SLOAD SWAP1 POP SWAP2 SWAP1 POP JUMP JUMPDEST PUSH1 0x0 PUSH20 0xFFFFFFFFFFFFFFFFFFFFFFFFFFFFFFFFFFFFFFFF AND DUP5 PUSH20 0xFFFFFFFFFFFFFFFFFFFFFFFFFFFFFFFFFFFFFFFF AND EQ ISZERO PUSH2 0x25DF JUMPI PUSH1 0x40 MLOAD PUSH32 0x8C379A000000000000000000000000000000000000000000000000000000000 DUP2 MSTORE PUSH1 0x4 ADD PUSH2 0x25D6 SWAP1 PUSH2 0x3E46 JUMP JUMPDEST PUSH1 0x40 MLOAD DUP1 SWAP2 SUB SWAP1 REVERT JUMPDEST PUSH1 0x0 PUSH2 0x25E9 PUSH2 0x21D5 JUMP JUMPDEST SWAP1 POP PUSH1 0x0 PUSH2 0x25F6 DUP6 PUSH2 0x2D52 JUMP JUMPDEST SWAP1 POP PUSH1 0x0 PUSH2 0x2603 DUP6 PUSH2 0x2D52 JUMP JUMPDEST SWAP1 POP PUSH2 0x2614 DUP4 PUSH1 0x0 DUP10 DUP6 DUP6 DUP10 PUSH2 0x2B5B JUMP JUMPDEST DUP5 PUSH1 0x0 DUP1 DUP9 DUP2 MSTORE PUSH1 0x20 ADD SWAP1 DUP2 MSTORE PUSH1 0x20 ADD PUSH1 0x0 KECCAK256 PUSH1 0x0 DUP10 PUSH20 0xFFFFFFFFFFFFFFFFFFFFFFFFFFFFFFFFFFFFFFFF AND PUSH20 0xFFFFFFFFFFFFFFFFFFFFFFFFFFFFFFFFFFFFFFFF AND DUP2 MSTORE PUSH1 0x20 ADD SWAP1 DUP2 MSTORE PUSH1 0x20 ADD PUSH1 0x0 KECCAK256 PUSH1 0x0 DUP3 DUP3 SLOAD PUSH2 0x2673 SWAP2 SWAP1 PUSH2 0x4167 JUMP JUMPDEST SWAP3 POP POP DUP2 SWAP1 SSTORE POP DUP7 PUSH20 0xFFFFFFFFFFFFFFFFFFFFFFFFFFFFFFFFFFFFFFFF AND PUSH1 0x0 PUSH20 0xFFFFFFFFFFFFFFFFFFFFFFFFFFFFFFFFFFFFFFFF AND DUP5 PUSH20 0xFFFFFFFFFFFFFFFFFFFFFFFFFFFFFFFFFFFFFFFF AND PUSH32 0xC3D58168C5AE7397731D063D5BBF3D657854427343F4C083240F7AACAA2D0F62 DUP10 DUP10 PUSH1 0x40 MLOAD PUSH2 0x26F1 SWAP3 SWAP2 SWAP1 PUSH2 0x3F78 JUMP JUMPDEST PUSH1 0x40 MLOAD DUP1 SWAP2 SUB SWAP1 LOG4 PUSH2 0x2708 DUP4 PUSH1 0x0 DUP10 DUP6 DUP6 DUP10 PUSH2 0x2B63 JUMP JUMPDEST PUSH2 0x2717 DUP4 PUSH1 0x0 DUP10 DUP10 DUP10 DUP10 PUSH2 0x2E18 JUMP JUMPDEST POP POP POP POP POP POP POP JUMP JUMPDEST PUSH1 0x0 DUP2 DUP4 GT PUSH2 0x272F JUMPI DUP2 PUSH2 0x2731 JUMP JUMPDEST DUP3 JUMPDEST SWAP1 POP SWAP3 SWAP2 POP POP JUMP JUMPDEST PUSH1 0x0 DUP2 DUP4 LT PUSH2 0x2748 JUMPI DUP2 PUSH2 0x274A JUMP JUMPDEST DUP3 JUMPDEST SWAP1 POP SWAP3 SWAP2 POP POP JUMP JUMPDEST DUP2 PUSH20 0xFFFFFFFFFFFFFFFFFFFFFFFFFFFFFFFFFFFFFFFF AND DUP4 PUSH20 0xFFFFFFFFFFFFFFFFFFFFFFFFFFFFFFFFFFFFFFFF AND EQ ISZERO PUSH2 0x27C1 JUMPI PUSH1 0x40 MLOAD PUSH32 0x8C379A000000000000000000000000000000000000000000000000000000000 DUP2 MSTORE PUSH1 0x4 ADD PUSH2 0x27B8 SWAP1 PUSH2 0x3DE6 JUMP JUMPDEST PUSH1 0x40 MLOAD DUP1 SWAP2 SUB SWAP1 REVERT JUMPDEST DUP1 PUSH1 0x1 PUSH1 0x0 DUP6 PUSH20 0xFFFFFFFFFFFFFFFFFFFFFFFFFFFFFFFFFFFFFFFF AND PUSH20 0xFFFFFFFFFFFFFFFFFFFFFFFFFFFFFFFFFFFFFFFF AND DUP2 MSTORE PUSH1 0x20 ADD SWAP1 DUP2 MSTORE PUSH1 0x20 ADD PUSH1 0x0 KECCAK256 PUSH1 0x0 DUP5 PUSH20 0xFFFFFFFFFFFFFFFFFFFFFFFFFFFFFFFFFFFFFFFF AND PUSH20 0xFFFFFFFFFFFFFFFFFFFFFFFFFFFFFFFFFFFFFFFF AND DUP2 MSTORE PUSH1 0x20 ADD SWAP1 DUP2 MSTORE PUSH1 0x20 ADD PUSH1 0x0 KECCAK256 PUSH1 0x0 PUSH2 0x100 EXP DUP2 SLOAD DUP2 PUSH1 0xFF MUL NOT AND SWAP1 DUP4 ISZERO ISZERO MUL OR SWAP1 SSTORE POP DUP2 PUSH20 0xFFFFFFFFFFFFFFFFFFFFFFFFFFFFFFFFFFFFFFFF AND DUP4 PUSH20 0xFFFFFFFFFFFFFFFFFFFFFFFFFFFFFFFFFFFFFFFF AND PUSH32 0x17307EAB39AB6107E8899845AD3D59BD9653F200F220920489CA2B5937696C31 DUP4 PUSH1 0x40 MLOAD PUSH2 0x28B2 SWAP2 SWAP1 PUSH2 0x3C7B JUMP JUMPDEST PUSH1 0x40 MLOAD DUP1 SWAP2 SUB SWAP1 LOG3 POP POP POP JUMP JUMPDEST PUSH1 0x0 PUSH20 0xFFFFFFFFFFFFFFFFFFFFFFFFFFFFFFFFFFFFFFFF AND DUP5 PUSH20 0xFFFFFFFFFFFFFFFFFFFFFFFFFFFFFFFFFFFFFFFF AND EQ ISZERO PUSH2 0x292F JUMPI PUSH1 0x40 MLOAD PUSH32 0x8C379A000000000000000000000000000000000000000000000000000000000 DUP2 MSTORE PUSH1 0x4 ADD PUSH2 0x2926 SWAP1 PUSH2 0x3DA6 JUMP JUMPDEST PUSH1 0x40 MLOAD DUP1 SWAP2 SUB SWAP1 REVERT JUMPDEST PUSH1 0x0 PUSH2 0x2939 PUSH2 0x21D5 JUMP JUMPDEST SWAP1 POP PUSH1 0x0 PUSH2 0x2946 DUP6 PUSH2 0x2D52 JUMP JUMPDEST SWAP1 POP PUSH1 0x0 PUSH2 0x2953 DUP6 PUSH2 0x2D52 JUMP JUMPDEST SWAP1 POP PUSH2 0x2963 DUP4 DUP10 DUP10 DUP6 DUP6 DUP10 PUSH2 0x2B5B JUMP JUMPDEST PUSH1 0x0 DUP1 PUSH1 0x0 DUP9 DUP2 MSTORE PUSH1 0x20 ADD SWAP1 DUP2 MSTORE PUSH1 0x20 ADD PUSH1 0x0 KECCAK256 PUSH1 0x0 DUP11 PUSH20 0xFFFFFFFFFFFFFFFFFFFFFFFFFFFFFFFFFFFFFFFF AND PUSH20 0xFFFFFFFFFFFFFFFFFFFFFFFFFFFFFFFFFFFFFFFF AND DUP2 MSTORE PUSH1 0x20 ADD SWAP1 DUP2 MSTORE PUSH1 0x20 ADD PUSH1 0x0 KECCAK256 SLOAD SWAP1 POP DUP6 DUP2 LT ISZERO PUSH2 0x29FA JUMPI PUSH1 0x40 MLOAD PUSH32 0x8C379A000000000000000000000000000000000000000000000000000000000 DUP2 MSTORE PUSH1 0x4 ADD PUSH2 0x29F1 SWAP1 PUSH2 0x3DC6 JUMP JUMPDEST PUSH1 0x40 MLOAD DUP1 SWAP2 SUB SWAP1 REVERT JUMPDEST DUP6 DUP2 SUB PUSH1 0x0 DUP1 DUP10 DUP2 MSTORE PUSH1 0x20 ADD SWAP1 DUP2 MSTORE PUSH1 0x20 ADD PUSH1 0x0 KECCAK256 PUSH1 0x0 DUP12 PUSH20 0xFFFFFFFFFFFFFFFFFFFFFFFFFFFFFFFFFFFFFFFF AND PUSH20 0xFFFFFFFFFFFFFFFFFFFFFFFFFFFFFFFFFFFFFFFF AND DUP2 MSTORE PUSH1 0x20 ADD SWAP1 DUP2 MSTORE PUSH1 0x20 ADD PUSH1 0x0 KECCAK256 DUP2 SWAP1 SSTORE POP DUP6 PUSH1 0x0 DUP1 DUP10 DUP2 MSTORE PUSH1 0x20 ADD SWAP1 DUP2 MSTORE PUSH1 0x20 ADD PUSH1 0x0 KECCAK256 PUSH1 0x0 DUP11 PUSH20 0xFFFFFFFFFFFFFFFFFFFFFFFFFFFFFFFFFFFFFFFF AND PUSH20 0xFFFFFFFFFFFFFFFFFFFFFFFFFFFFFFFFFFFFFFFF AND DUP2 MSTORE PUSH1 0x20 ADD SWAP1 DUP2 MSTORE PUSH1 0x20 ADD PUSH1 0x0 KECCAK256 PUSH1 0x0 DUP3 DUP3 SLOAD PUSH2 0x2AAF SWAP2 SWAP1 PUSH2 0x4167 JUMP JUMPDEST SWAP3 POP POP DUP2 SWAP1 SSTORE POP DUP8 PUSH20 0xFFFFFFFFFFFFFFFFFFFFFFFFFFFFFFFFFFFFFFFF AND DUP10 PUSH20 0xFFFFFFFFFFFFFFFFFFFFFFFFFFFFFFFFFFFFFFFF AND DUP6 PUSH20 0xFFFFFFFFFFFFFFFFFFFFFFFFFFFFFFFFFFFFFFFF AND PUSH32 0xC3D58168C5AE7397731D063D5BBF3D657854427343F4C083240F7AACAA2D0F62 DUP11 DUP11 PUSH1 0x40 MLOAD PUSH2 0x2B2C SWAP3 SWAP2 SWAP1 PUSH2 0x3F78 JUMP JUMPDEST PUSH1 0x40 MLOAD DUP1 SWAP2 SUB SWAP1 LOG4 PUSH2 0x2B42 DUP5 DUP11 DUP11 DUP7 DUP7 DUP11 PUSH2 0x2B63 JUMP JUMPDEST PUSH2 0x2B50 DUP5 DUP11 DUP11 DUP11 DUP11 DUP11 PUSH2 0x2E18 JUMP JUMPDEST POP POP POP POP POP POP POP POP POP JUMP JUMPDEST POP POP POP POP POP POP JUMP JUMPDEST POP POP POP POP POP POP JUMP JUMPDEST PUSH2 0x2B8A DUP5 PUSH20 0xFFFFFFFFFFFFFFFFFFFFFFFFFFFFFFFFFFFFFFFF AND PUSH2 0x2FFF JUMP JUMPDEST ISZERO PUSH2 0x2D4A JUMPI DUP4 PUSH20 0xFFFFFFFFFFFFFFFFFFFFFFFFFFFFFFFFFFFFFFFF AND PUSH4 0xBC197C81 DUP8 DUP8 DUP7 DUP7 DUP7 PUSH1 0x40 MLOAD DUP7 PUSH4 0xFFFFFFFF AND PUSH1 0xE0 SHL DUP2 MSTORE PUSH1 0x4 ADD PUSH2 0x2BD0 SWAP6 SWAP5 SWAP4 SWAP3 SWAP2 SWAP1 PUSH2 0x3B60 JUMP JUMPDEST PUSH1 0x20 PUSH1 0x40 MLOAD DUP1 DUP4 SUB DUP2 PUSH1 0x0 DUP8 DUP1 EXTCODESIZE ISZERO DUP1 ISZERO PUSH2 0x2BEA JUMPI PUSH1 0x0 DUP1 REVERT JUMPDEST POP GAS CALL SWAP3 POP POP POP DUP1 ISZERO PUSH2 0x2C1B JUMPI POP PUSH1 0x40 MLOAD RETURNDATASIZE PUSH1 0x1F NOT PUSH1 0x1F DUP3 ADD AND DUP3 ADD DUP1 PUSH1 0x40 MSTORE POP DUP2 ADD SWAP1 PUSH2 0x2C18 SWAP2 SWAP1 PUSH2 0x3668 JUMP JUMPDEST PUSH1 0x1 JUMPDEST PUSH2 0x2CC1 JUMPI PUSH2 0x2C27 PUSH2 0x46C8 JUMP JUMPDEST DUP1 PUSH4 0x8C379A0 EQ ISZERO PUSH2 0x2C84 JUMPI POP PUSH2 0x2C3C PUSH2 0x4A7D JUMP JUMPDEST DUP1 PUSH2 0x2C47 JUMPI POP PUSH2 0x2C86 JUMP JUMPDEST DUP1 PUSH1 0x40 MLOAD PUSH32 0x8C379A000000000000000000000000000000000000000000000000000000000 DUP2 MSTORE PUSH1 0x4 ADD PUSH2 0x2C7B SWAP2 SWAP1 PUSH2 0x3CB1 JUMP JUMPDEST PUSH1 0x40 MLOAD DUP1 SWAP2 SUB SWAP1 REVERT JUMPDEST POP JUMPDEST PUSH1 0x40 MLOAD PUSH32 0x8C379A000000000000000000000000000000000000000000000000000000000 DUP2 MSTORE PUSH1 0x4 ADD PUSH2 0x2CB8 SWAP1 PUSH2 0x3E86 JUMP JUMPDEST PUSH1 0x40 MLOAD DUP1 SWAP2 SUB SWAP1 REVERT JUMPDEST PUSH4 0xBC197C81 PUSH1 0xE0 SHL PUSH28 0xFFFFFFFFFFFFFFFFFFFFFFFFFFFFFFFFFFFFFFFFFFFFFFFFFFFFFFFF NOT AND DUP2 PUSH28 0xFFFFFFFFFFFFFFFFFFFFFFFFFFFFFFFFFFFFFFFFFFFFFFFFFFFFFFFF NOT AND EQ PUSH2 0x2D48 JUMPI PUSH1 0x40 MLOAD PUSH32 0x8C379A000000000000000000000000000000000000000000000000000000000 DUP2 MSTORE PUSH1 0x4 ADD PUSH2 0x2D3F SWAP1 PUSH2 0x3D26 JUMP JUMPDEST PUSH1 0x40 MLOAD DUP1 SWAP2 SUB SWAP1 REVERT JUMPDEST POP JUMPDEST POP POP POP POP POP POP JUMP JUMPDEST PUSH1 0x60 PUSH1 0x0 PUSH1 0x1 PUSH8 0xFFFFFFFFFFFFFFFF DUP2 GT ISZERO PUSH2 0x2D97 JUMPI PUSH32 0x4E487B7100000000000000000000000000000000000000000000000000000000 PUSH1 0x0 MSTORE PUSH1 0x41 PUSH1 0x4 MSTORE PUSH1 0x24 PUSH1 0x0 REVERT JUMPDEST PUSH1 0x40 MLOAD SWAP1 DUP1 DUP3 MSTORE DUP1 PUSH1 0x20 MUL PUSH1 0x20 ADD DUP3 ADD PUSH1 0x40 MSTORE DUP1 ISZERO PUSH2 0x2DC5 JUMPI DUP2 PUSH1 0x20 ADD PUSH1 0x20 DUP3 MUL DUP1 CALLDATASIZE DUP4 CALLDATACOPY DUP1 DUP3 ADD SWAP2 POP POP SWAP1 POP JUMPDEST POP SWAP1 POP DUP3 DUP2 PUSH1 0x0 DUP2 MLOAD DUP2 LT PUSH2 0x2E03 JUMPI PUSH32 0x4E487B7100000000000000000000000000000000000000000000000000000000 PUSH1 0x0 MSTORE PUSH1 0x32 PUSH1 0x4 MSTORE PUSH1 0x24 PUSH1 0x0 REVERT JUMPDEST PUSH1 0x20 MUL PUSH1 0x20 ADD ADD DUP2 DUP2 MSTORE POP POP DUP1 SWAP2 POP POP SWAP2 SWAP1 POP JUMP JUMPDEST PUSH2 0x2E37 DUP5 PUSH20 0xFFFFFFFFFFFFFFFFFFFFFFFFFFFFFFFFFFFFFFFF AND PUSH2 0x2FFF JUMP JUMPDEST ISZERO PUSH2 0x2FF7 JUMPI DUP4 PUSH20 0xFFFFFFFFFFFFFFFFFFFFFFFFFFFFFFFFFFFFFFFF AND PUSH4 0xF23A6E61 DUP8 DUP8 DUP7 DUP7 DUP7 PUSH1 0x40 MLOAD DUP7 PUSH4 0xFFFFFFFF AND PUSH1 0xE0 SHL DUP2 MSTORE PUSH1 0x4 ADD PUSH2 0x2E7D SWAP6 SWAP5 SWAP4 SWAP3 SWAP2 SWAP1 PUSH2 0x3BC8 JUMP JUMPDEST PUSH1 0x20 PUSH1 0x40 MLOAD DUP1 DUP4 SUB DUP2 PUSH1 0x0 DUP8 DUP1 EXTCODESIZE ISZERO DUP1 ISZERO PUSH2 0x2E97 JUMPI PUSH1 0x0 DUP1 REVERT JUMPDEST POP GAS CALL SWAP3 POP POP POP DUP1 ISZERO PUSH2 0x2EC8 JUMPI POP PUSH1 0x40 MLOAD RETURNDATASIZE PUSH1 0x1F NOT PUSH1 0x1F DUP3 ADD AND DUP3 ADD DUP1 PUSH1 0x40 MSTORE POP DUP2 ADD SWAP1 PUSH2 0x2EC5 SWAP2 SWAP1 PUSH2 0x3668 JUMP JUMPDEST PUSH1 0x1 JUMPDEST PUSH2 0x2F6E JUMPI PUSH2 0x2ED4 PUSH2 0x46C8 JUMP JUMPDEST DUP1 PUSH4 0x8C379A0 EQ ISZERO PUSH2 0x2F31 JUMPI POP PUSH2 0x2EE9 PUSH2 0x4A7D JUMP JUMPDEST DUP1 PUSH2 0x2EF4 JUMPI POP PUSH2 0x2F33 JUMP JUMPDEST DUP1 PUSH1 0x40 MLOAD PUSH32 0x8C379A000000000000000000000000000000000000000000000000000000000 DUP2 MSTORE PUSH1 0x4 ADD PUSH2 0x2F28 SWAP2 SWAP1 PUSH2 0x3CB1 JUMP JUMPDEST PUSH1 0x40 MLOAD DUP1 SWAP2 SUB SWAP1 REVERT JUMPDEST POP JUMPDEST PUSH1 0x40 MLOAD PUSH32 0x8C379A000000000000000000000000000000000000000000000000000000000 DUP2 MSTORE PUSH1 0x4 ADD PUSH2 0x2F65 SWAP1 PUSH2 0x3E86 JUMP JUMPDEST PUSH1 0x40 MLOAD DUP1 SWAP2 SUB SWAP1 REVERT JUMPDEST PUSH4 0xF23A6E61 PUSH1 0xE0 SHL PUSH28 0xFFFFFFFFFFFFFFFFFFFFFFFFFFFFFFFFFFFFFFFFFFFFFFFFFFFFFFFF NOT AND DUP2 PUSH28 0xFFFFFFFFFFFFFFFFFFFFFFFFFFFFFFFFFFFFFFFFFFFFFFFFFFFFFFFF NOT AND EQ PUSH2 0x2FF5 JUMPI PUSH1 0x40 MLOAD PUSH32 0x8C379A000000000000000000000000000000000000000000000000000000000 DUP2 MSTORE PUSH1 0x4 ADD PUSH2 0x2FEC SWAP1 PUSH2 0x3D26 JUMP JUMPDEST PUSH1 0x40 MLOAD DUP1 SWAP2 SUB SWAP1 REVERT JUMPDEST POP JUMPDEST POP POP POP POP POP POP JUMP JUMPDEST PUSH1 0x0 DUP1 DUP3 PUSH20 0xFFFFFFFFFFFFFFFFFFFFFFFFFFFFFFFFFFFFFFFF AND EXTCODESIZE GT SWAP1 POP SWAP2 SWAP1 POP JUMP JUMPDEST DUP3 DUP1 SLOAD PUSH2 0x302E SWAP1 PUSH2 0x4504 JUMP JUMPDEST SWAP1 PUSH1 0x0 MSTORE PUSH1 0x20 PUSH1 0x0 KECCAK256 SWAP1 PUSH1 0x1F ADD PUSH1 0x20 SWAP1 DIV DUP2 ADD SWAP3 DUP3 PUSH2 0x3050 JUMPI PUSH1 0x0 DUP6 SSTORE PUSH2 0x3097 JUMP JUMPDEST DUP3 PUSH1 0x1F LT PUSH2 0x3069 JUMPI DUP1 MLOAD PUSH1 0xFF NOT AND DUP4 DUP1 ADD OR DUP6 SSTORE PUSH2 0x3097 JUMP JUMPDEST DUP3 DUP1 ADD PUSH1 0x1 ADD DUP6 SSTORE DUP3 ISZERO PUSH2 0x3097 JUMPI SWAP2 DUP3 ADD JUMPDEST DUP3 DUP2 GT ISZERO PUSH2 0x3096 JUMPI DUP3 MLOAD DUP3 SSTORE SWAP2 PUSH1 0x20 ADD SWAP2 SWAP1 PUSH1 0x1 ADD SWAP1 PUSH2 0x307B JUMP JUMPDEST JUMPDEST POP SWAP1 POP PUSH2 0x30A4 SWAP2 SWAP1 PUSH2 0x30A8 JUMP JUMPDEST POP SWAP1 JUMP JUMPDEST JUMPDEST DUP1 DUP3 GT ISZERO PUSH2 0x30C1 JUMPI PUSH1 0x0 DUP2 PUSH1 0x0 SWAP1 SSTORE POP PUSH1 0x1 ADD PUSH2 0x30A9 JUMP JUMPDEST POP SWAP1 JUMP JUMPDEST PUSH1 0x0 PUSH2 0x30D8 PUSH2 0x30D3 DUP5 PUSH2 0x4004 JUMP JUMPDEST PUSH2 0x3FDF JUMP JUMPDEST SWAP1 POP DUP1 DUP4 DUP3 MSTORE PUSH1 0x20 DUP3 ADD SWAP1 POP DUP3 DUP6 PUSH1 0x20 DUP7 MUL DUP3 ADD GT ISZERO PUSH2 0x30F7 JUMPI PUSH1 0x0 DUP1 REVERT JUMPDEST PUSH1 0x0 JUMPDEST DUP6 DUP2 LT ISZERO PUSH2 0x3127 JUMPI DUP2 PUSH2 0x310D DUP9 DUP3 PUSH2 0x3219 JUMP JUMPDEST DUP5 MSTORE PUSH1 0x20 DUP5 ADD SWAP4 POP PUSH1 0x20 DUP4 ADD SWAP3 POP POP PUSH1 0x1 DUP2 ADD SWAP1 POP PUSH2 0x30FA JUMP JUMPDEST POP POP POP SWAP4 SWAP3 POP POP POP JUMP JUMPDEST PUSH1 0x0 PUSH2 0x3144 PUSH2 0x313F DUP5 PUSH2 0x4030 JUMP JUMPDEST PUSH2 0x3FDF JUMP JUMPDEST SWAP1 POP DUP1 DUP4 DUP3 MSTORE PUSH1 0x20 DUP3 ADD SWAP1 POP DUP3 DUP6 PUSH1 0x20 DUP7 MUL DUP3 ADD GT ISZERO PUSH2 0x3163 JUMPI PUSH1 0x0 DUP1 REVERT JUMPDEST PUSH1 0x0 JUMPDEST DUP6 DUP2 LT ISZERO PUSH2 0x3193 JUMPI DUP2 PUSH2 0x3179 DUP9 DUP3 PUSH2 0x332A JUMP JUMPDEST DUP5 MSTORE PUSH1 0x20 DUP5 ADD SWAP4 POP PUSH1 0x20 DUP4 ADD SWAP3 POP POP PUSH1 0x1 DUP2 ADD SWAP1 POP PUSH2 0x3166 JUMP JUMPDEST POP POP POP SWAP4 SWAP3 POP POP POP JUMP JUMPDEST PUSH1 0x0 PUSH2 0x31B0 PUSH2 0x31AB DUP5 PUSH2 0x405C JUMP JUMPDEST PUSH2 0x3FDF JUMP JUMPDEST SWAP1 POP DUP3 DUP2 MSTORE PUSH1 0x20 DUP2 ADD DUP5 DUP5 DUP5 ADD GT ISZERO PUSH2 0x31C8 JUMPI PUSH1 0x0 DUP1 REVERT JUMPDEST PUSH2 0x31D3 DUP5 DUP3 DUP6 PUSH2 0x44C2 JUMP JUMPDEST POP SWAP4 SWAP3 POP POP POP JUMP JUMPDEST PUSH1 0x0 PUSH2 0x31EE PUSH2 0x31E9 DUP5 PUSH2 0x408D JUMP JUMPDEST PUSH2 0x3FDF JUMP JUMPDEST SWAP1 POP DUP3 DUP2 MSTORE PUSH1 0x20 DUP2 ADD DUP5 DUP5 DUP5 ADD GT ISZERO PUSH2 0x3206 JUMPI PUSH1 0x0 DUP1 REVERT JUMPDEST PUSH2 0x3211 DUP5 DUP3 DUP6 PUSH2 0x44C2 JUMP JUMPDEST POP SWAP4 SWAP3 POP POP POP JUMP JUMPDEST PUSH1 0x0 DUP2 CALLDATALOAD SWAP1 POP PUSH2 0x3228 DUP2 PUSH2 0x4B13 JUMP JUMPDEST SWAP3 SWAP2 POP POP JUMP JUMPDEST PUSH1 0x0 DUP3 PUSH1 0x1F DUP4 ADD SLT PUSH2 0x323F JUMPI PUSH1 0x0 DUP1 REVERT JUMPDEST DUP2 CALLDATALOAD PUSH2 0x324F DUP5 DUP3 PUSH1 0x20 DUP7 ADD PUSH2 0x30C5 JUMP JUMPDEST SWAP2 POP POP SWAP3 SWAP2 POP POP JUMP JUMPDEST PUSH1 0x0 DUP3 PUSH1 0x1F DUP4 ADD SLT PUSH2 0x3269 JUMPI PUSH1 0x0 DUP1 REVERT JUMPDEST DUP2 CALLDATALOAD PUSH2 0x3279 DUP5 DUP3 PUSH1 0x20 DUP7 ADD PUSH2 0x3131 JUMP JUMPDEST SWAP2 POP POP SWAP3 SWAP2 POP POP JUMP JUMPDEST PUSH1 0x0 DUP2 CALLDATALOAD SWAP1 POP PUSH2 0x3291 DUP2 PUSH2 0x4B2A JUMP JUMPDEST SWAP3 SWAP2 POP POP JUMP JUMPDEST PUSH1 0x0 DUP2 CALLDATALOAD SWAP1 POP PUSH2 0x32A6 DUP2 PUSH2 0x4B41 JUMP JUMPDEST SWAP3 SWAP2 POP POP JUMP JUMPDEST PUSH1 0x0 DUP2 MLOAD SWAP1 POP PUSH2 0x32BB DUP2 PUSH2 0x4B41 JUMP JUMPDEST SWAP3 SWAP2 POP POP JUMP JUMPDEST PUSH1 0x0 DUP3 PUSH1 0x1F DUP4 ADD SLT PUSH2 0x32D2 JUMPI PUSH1 0x0 DUP1 REVERT JUMPDEST DUP2 CALLDATALOAD PUSH2 0x32E2 DUP5 DUP3 PUSH1 0x20 DUP7 ADD PUSH2 0x319D JUMP JUMPDEST SWAP2 POP POP SWAP3 SWAP2 POP POP JUMP JUMPDEST PUSH1 0x0 DUP3 PUSH1 0x1F DUP4 ADD SLT PUSH2 0x32FC JUMPI PUSH1 0x0 DUP1 REVERT JUMPDEST DUP2 CALLDATALOAD PUSH2 0x330C DUP5 DUP3 PUSH1 0x20 DUP7 ADD PUSH2 0x31DB JUMP JUMPDEST SWAP2 POP POP SWAP3 SWAP2 POP POP JUMP JUMPDEST PUSH1 0x0 DUP2 CALLDATALOAD SWAP1 POP PUSH2 0x3324 DUP2 PUSH2 0x4B58 JUMP JUMPDEST SWAP3 SWAP2 POP POP JUMP JUMPDEST PUSH1 0x0 DUP2 CALLDATALOAD SWAP1 POP PUSH2 0x3339 DUP2 PUSH2 0x4B6F JUMP JUMPDEST SWAP3 SWAP2 POP POP JUMP JUMPDEST PUSH1 0x0 DUP2 CALLDATALOAD SWAP1 POP PUSH2 0x334E DUP2 PUSH2 0x4B86 JUMP JUMPDEST SWAP3 SWAP2 POP POP JUMP JUMPDEST PUSH1 0x0 PUSH1 0x20 DUP3 DUP5 SUB SLT ISZERO PUSH2 0x3366 JUMPI PUSH1 0x0 DUP1 REVERT JUMPDEST PUSH1 0x0 PUSH2 0x3374 DUP5 DUP3 DUP6 ADD PUSH2 0x3219 JUMP JUMPDEST SWAP2 POP POP SWAP3 SWAP2 POP POP JUMP JUMPDEST PUSH1 0x0 DUP1 PUSH1 0x40 DUP4 DUP6 SUB SLT ISZERO PUSH2 0x3390 JUMPI PUSH1 0x0 DUP1 REVERT JUMPDEST PUSH1 0x0 PUSH2 0x339E DUP6 DUP3 DUP7 ADD PUSH2 0x3219 JUMP JUMPDEST SWAP3 POP POP PUSH1 0x20 PUSH2 0x33AF DUP6 DUP3 DUP7 ADD PUSH2 0x3219 JUMP JUMPDEST SWAP2 POP POP SWAP3 POP SWAP3 SWAP1 POP JUMP JUMPDEST PUSH1 0x0 DUP1 PUSH1 0x0 DUP1 PUSH1 0x0 PUSH1 0xA0 DUP7 DUP9 SUB SLT ISZERO PUSH2 0x33D1 JUMPI PUSH1 0x0 DUP1 REVERT JUMPDEST PUSH1 0x0 PUSH2 0x33DF DUP9 DUP3 DUP10 ADD PUSH2 0x3219 JUMP JUMPDEST SWAP6 POP POP PUSH1 0x20 PUSH2 0x33F0 DUP9 DUP3 DUP10 ADD PUSH2 0x3219 JUMP JUMPDEST SWAP5 POP POP PUSH1 0x40 DUP7 ADD CALLDATALOAD PUSH8 0xFFFFFFFFFFFFFFFF DUP2 GT ISZERO PUSH2 0x340D JUMPI PUSH1 0x0 DUP1 REVERT JUMPDEST PUSH2 0x3419 DUP9 DUP3 DUP10 ADD PUSH2 0x3258 JUMP JUMPDEST SWAP4 POP POP PUSH1 0x60 DUP7 ADD CALLDATALOAD PUSH8 0xFFFFFFFFFFFFFFFF DUP2 GT ISZERO PUSH2 0x3436 JUMPI PUSH1 0x0 DUP1 REVERT JUMPDEST PUSH2 0x3442 DUP9 DUP3 DUP10 ADD PUSH2 0x3258 JUMP JUMPDEST SWAP3 POP POP PUSH1 0x80 DUP7 ADD CALLDATALOAD PUSH8 0xFFFFFFFFFFFFFFFF DUP2 GT ISZERO PUSH2 0x345F JUMPI PUSH1 0x0 DUP1 REVERT JUMPDEST PUSH2 0x346B DUP9 DUP3 DUP10 ADD PUSH2 0x32C1 JUMP JUMPDEST SWAP2 POP POP SWAP3 SWAP6 POP SWAP3 SWAP6 SWAP1 SWAP4 POP JUMP JUMPDEST PUSH1 0x0 DUP1 PUSH1 0x0 DUP1 PUSH1 0x0 PUSH1 0xA0 DUP7 DUP9 SUB SLT ISZERO PUSH2 0x3490 JUMPI PUSH1 0x0 DUP1 REVERT JUMPDEST PUSH1 0x0 PUSH2 0x349E DUP9 DUP3 DUP10 ADD PUSH2 0x3219 JUMP JUMPDEST SWAP6 POP POP PUSH1 0x20 PUSH2 0x34AF DUP9 DUP3 DUP10 ADD PUSH2 0x3219 JUMP JUMPDEST SWAP5 POP POP PUSH1 0x40 PUSH2 0x34C0 DUP9 DUP3 DUP10 ADD PUSH2 0x332A JUMP JUMPDEST SWAP4 POP POP PUSH1 0x60 PUSH2 0x34D1 DUP9 DUP3 DUP10 ADD PUSH2 0x332A JUMP JUMPDEST SWAP3 POP POP PUSH1 0x80 DUP7 ADD CALLDATALOAD PUSH8 0xFFFFFFFFFFFFFFFF DUP2 GT ISZERO PUSH2 0x34EE JUMPI PUSH1 0x0 DUP1 REVERT JUMPDEST PUSH2 0x34FA DUP9 DUP3 DUP10 ADD PUSH2 0x32C1 JUMP JUMPDEST SWAP2 POP POP SWAP3 SWAP6 POP SWAP3 SWAP6 SWAP1 SWAP4 POP JUMP JUMPDEST PUSH1 0x0 DUP1 PUSH1 0x40 DUP4 DUP6 SUB SLT ISZERO PUSH2 0x351A JUMPI PUSH1 0x0 DUP1 REVERT JUMPDEST PUSH1 0x0 PUSH2 0x3528 DUP6 DUP3 DUP7 ADD PUSH2 0x3219 JUMP JUMPDEST SWAP3 POP POP PUSH1 0x20 PUSH2 0x3539 DUP6 DUP3 DUP7 ADD PUSH2 0x3282 JUMP JUMPDEST SWAP2 POP POP SWAP3 POP SWAP3 SWAP1 POP JUMP JUMPDEST PUSH1 0x0 DUP1 PUSH1 0x40 DUP4 DUP6 SUB SLT ISZERO PUSH2 0x3556 JUMPI PUSH1 0x0 DUP1 REVERT JUMPDEST PUSH1 0x0 PUSH2 0x3564 DUP6 DUP3 DUP7 ADD PUSH2 0x3219 JUMP JUMPDEST SWAP3 POP POP PUSH1 0x20 DUP4 ADD CALLDATALOAD PUSH8 0xFFFFFFFFFFFFFFFF DUP2 GT ISZERO PUSH2 0x3581 JUMPI PUSH1 0x0 DUP1 REVERT JUMPDEST PUSH2 0x358D DUP6 DUP3 DUP7 ADD PUSH2 0x32EB JUMP JUMPDEST SWAP2 POP POP SWAP3 POP SWAP3 SWAP1 POP JUMP JUMPDEST PUSH1 0x0 DUP1 PUSH1 0x40 DUP4 DUP6 SUB SLT ISZERO PUSH2 0x35AA JUMPI PUSH1 0x0 DUP1 REVERT JUMPDEST PUSH1 0x0 PUSH2 0x35B8 DUP6 DUP3 DUP7 ADD PUSH2 0x3219 JUMP JUMPDEST SWAP3 POP POP PUSH1 0x20 PUSH2 0x35C9 DUP6 DUP3 DUP7 ADD PUSH2 0x332A JUMP JUMPDEST SWAP2 POP POP SWAP3 POP SWAP3 SWAP1 POP JUMP JUMPDEST PUSH1 0x0 DUP1 PUSH1 0x40 DUP4 DUP6 SUB SLT ISZERO PUSH2 0x35E6 JUMPI PUSH1 0x0 DUP1 REVERT JUMPDEST PUSH1 0x0 DUP4 ADD CALLDATALOAD PUSH8 0xFFFFFFFFFFFFFFFF DUP2 GT ISZERO PUSH2 0x3600 JUMPI PUSH1 0x0 DUP1 REVERT JUMPDEST PUSH2 0x360C DUP6 DUP3 DUP7 ADD PUSH2 0x322E JUMP JUMPDEST SWAP3 POP POP PUSH1 0x20 DUP4 ADD CALLDATALOAD PUSH8 0xFFFFFFFFFFFFFFFF DUP2 GT ISZERO PUSH2 0x3629 JUMPI PUSH1 0x0 DUP1 REVERT JUMPDEST PUSH2 0x3635 DUP6 DUP3 DUP7 ADD PUSH2 0x3258 JUMP JUMPDEST SWAP2 POP POP SWAP3 POP SWAP3 SWAP1 POP JUMP JUMPDEST PUSH1 0x0 PUSH1 0x20 DUP3 DUP5 SUB SLT ISZERO PUSH2 0x3651 JUMPI PUSH1 0x0 DUP1 REVERT JUMPDEST PUSH1 0x0 PUSH2 0x365F DUP5 DUP3 DUP6 ADD PUSH2 0x3297 JUMP JUMPDEST SWAP2 POP POP SWAP3 SWAP2 POP POP JUMP JUMPDEST PUSH1 0x0 PUSH1 0x20 DUP3 DUP5 SUB SLT ISZERO PUSH2 0x367A JUMPI PUSH1 0x0 DUP1 REVERT JUMPDEST PUSH1 0x0 PUSH2 0x3688 DUP5 DUP3 DUP6 ADD PUSH2 0x32AC JUMP JUMPDEST SWAP2 POP POP SWAP3 SWAP2 POP POP JUMP JUMPDEST PUSH1 0x0 PUSH1 0x20 DUP3 DUP5 SUB SLT ISZERO PUSH2 0x36A3 JUMPI PUSH1 0x0 DUP1 REVERT JUMPDEST PUSH1 0x0 PUSH2 0x36B1 DUP5 DUP3 DUP6 ADD PUSH2 0x3315 JUMP JUMPDEST SWAP2 POP POP SWAP3 SWAP2 POP POP JUMP JUMPDEST PUSH1 0x0 DUP1 PUSH1 0x40 DUP4 DUP6 SUB SLT ISZERO PUSH2 0x36CD JUMPI PUSH1 0x0 DUP1 REVERT JUMPDEST PUSH1 0x0 PUSH2 0x36DB DUP6 DUP3 DUP7 ADD PUSH2 0x3315 JUMP JUMPDEST SWAP3 POP POP PUSH1 0x20 DUP4 ADD CALLDATALOAD PUSH8 0xFFFFFFFFFFFFFFFF DUP2 GT ISZERO PUSH2 0x36F8 JUMPI PUSH1 0x0 DUP1 REVERT JUMPDEST PUSH2 0x3704 DUP6 DUP3 DUP7 ADD PUSH2 0x32EB JUMP JUMPDEST SWAP2 POP POP SWAP3 POP SWAP3 SWAP1 POP JUMP JUMPDEST PUSH1 0x0 DUP1 PUSH1 0x40 DUP4 DUP6 SUB SLT ISZERO PUSH2 0x3721 JUMPI PUSH1 0x0 DUP1 REVERT JUMPDEST PUSH1 0x0 PUSH2 0x372F DUP6 DUP3 DUP7 ADD PUSH2 0x3315 JUMP JUMPDEST SWAP3 POP POP PUSH1 0x20 PUSH2 0x3740 DUP6 DUP3 DUP7 ADD PUSH2 0x332A JUMP JUMPDEST SWAP2 POP POP SWAP3 POP SWAP3 SWAP1 POP JUMP JUMPDEST PUSH1 0x0 DUP1 PUSH1 0x0 DUP1 PUSH1 0x80 DUP6 DUP8 SUB SLT ISZERO PUSH2 0x3760 JUMPI PUSH1 0x0 DUP1 REVERT JUMPDEST PUSH1 0x0 PUSH2 0x376E DUP8 DUP3 DUP9 ADD PUSH2 0x3315 JUMP JUMPDEST SWAP5 POP POP PUSH1 0x20 PUSH2 0x377F DUP8 DUP3 DUP9 ADD PUSH2 0x333F JUMP JUMPDEST SWAP4 POP POP PUSH1 0x40 PUSH2 0x3790 DUP8 DUP3 DUP9 ADD PUSH2 0x332A JUMP JUMPDEST SWAP3 POP POP PUSH1 0x60 DUP6 ADD CALLDATALOAD PUSH8 0xFFFFFFFFFFFFFFFF DUP2 GT ISZERO PUSH2 0x37AD JUMPI PUSH1 0x0 DUP1 REVERT JUMPDEST PUSH2 0x37B9 DUP8 DUP3 DUP9 ADD PUSH2 0x32EB JUMP JUMPDEST SWAP2 POP POP SWAP3 SWAP6 SWAP2 SWAP5 POP SWAP3 POP JUMP JUMPDEST PUSH1 0x0 PUSH1 0x20 DUP3 DUP5 SUB SLT ISZERO PUSH2 0x37D7 JUMPI PUSH1 0x0 DUP1 REVERT JUMPDEST PUSH1 0x0 PUSH2 0x37E5 DUP5 DUP3 DUP6 ADD PUSH2 0x332A JUMP JUMPDEST SWAP2 POP POP SWAP3 SWAP2 POP POP JUMP JUMPDEST PUSH1 0x0 PUSH1 0x20 DUP3 DUP5 SUB SLT ISZERO PUSH2 0x3800 JUMPI PUSH1 0x0 DUP1 REVERT JUMPDEST PUSH1 0x0 PUSH2 0x380E DUP5 DUP3 DUP6 ADD PUSH2 0x333F JUMP JUMPDEST SWAP2 POP POP SWAP3 SWAP2 POP POP JUMP JUMPDEST PUSH1 0x0 DUP1 PUSH1 0x40 DUP4 DUP6 SUB SLT ISZERO PUSH2 0x382A JUMPI PUSH1 0x0 DUP1 REVERT JUMPDEST PUSH1 0x0 PUSH2 0x3838 DUP6 DUP3 DUP7 ADD PUSH2 0x333F JUMP JUMPDEST SWAP3 POP POP PUSH1 0x20 DUP4 ADD CALLDATALOAD PUSH8 0xFFFFFFFFFFFFFFFF DUP2 GT ISZERO PUSH2 0x3855 JUMPI PUSH1 0x0 DUP1 REVERT JUMPDEST PUSH2 0x3861 DUP6 DUP3 DUP7 ADD PUSH2 0x32EB JUMP JUMPDEST SWAP2 POP POP SWAP3 POP SWAP3 SWAP1 POP JUMP JUMPDEST PUSH1 0x0 PUSH2 0x3877 DUP4 DUP4 PUSH2 0x3B33 JUMP JUMPDEST PUSH1 0x20 DUP4 ADD SWAP1 POP SWAP3 SWAP2 POP POP JUMP JUMPDEST PUSH2 0x388C DUP2 PUSH2 0x4421 JUMP JUMPDEST DUP3 MSTORE POP POP JUMP JUMPDEST PUSH1 0x0 PUSH2 0x389D DUP3 PUSH2 0x40CE JUMP JUMPDEST PUSH2 0x38A7 DUP2 DUP6 PUSH2 0x40FC JUMP JUMPDEST SWAP4 POP PUSH2 0x38B2 DUP4 PUSH2 0x40BE JUMP JUMPDEST DUP1 PUSH1 0x0 JUMPDEST DUP4 DUP2 LT ISZERO PUSH2 0x38E3 JUMPI DUP2 MLOAD PUSH2 0x38CA DUP9 DUP3 PUSH2 0x386B JUMP JUMPDEST SWAP8 POP PUSH2 0x38D5 DUP4 PUSH2 0x40EF JUMP JUMPDEST SWAP3 POP POP PUSH1 0x1 DUP2 ADD SWAP1 POP PUSH2 0x38B6 JUMP JUMPDEST POP DUP6 SWAP4 POP POP POP POP SWAP3 SWAP2 POP POP JUMP JUMPDEST PUSH2 0x38F9 DUP2 PUSH2 0x4433 JUMP JUMPDEST DUP3 MSTORE POP POP JUMP JUMPDEST PUSH1 0x0 PUSH2 0x390A DUP3 PUSH2 0x40D9 JUMP JUMPDEST PUSH2 0x3914 DUP2 DUP6 PUSH2 0x410D JUMP JUMPDEST SWAP4 POP PUSH2 0x3924 DUP2 DUP6 PUSH1 0x20 DUP7 ADD PUSH2 0x44D1 JUMP JUMPDEST PUSH2 0x392D DUP2 PUSH2 0x46EA JUMP JUMPDEST DUP5 ADD SWAP2 POP POP SWAP3 SWAP2 POP POP JUMP JUMPDEST PUSH2 0x3941 DUP2 PUSH2 0x44B0 JUMP JUMPDEST DUP3 MSTORE POP POP JUMP JUMPDEST PUSH1 0x0 PUSH2 0x3952 DUP3 PUSH2 0x40E4 JUMP JUMPDEST PUSH2 0x395C DUP2 DUP6 PUSH2 0x411E JUMP JUMPDEST SWAP4 POP PUSH2 0x396C DUP2 DUP6 PUSH1 0x20 DUP7 ADD PUSH2 0x44D1 JUMP JUMPDEST PUSH2 0x3975 DUP2 PUSH2 0x46EA JUMP JUMPDEST DUP5 ADD SWAP2 POP POP SWAP3 SWAP2 POP POP JUMP JUMPDEST PUSH1 0x0 PUSH2 0x398D PUSH1 0x28 DUP4 PUSH2 0x411E JUMP JUMPDEST SWAP2 POP PUSH2 0x3998 DUP3 PUSH2 0x4715 JUMP JUMPDEST PUSH1 0x40 DUP3 ADD SWAP1 POP SWAP2 SWAP1 POP JUMP JUMPDEST PUSH1 0x0 PUSH2 0x39B0 PUSH1 0x1F DUP4 PUSH2 0x411E JUMP JUMPDEST SWAP2 POP PUSH2 0x39BB DUP3 PUSH2 0x4764 JUMP JUMPDEST PUSH1 0x20 DUP3 ADD SWAP1 POP SWAP2 SWAP1 POP JUMP JUMPDEST PUSH1 0x0 PUSH2 0x39D3 PUSH1 0x2A DUP4 PUSH2 0x411E JUMP JUMPDEST SWAP2 POP PUSH2 0x39DE DUP3 PUSH2 0x478D JUMP JUMPDEST PUSH1 0x40 DUP3 ADD SWAP1 POP SWAP2 SWAP1 POP JUMP JUMPDEST PUSH1 0x0 PUSH2 0x39F6 PUSH1 0x2E DUP4 PUSH2 0x411E JUMP JUMPDEST SWAP2 POP PUSH2 0x3A01 DUP3 PUSH2 0x47DC JUMP JUMPDEST PUSH1 0x40 DUP3 ADD SWAP1 POP SWAP2 SWAP1 POP JUMP JUMPDEST PUSH1 0x0 PUSH2 0x3A19 PUSH1 0x25 DUP4 PUSH2 0x411E JUMP JUMPDEST SWAP2 POP PUSH2 0x3A24 DUP3 PUSH2 0x482B JUMP JUMPDEST PUSH1 0x40 DUP3 ADD SWAP1 POP SWAP2 SWAP1 POP JUMP JUMPDEST PUSH1 0x0 PUSH2 0x3A3C PUSH1 0x2A DUP4 PUSH2 0x411E JUMP JUMPDEST SWAP2 POP PUSH2 0x3A47 DUP3 PUSH2 0x487A JUMP JUMPDEST PUSH1 0x40 DUP3 ADD SWAP1 POP SWAP2 SWAP1 POP JUMP JUMPDEST PUSH1 0x0 PUSH2 0x3A5F PUSH1 0x29 DUP4 PUSH2 0x411E JUMP JUMPDEST SWAP2 POP PUSH2 0x3A6A DUP3 PUSH2 0x48C9 JUMP JUMPDEST PUSH1 0x40 DUP3 ADD SWAP1 POP SWAP2 SWAP1 POP JUMP JUMPDEST PUSH1 0x0 PUSH2 0x3A82 PUSH1 0x29 DUP4 PUSH2 0x411E JUMP JUMPDEST SWAP2 POP PUSH2 0x3A8D DUP3 PUSH2 0x4918 JUMP JUMPDEST PUSH1 0x40 DUP3 ADD SWAP1 POP SWAP2 SWAP1 POP JUMP JUMPDEST PUSH1 0x0 PUSH2 0x3AA5 PUSH1 0x28 DUP4 PUSH2 0x411E JUMP JUMPDEST SWAP2 POP PUSH2 0x3AB0 DUP3 PUSH2 0x4967 JUMP JUMPDEST PUSH1 0x40 DUP3 ADD SWAP1 POP SWAP2 SWAP1 POP JUMP JUMPDEST PUSH1 0x0 PUSH2 0x3AC8 PUSH1 0x21 DUP4 PUSH2 0x411E JUMP JUMPDEST SWAP2 POP PUSH2 0x3AD3 DUP3 PUSH2 0x49B6 JUMP JUMPDEST PUSH1 0x40 DUP3 ADD SWAP1 POP SWAP2 SWAP1 POP JUMP JUMPDEST PUSH1 0x0 PUSH2 0x3AEB PUSH1 0x17 DUP4 PUSH2 0x411E JUMP JUMPDEST SWAP2 POP PUSH2 0x3AF6 DUP3 PUSH2 0x4A05 JUMP JUMPDEST PUSH1 0x20 DUP3 ADD SWAP1 POP SWAP2 SWAP1 POP JUMP JUMPDEST PUSH1 0x0 PUSH2 0x3B0E PUSH1 0x34 DUP4 PUSH2 0x411E JUMP JUMPDEST SWAP2 POP PUSH2 0x3B19 DUP3 PUSH2 0x4A2E JUMP JUMPDEST PUSH1 0x40 DUP3 ADD SWAP1 POP SWAP2 SWAP1 POP JUMP JUMPDEST PUSH2 0x3B2D DUP2 PUSH2 0x446B JUMP JUMPDEST DUP3 MSTORE POP POP JUMP JUMPDEST PUSH2 0x3B3C DUP2 PUSH2 0x4499 JUMP JUMPDEST DUP3 MSTORE POP POP JUMP JUMPDEST PUSH2 0x3B4B DUP2 PUSH2 0x4499 JUMP JUMPDEST DUP3 MSTORE POP POP JUMP JUMPDEST PUSH2 0x3B5A DUP2 PUSH2 0x44A3 JUMP JUMPDEST DUP3 MSTORE POP POP JUMP JUMPDEST PUSH1 0x0 PUSH1 0xA0 DUP3 ADD SWAP1 POP PUSH2 0x3B75 PUSH1 0x0 DUP4 ADD DUP9 PUSH2 0x3883 JUMP JUMPDEST PUSH2 0x3B82 PUSH1 0x20 DUP4 ADD DUP8 PUSH2 0x3883 JUMP JUMPDEST DUP2 DUP2 SUB PUSH1 0x40 DUP4 ADD MSTORE PUSH2 0x3B94 DUP2 DUP7 PUSH2 0x3892 JUMP JUMPDEST SWAP1 POP DUP2 DUP2 SUB PUSH1 0x60 DUP4 ADD MSTORE PUSH2 0x3BA8 DUP2 DUP6 PUSH2 0x3892 JUMP JUMPDEST SWAP1 POP DUP2 DUP2 SUB PUSH1 0x80 DUP4 ADD MSTORE PUSH2 0x3BBC DUP2 DUP5 PUSH2 0x38FF JUMP JUMPDEST SWAP1 POP SWAP7 SWAP6 POP POP POP POP POP POP JUMP JUMPDEST PUSH1 0x0 PUSH1 0xA0 DUP3 ADD SWAP1 POP PUSH2 0x3BDD PUSH1 0x0 DUP4 ADD DUP9 PUSH2 0x3883 JUMP JUMPDEST PUSH2 0x3BEA PUSH1 0x20 DUP4 ADD DUP8 PUSH2 0x3883 JUMP JUMPDEST PUSH2 0x3BF7 PUSH1 0x40 DUP4 ADD DUP7 PUSH2 0x3B42 JUMP JUMPDEST PUSH2 0x3C04 PUSH1 0x60 DUP4 ADD DUP6 PUSH2 0x3B42 JUMP JUMPDEST DUP2 DUP2 SUB PUSH1 0x80 DUP4 ADD MSTORE PUSH2 0x3C16 DUP2 DUP5 PUSH2 0x38FF JUMP JUMPDEST SWAP1 POP SWAP7 SWAP6 POP POP POP POP POP POP JUMP JUMPDEST PUSH1 0x0 PUSH1 0x20 DUP3 ADD SWAP1 POP DUP2 DUP2 SUB PUSH1 0x0 DUP4 ADD MSTORE PUSH2 0x3C3C DUP2 DUP5 PUSH2 0x3892 JUMP JUMPDEST SWAP1 POP SWAP3 SWAP2 POP POP JUMP JUMPDEST PUSH1 0x0 PUSH1 0x40 DUP3 ADD SWAP1 POP DUP2 DUP2 SUB PUSH1 0x0 DUP4 ADD MSTORE PUSH2 0x3C5E DUP2 DUP6 PUSH2 0x3892 JUMP JUMPDEST SWAP1 POP DUP2 DUP2 SUB PUSH1 0x20 DUP4 ADD MSTORE PUSH2 0x3C72 DUP2 DUP5 PUSH2 0x3892 JUMP JUMPDEST SWAP1 POP SWAP4 SWAP3 POP POP POP JUMP JUMPDEST PUSH1 0x0 PUSH1 0x20 DUP3 ADD SWAP1 POP PUSH2 0x3C90 PUSH1 0x0 DUP4 ADD DUP5 PUSH2 0x38F0 JUMP JUMPDEST SWAP3 SWAP2 POP POP JUMP JUMPDEST PUSH1 0x0 PUSH1 0x20 DUP3 ADD SWAP1 POP PUSH2 0x3CAB PUSH1 0x0 DUP4 ADD DUP5 PUSH2 0x3938 JUMP JUMPDEST SWAP3 SWAP2 POP POP JUMP JUMPDEST PUSH1 0x0 PUSH1 0x20 DUP3 ADD SWAP1 POP DUP2 DUP2 SUB PUSH1 0x0 DUP4 ADD MSTORE PUSH2 0x3CCB DUP2 DUP5 PUSH2 0x3947 JUMP JUMPDEST SWAP1 POP SWAP3 SWAP2 POP POP JUMP JUMPDEST PUSH1 0x0 PUSH1 0x80 DUP3 ADD SWAP1 POP DUP2 DUP2 SUB PUSH1 0x0 DUP4 ADD MSTORE PUSH2 0x3CED DUP2 DUP8 PUSH2 0x3947 JUMP JUMPDEST SWAP1 POP PUSH2 0x3CFC PUSH1 0x20 DUP4 ADD DUP7 PUSH2 0x3B24 JUMP JUMPDEST PUSH2 0x3D09 PUSH1 0x40 DUP4 ADD DUP6 PUSH2 0x3B42 JUMP JUMPDEST DUP2 DUP2 SUB PUSH1 0x60 DUP4 ADD MSTORE PUSH2 0x3D1B DUP2 DUP5 PUSH2 0x3947 JUMP JUMPDEST SWAP1 POP SWAP6 SWAP5 POP POP POP POP POP JUMP JUMPDEST PUSH1 0x0 PUSH1 0x20 DUP3 ADD SWAP1 POP DUP2 DUP2 SUB PUSH1 0x0 DUP4 ADD MSTORE PUSH2 0x3D3F DUP2 PUSH2 0x3980 JUMP JUMPDEST SWAP1 POP SWAP2 SWAP1 POP JUMP JUMPDEST PUSH1 0x0 PUSH1 0x20 DUP3 ADD SWAP1 POP DUP2 DUP2 SUB PUSH1 0x0 DUP4 ADD MSTORE PUSH2 0x3D5F DUP2 PUSH2 0x39A3 JUMP JUMPDEST SWAP1 POP SWAP2 SWAP1 POP JUMP JUMPDEST PUSH1 0x0 PUSH1 0x20 DUP3 ADD SWAP1 POP DUP2 DUP2 SUB PUSH1 0x0 DUP4 ADD MSTORE PUSH2 0x3D7F DUP2 PUSH2 0x39C6 JUMP JUMPDEST SWAP1 POP SWAP2 SWAP1 POP JUMP JUMPDEST PUSH1 0x0 PUSH1 0x20 DUP3 ADD SWAP1 POP DUP2 DUP2 SUB PUSH1 0x0 DUP4 ADD MSTORE PUSH2 0x3D9F DUP2 PUSH2 0x39E9 JUMP JUMPDEST SWAP1 POP SWAP2 SWAP1 POP JUMP JUMPDEST PUSH1 0x0 PUSH1 0x20 DUP3 ADD SWAP1 POP DUP2 DUP2 SUB PUSH1 0x0 DUP4 ADD MSTORE PUSH2 0x3DBF DUP2 PUSH2 0x3A0C JUMP JUMPDEST SWAP1 POP SWAP2 SWAP1 POP JUMP JUMPDEST PUSH1 0x0 PUSH1 0x20 DUP3 ADD SWAP1 POP DUP2 DUP2 SUB PUSH1 0x0 DUP4 ADD MSTORE PUSH2 0x3DDF DUP2 PUSH2 0x3A2F JUMP JUMPDEST SWAP1 POP SWAP2 SWAP1 POP JUMP JUMPDEST PUSH1 0x0 PUSH1 0x20 DUP3 ADD SWAP1 POP DUP2 DUP2 SUB PUSH1 0x0 DUP4 ADD MSTORE PUSH2 0x3DFF DUP2 PUSH2 0x3A52 JUMP JUMPDEST SWAP1 POP SWAP2 SWAP1 POP JUMP JUMPDEST PUSH1 0x0 PUSH1 0x20 DUP3 ADD SWAP1 POP DUP2 DUP2 SUB PUSH1 0x0 DUP4 ADD MSTORE PUSH2 0x3E1F DUP2 PUSH2 0x3A75 JUMP JUMPDEST SWAP1 POP SWAP2 SWAP1 POP JUMP JUMPDEST PUSH1 0x0 PUSH1 0x20 DUP3 ADD SWAP1 POP DUP2 DUP2 SUB PUSH1 0x0 DUP4 ADD MSTORE PUSH2 0x3E3F DUP2 PUSH2 0x3A98 JUMP JUMPDEST SWAP1 POP SWAP2 SWAP1 POP JUMP JUMPDEST PUSH1 0x0 PUSH1 0x20 DUP3 ADD SWAP1 POP DUP2 DUP2 SUB PUSH1 0x0 DUP4 ADD MSTORE PUSH2 0x3E5F DUP2 PUSH2 0x3ABB JUMP JUMPDEST SWAP1 POP SWAP2 SWAP1 POP JUMP JUMPDEST PUSH1 0x0 PUSH1 0x20 DUP3 ADD SWAP1 POP DUP2 DUP2 SUB PUSH1 0x0 DUP4 ADD MSTORE PUSH2 0x3E7F DUP2 PUSH2 0x3ADE JUMP JUMPDEST SWAP1 POP SWAP2 SWAP1 POP JUMP JUMPDEST PUSH1 0x0 PUSH1 0x20 DUP3 ADD SWAP1 POP DUP2 DUP2 SUB PUSH1 0x0 DUP4 ADD MSTORE PUSH2 0x3E9F DUP2 PUSH2 0x3B01 JUMP JUMPDEST SWAP1 POP SWAP2 SWAP1 POP JUMP JUMPDEST PUSH1 0x0 PUSH1 0x20 DUP3 ADD SWAP1 POP PUSH2 0x3EBB PUSH1 0x0 DUP4 ADD DUP5 PUSH2 0x3B24 JUMP JUMPDEST SWAP3 SWAP2 POP POP JUMP JUMPDEST PUSH1 0x0 PUSH2 0x140 DUP3 ADD SWAP1 POP PUSH2 0x3ED7 PUSH1 0x0 DUP4 ADD DUP14 PUSH2 0x3B24 JUMP JUMPDEST PUSH2 0x3EE4 PUSH1 0x20 DUP4 ADD DUP13 PUSH2 0x3B42 JUMP JUMPDEST PUSH2 0x3EF1 PUSH1 0x40 DUP4 ADD DUP12 PUSH2 0x3B24 JUMP JUMPDEST PUSH2 0x3EFE PUSH1 0x60 DUP4 ADD DUP11 PUSH2 0x3B24 JUMP JUMPDEST PUSH2 0x3F0B PUSH1 0x80 DUP4 ADD DUP10 PUSH2 0x3B24 JUMP JUMPDEST PUSH2 0x3F18 PUSH1 0xA0 DUP4 ADD DUP9 PUSH2 0x3B24 JUMP JUMPDEST PUSH2 0x3F25 PUSH1 0xC0 DUP4 ADD DUP8 PUSH2 0x3B24 JUMP JUMPDEST PUSH2 0x3F32 PUSH1 0xE0 DUP4 ADD DUP7 PUSH2 0x3B24 JUMP JUMPDEST PUSH2 0x3F40 PUSH2 0x100 DUP4 ADD DUP6 PUSH2 0x3B24 JUMP JUMPDEST PUSH2 0x3F4E PUSH2 0x120 DUP4 ADD DUP5 PUSH2 0x3B24 JUMP JUMPDEST SWAP12 SWAP11 POP POP POP POP POP POP POP POP POP POP POP JUMP JUMPDEST PUSH1 0x0 PUSH1 0x20 DUP3 ADD SWAP1 POP PUSH2 0x3F72 PUSH1 0x0 DUP4 ADD DUP5 PUSH2 0x3B42 JUMP JUMPDEST SWAP3 SWAP2 POP POP JUMP JUMPDEST PUSH1 0x0 PUSH1 0x40 DUP3 ADD SWAP1 POP PUSH2 0x3F8D PUSH1 0x0 DUP4 ADD DUP6 PUSH2 0x3B42 JUMP JUMPDEST PUSH2 0x3F9A PUSH1 0x20 DUP4 ADD DUP5 PUSH2 0x3B42 JUMP JUMPDEST SWAP4 SWAP3 POP POP POP JUMP JUMPDEST PUSH1 0x0 PUSH1 0x60 DUP3 ADD SWAP1 POP PUSH2 0x3FB6 PUSH1 0x0 DUP4 ADD DUP7 PUSH2 0x3B51 JUMP JUMPDEST PUSH2 0x3FC3 PUSH1 0x20 DUP4 ADD DUP6 PUSH2 0x3B42 JUMP JUMPDEST DUP2 DUP2 SUB PUSH1 0x40 DUP4 ADD MSTORE PUSH2 0x3FD5 DUP2 DUP5 PUSH2 0x3947 JUMP JUMPDEST SWAP1 POP SWAP5 SWAP4 POP POP POP POP JUMP JUMPDEST PUSH1 0x0 PUSH2 0x3FE9 PUSH2 0x3FFA JUMP JUMPDEST SWAP1 POP PUSH2 0x3FF5 DUP3 DUP3 PUSH2 0x4536 JUMP JUMPDEST SWAP2 SWAP1 POP JUMP JUMPDEST PUSH1 0x0 PUSH1 0x40 MLOAD SWAP1 POP SWAP1 JUMP JUMPDEST PUSH1 0x0 PUSH8 0xFFFFFFFFFFFFFFFF DUP3 GT ISZERO PUSH2 0x401F JUMPI PUSH2 0x401E PUSH2 0x4699 JUMP JUMPDEST JUMPDEST PUSH1 0x20 DUP3 MUL SWAP1 POP PUSH1 0x20 DUP2 ADD SWAP1 POP SWAP2 SWAP1 POP JUMP JUMPDEST PUSH1 0x0 PUSH8 0xFFFFFFFFFFFFFFFF DUP3 GT ISZERO PUSH2 0x404B JUMPI PUSH2 0x404A PUSH2 0x4699 JUMP JUMPDEST JUMPDEST PUSH1 0x20 DUP3 MUL SWAP1 POP PUSH1 0x20 DUP2 ADD SWAP1 POP SWAP2 SWAP1 POP JUMP JUMPDEST PUSH1 0x0 PUSH8 0xFFFFFFFFFFFFFFFF DUP3 GT ISZERO PUSH2 0x4077 JUMPI PUSH2 0x4076 PUSH2 0x4699 JUMP JUMPDEST JUMPDEST PUSH2 0x4080 DUP3 PUSH2 0x46EA JUMP JUMPDEST SWAP1 POP PUSH1 0x20 DUP2 ADD SWAP1 POP SWAP2 SWAP1 POP JUMP JUMPDEST PUSH1 0x0 PUSH8 0xFFFFFFFFFFFFFFFF DUP3 GT ISZERO PUSH2 0x40A8 JUMPI PUSH2 0x40A7 PUSH2 0x4699 JUMP JUMPDEST JUMPDEST PUSH2 0x40B1 DUP3 PUSH2 0x46EA JUMP JUMPDEST SWAP1 POP PUSH1 0x20 DUP2 ADD SWAP1 POP SWAP2 SWAP1 POP JUMP JUMPDEST PUSH1 0x0 DUP2 SWAP1 POP PUSH1 0x20 DUP3 ADD SWAP1 POP SWAP2 SWAP1 POP JUMP JUMPDEST PUSH1 0x0 DUP2 MLOAD SWAP1 POP SWAP2 SWAP1 POP JUMP JUMPDEST PUSH1 0x0 DUP2 MLOAD SWAP1 POP SWAP2 SWAP1 POP JUMP JUMPDEST PUSH1 0x0 DUP2 MLOAD SWAP1 POP SWAP2 SWAP1 POP JUMP JUMPDEST PUSH1 0x0 PUSH1 0x20 DUP3 ADD SWAP1 POP SWAP2 SWAP1 POP JUMP JUMPDEST PUSH1 0x0 DUP3 DUP3 MSTORE PUSH1 0x20 DUP3 ADD SWAP1 POP SWAP3 SWAP2 POP POP JUMP JUMPDEST PUSH1 0x0 DUP3 DUP3 MSTORE PUSH1 0x20 DUP3 ADD SWAP1 POP SWAP3 SWAP2 POP POP JUMP JUMPDEST PUSH1 0x0 DUP3 DUP3 MSTORE PUSH1 0x20 DUP3 ADD SWAP1 POP SWAP3 SWAP2 POP POP JUMP JUMPDEST PUSH1 0x0 PUSH2 0x413A DUP3 PUSH2 0x446B JUMP JUMPDEST SWAP2 POP PUSH2 0x4145 DUP4 PUSH2 0x446B JUMP JUMPDEST SWAP3 POP DUP3 PUSH2 0xFFFF SUB DUP3 GT ISZERO PUSH2 0x415C JUMPI PUSH2 0x415B PUSH2 0x460C JUMP JUMPDEST JUMPDEST DUP3 DUP3 ADD SWAP1 POP SWAP3 SWAP2 POP POP JUMP JUMPDEST PUSH1 0x0 PUSH2 0x4172 DUP3 PUSH2 0x4499 JUMP JUMPDEST SWAP2 POP PUSH2 0x417D DUP4 PUSH2 0x4499 JUMP JUMPDEST SWAP3 POP DUP3 PUSH32 0xFFFFFFFFFFFFFFFFFFFFFFFFFFFFFFFFFFFFFFFFFFFFFFFFFFFFFFFFFFFFFFFF SUB DUP3 GT ISZERO PUSH2 0x41B2 JUMPI PUSH2 0x41B1 PUSH2 0x460C JUMP JUMPDEST JUMPDEST DUP3 DUP3 ADD SWAP1 POP SWAP3 SWAP2 POP POP JUMP JUMPDEST PUSH1 0x0 PUSH2 0x41C8 DUP3 PUSH2 0x446B JUMP JUMPDEST SWAP2 POP PUSH2 0x41D3 DUP4 PUSH2 0x446B JUMP JUMPDEST SWAP3 POP DUP3 PUSH2 0x41E3 JUMPI PUSH2 0x41E2 PUSH2 0x463B JUMP JUMPDEST JUMPDEST DUP3 DUP3 DIV SWAP1 POP SWAP3 SWAP2 POP POP JUMP JUMPDEST PUSH1 0x0 DUP1 DUP3 SWAP2 POP DUP4 SWAP1 POP JUMPDEST PUSH1 0x1 DUP6 GT ISZERO PUSH2 0x4238 JUMPI DUP1 DUP7 DIV DUP2 GT ISZERO PUSH2 0x4214 JUMPI PUSH2 0x4213 PUSH2 0x460C JUMP JUMPDEST JUMPDEST PUSH1 0x1 DUP6 AND ISZERO PUSH2 0x4223 JUMPI DUP1 DUP3 MUL SWAP2 POP JUMPDEST DUP1 DUP2 MUL SWAP1 POP PUSH2 0x4231 DUP6 PUSH2 0x46FB JUMP JUMPDEST SWAP5 POP PUSH2 0x41F8 JUMP JUMPDEST SWAP5 POP SWAP5 SWAP3 POP POP POP JUMP JUMPDEST PUSH1 0x0 PUSH2 0x424C DUP3 PUSH2 0x4499 JUMP JUMPDEST SWAP2 POP PUSH2 0x4257 DUP4 PUSH2 0x4499 JUMP JUMPDEST SWAP3 POP PUSH2 0x4284 PUSH32 0xFFFFFFFFFFFFFFFFFFFFFFFFFFFFFFFFFFFFFFFFFFFFFFFFFFFFFFFFFFFFFFFF DUP5 DUP5 PUSH2 0x428C JUMP JUMPDEST SWAP1 POP SWAP3 SWAP2 POP POP JUMP JUMPDEST PUSH1 0x0 DUP3 PUSH2 0x429C JUMPI PUSH1 0x1 SWAP1 POP PUSH2 0x4358 JUMP JUMPDEST DUP2 PUSH2 0x42AA JUMPI PUSH1 0x0 SWAP1 POP PUSH2 0x4358 JUMP JUMPDEST DUP2 PUSH1 0x1 DUP2 EQ PUSH2 0x42C0 JUMPI PUSH1 0x2 DUP2 EQ PUSH2 0x42CA JUMPI PUSH2 0x42F9 JUMP JUMPDEST PUSH1 0x1 SWAP2 POP POP PUSH2 0x4358 JUMP JUMPDEST PUSH1 0xFF DUP5 GT ISZERO PUSH2 0x42DC JUMPI PUSH2 0x42DB PUSH2 0x460C JUMP JUMPDEST JUMPDEST DUP4 PUSH1 0x2 EXP SWAP2 POP DUP5 DUP3 GT ISZERO PUSH2 0x42F3 JUMPI PUSH2 0x42F2 PUSH2 0x460C JUMP JUMPDEST JUMPDEST POP PUSH2 0x4358 JUMP JUMPDEST POP PUSH1 0x20 DUP4 LT PUSH2 0x133 DUP4 LT AND PUSH1 0x4E DUP5 LT PUSH1 0xB DUP5 LT AND OR ISZERO PUSH2 0x432E JUMPI DUP3 DUP3 EXP SWAP1 POP DUP4 DUP2 GT ISZERO PUSH2 0x4329 JUMPI PUSH2 0x4328 PUSH2 0x460C JUMP JUMPDEST JUMPDEST PUSH2 0x4358 JUMP JUMPDEST PUSH2 0x433B DUP5 DUP5 DUP5 PUSH1 0x1 PUSH2 0x41EE JUMP JUMPDEST SWAP3 POP SWAP1 POP DUP2 DUP5 DIV DUP2 GT ISZERO PUSH2 0x4352 JUMPI PUSH2 0x4351 PUSH2 0x460C JUMP JUMPDEST JUMPDEST DUP2 DUP2 MUL SWAP1 POP JUMPDEST SWAP4 SWAP3 POP POP POP JUMP JUMPDEST PUSH1 0x0 PUSH2 0x436A DUP3 PUSH2 0x4499 JUMP JUMPDEST SWAP2 POP PUSH2 0x4375 DUP4 PUSH2 0x4499 JUMP JUMPDEST SWAP3 POP DUP2 PUSH32 0xFFFFFFFFFFFFFFFFFFFFFFFFFFFFFFFFFFFFFFFFFFFFFFFFFFFFFFFFFFFFFFFF DIV DUP4 GT DUP3 ISZERO ISZERO AND ISZERO PUSH2 0x43AE JUMPI PUSH2 0x43AD PUSH2 0x460C JUMP JUMPDEST JUMPDEST DUP3 DUP3 MUL SWAP1 POP SWAP3 SWAP2 POP POP JUMP JUMPDEST PUSH1 0x0 PUSH2 0x43C4 DUP3 PUSH2 0x446B JUMP JUMPDEST SWAP2 POP PUSH2 0x43CF DUP4 PUSH2 0x446B JUMP JUMPDEST SWAP3 POP DUP3 DUP3 LT ISZERO PUSH2 0x43E2 JUMPI PUSH2 0x43E1 PUSH2 0x460C JUMP JUMPDEST JUMPDEST DUP3 DUP3 SUB SWAP1 POP SWAP3 SWAP2 POP POP JUMP JUMPDEST PUSH1 0x0 PUSH2 0x43F8 DUP3 PUSH2 0x4499 JUMP JUMPDEST SWAP2 POP PUSH2 0x4403 DUP4 PUSH2 0x4499 JUMP JUMPDEST SWAP3 POP DUP3 DUP3 LT ISZERO PUSH2 0x4416 JUMPI PUSH2 0x4415 PUSH2 0x460C JUMP JUMPDEST JUMPDEST DUP3 DUP3 SUB SWAP1 POP SWAP3 SWAP2 POP POP JUMP JUMPDEST PUSH1 0x0 PUSH2 0x442C DUP3 PUSH2 0x4479 JUMP JUMPDEST SWAP1 POP SWAP2 SWAP1 POP JUMP JUMPDEST PUSH1 0x0 DUP2 ISZERO ISZERO SWAP1 POP SWAP2 SWAP1 POP JUMP JUMPDEST PUSH1 0x0 PUSH32 0xFFFFFFFF00000000000000000000000000000000000000000000000000000000 DUP3 AND SWAP1 POP SWAP2 SWAP1 POP JUMP JUMPDEST PUSH1 0x0 PUSH2 0xFFFF DUP3 AND SWAP1 POP SWAP2 SWAP1 POP JUMP JUMPDEST PUSH1 0x0 PUSH20 0xFFFFFFFFFFFFFFFFFFFFFFFFFFFFFFFFFFFFFFFF DUP3 AND SWAP1 POP SWAP2 SWAP1 POP JUMP JUMPDEST PUSH1 0x0 DUP2 SWAP1 POP SWAP2 SWAP1 POP JUMP JUMPDEST PUSH1 0x0 PUSH1 0xFF DUP3 AND SWAP1 POP SWAP2 SWAP1 POP JUMP JUMPDEST PUSH1 0x0 PUSH2 0x44BB DUP3 PUSH2 0x44A3 JUMP JUMPDEST SWAP1 POP SWAP2 SWAP1 POP JUMP JUMPDEST DUP3 DUP2 DUP4 CALLDATACOPY PUSH1 0x0 DUP4 DUP4 ADD MSTORE POP POP POP JUMP JUMPDEST PUSH1 0x0 JUMPDEST DUP4 DUP2 LT ISZERO PUSH2 0x44EF JUMPI DUP1 DUP3 ADD MLOAD DUP2 DUP5 ADD MSTORE PUSH1 0x20 DUP2 ADD SWAP1 POP PUSH2 0x44D4 JUMP JUMPDEST DUP4 DUP2 GT ISZERO PUSH2 0x44FE JUMPI PUSH1 0x0 DUP5 DUP5 ADD MSTORE JUMPDEST POP POP POP POP JUMP JUMPDEST PUSH1 0x0 PUSH1 0x2 DUP3 DIV SWAP1 POP PUSH1 0x1 DUP3 AND DUP1 PUSH2 0x451C JUMPI PUSH1 0x7F DUP3 AND SWAP2 POP JUMPDEST PUSH1 0x20 DUP3 LT DUP2 EQ ISZERO PUSH2 0x4530 JUMPI PUSH2 0x452F PUSH2 0x466A JUMP JUMPDEST JUMPDEST POP SWAP2 SWAP1 POP JUMP JUMPDEST PUSH2 0x453F DUP3 PUSH2 0x46EA JUMP JUMPDEST DUP2 ADD DUP2 DUP2 LT PUSH8 0xFFFFFFFFFFFFFFFF DUP3 GT OR ISZERO PUSH2 0x455E JUMPI PUSH2 0x455D PUSH2 0x4699 JUMP JUMPDEST JUMPDEST DUP1 PUSH1 0x40 MSTORE POP POP POP JUMP JUMPDEST PUSH1 0x0 PUSH2 0x4572 DUP3 PUSH2 0x446B JUMP JUMPDEST SWAP2 POP PUSH2 0xFFFF DUP3 EQ ISZERO PUSH2 0x4587 JUMPI PUSH2 0x4586 PUSH2 0x460C JUMP JUMPDEST JUMPDEST PUSH1 0x1 DUP3 ADD SWAP1 POP SWAP2 SWAP1 POP JUMP JUMPDEST PUSH1 0x0 PUSH2 0x459D DUP3 PUSH2 0x4499 JUMP JUMPDEST SWAP2 POP PUSH32 0xFFFFFFFFFFFFFFFFFFFFFFFFFFFFFFFFFFFFFFFFFFFFFFFFFFFFFFFFFFFFFFFF DUP3 EQ ISZERO PUSH2 0x45D0 JUMPI PUSH2 0x45CF PUSH2 0x460C JUMP JUMPDEST JUMPDEST PUSH1 0x1 DUP3 ADD SWAP1 POP SWAP2 SWAP1 POP JUMP JUMPDEST PUSH1 0x0 PUSH2 0x45E6 DUP3 PUSH2 0x446B JUMP JUMPDEST SWAP2 POP PUSH2 0x45F1 DUP4 PUSH2 0x446B JUMP JUMPDEST SWAP3 POP DUP3 PUSH2 0x4601 JUMPI PUSH2 0x4600 PUSH2 0x463B JUMP JUMPDEST JUMPDEST DUP3 DUP3 MOD SWAP1 POP SWAP3 SWAP2 POP POP JUMP JUMPDEST PUSH32 0x4E487B7100000000000000000000000000000000000000000000000000000000 PUSH1 0x0 MSTORE PUSH1 0x11 PUSH1 0x4 MSTORE PUSH1 0x24 PUSH1 0x0 REVERT JUMPDEST PUSH32 0x4E487B7100000000000000000000000000000000000000000000000000000000 PUSH1 0x0 MSTORE PUSH1 0x12 PUSH1 0x4 MSTORE PUSH1 0x24 PUSH1 0x0 REVERT JUMPDEST PUSH32 0x4E487B7100000000000000000000000000000000000000000000000000000000 PUSH1 0x0 MSTORE PUSH1 0x22 PUSH1 0x4 MSTORE PUSH1 0x24 PUSH1 0x0 REVERT JUMPDEST PUSH32 0x4E487B7100000000000000000000000000000000000000000000000000000000 PUSH1 0x0 MSTORE PUSH1 0x41 PUSH1 0x4 MSTORE PUSH1 0x24 PUSH1 0x0 REVERT JUMPDEST PUSH1 0x0 PUSH1 0x3 RETURNDATASIZE GT ISZERO PUSH2 0x46E7 JUMPI PUSH1 0x4 PUSH1 0x0 DUP1 RETURNDATACOPY PUSH2 0x46E4 PUSH1 0x0 MLOAD PUSH2 0x4708 JUMP JUMPDEST SWAP1 POP JUMPDEST SWAP1 JUMP JUMPDEST PUSH1 0x0 PUSH1 0x1F NOT PUSH1 0x1F DUP4 ADD AND SWAP1 POP SWAP2 SWAP1 POP JUMP JUMPDEST PUSH1 0x0 DUP2 PUSH1 0x1 SHR SWAP1 POP SWAP2 SWAP1 POP JUMP JUMPDEST PUSH1 0x0 DUP2 PUSH1 0xE0 SHR SWAP1 POP SWAP2 SWAP1 POP JUMP JUMPDEST PUSH32 0x455243313135353A204552433131353552656365697665722072656A65637465 PUSH1 0x0 DUP3 ADD MSTORE PUSH32 0x6420746F6B656E73000000000000000000000000000000000000000000000000 PUSH1 0x20 DUP3 ADD MSTORE POP JUMP JUMPDEST PUSH32 0x4E756D626572206D757374206265206265747765656E203020616E6420332E00 PUSH1 0x0 DUP3 ADD MSTORE POP JUMP JUMPDEST PUSH32 0x455243313135353A2061646472657373207A65726F206973206E6F7420612076 PUSH1 0x0 DUP3 ADD MSTORE PUSH32 0x616C6964206F776E657200000000000000000000000000000000000000000000 PUSH1 0x20 DUP3 ADD MSTORE POP JUMP JUMPDEST PUSH32 0x455243313135353A2063616C6C6572206973206E6F7420746F6B656E206F776E PUSH1 0x0 DUP3 ADD MSTORE PUSH32 0x6572206F7220617070726F766564000000000000000000000000000000000000 PUSH1 0x20 DUP3 ADD MSTORE POP JUMP JUMPDEST PUSH32 0x455243313135353A207472616E7366657220746F20746865207A65726F206164 PUSH1 0x0 DUP3 ADD MSTORE PUSH32 0x6472657373000000000000000000000000000000000000000000000000000000 PUSH1 0x20 DUP3 ADD MSTORE POP JUMP JUMPDEST PUSH32 0x455243313135353A20696E73756666696369656E742062616C616E636520666F PUSH1 0x0 DUP3 ADD MSTORE PUSH32 0x72207472616E7366657200000000000000000000000000000000000000000000 PUSH1 0x20 DUP3 ADD MSTORE POP JUMP JUMPDEST PUSH32 0x455243313135353A2073657474696E6720617070726F76616C20737461747573 PUSH1 0x0 DUP3 ADD MSTORE PUSH32 0x20666F722073656C660000000000000000000000000000000000000000000000 PUSH1 0x20 DUP3 ADD MSTORE POP JUMP JUMPDEST PUSH32 0x455243313135353A206163636F756E747320616E6420696473206C656E677468 PUSH1 0x0 DUP3 ADD MSTORE PUSH32 0x206D69736D617463680000000000000000000000000000000000000000000000 PUSH1 0x20 DUP3 ADD MSTORE POP JUMP JUMPDEST PUSH32 0x455243313135353A2069647320616E6420616D6F756E7473206C656E67746820 PUSH1 0x0 DUP3 ADD MSTORE PUSH32 0x6D69736D61746368000000000000000000000000000000000000000000000000 PUSH1 0x20 DUP3 ADD MSTORE POP JUMP JUMPDEST PUSH32 0x455243313135353A206D696E7420746F20746865207A65726F20616464726573 PUSH1 0x0 DUP3 ADD MSTORE PUSH32 0x7300000000000000000000000000000000000000000000000000000000000000 PUSH1 0x20 DUP3 ADD MSTORE POP JUMP JUMPDEST PUSH32 0x5573657220686173206E6F204C4D4E544C204E4654732E000000000000000000 PUSH1 0x0 DUP3 ADD MSTORE POP JUMP JUMPDEST PUSH32 0x455243313135353A207472616E7366657220746F206E6F6E2D45524331313535 PUSH1 0x0 DUP3 ADD MSTORE PUSH32 0x526563656976657220696D706C656D656E746572000000000000000000000000 PUSH1 0x20 DUP3 ADD MSTORE POP JUMP JUMPDEST PUSH1 0x0 PUSH1 0x44 RETURNDATASIZE LT ISZERO PUSH2 0x4A8D JUMPI PUSH2 0x4B10 JUMP JUMPDEST PUSH2 0x4A95 PUSH2 0x3FFA JUMP JUMPDEST PUSH1 0x4 RETURNDATASIZE SUB PUSH1 0x4 DUP3 RETURNDATACOPY DUP1 MLOAD RETURNDATASIZE PUSH1 0x24 DUP3 ADD GT PUSH8 0xFFFFFFFFFFFFFFFF DUP3 GT OR ISZERO PUSH2 0x4ABD JUMPI POP POP PUSH2 0x4B10 JUMP JUMPDEST DUP1 DUP3 ADD DUP1 MLOAD PUSH8 0xFFFFFFFFFFFFFFFF DUP2 GT ISZERO PUSH2 0x4ADB JUMPI POP POP POP POP PUSH2 0x4B10 JUMP JUMPDEST DUP1 PUSH1 0x20 DUP4 ADD ADD PUSH1 0x4 RETURNDATASIZE SUB DUP6 ADD DUP2 GT ISZERO PUSH2 0x4AF8 JUMPI POP POP POP POP POP PUSH2 0x4B10 JUMP JUMPDEST PUSH2 0x4B07 DUP3 PUSH1 0x20 ADD DUP6 ADD DUP7 PUSH2 0x4536 JUMP JUMPDEST DUP3 SWAP6 POP POP POP POP POP POP JUMPDEST SWAP1 JUMP JUMPDEST PUSH2 0x4B1C DUP2 PUSH2 0x4421 JUMP JUMPDEST DUP2 EQ PUSH2 0x4B27 JUMPI PUSH1 0x0 DUP1 REVERT JUMPDEST POP JUMP JUMPDEST PUSH2 0x4B33 DUP2 PUSH2 0x4433 JUMP JUMPDEST DUP2 EQ PUSH2 0x4B3E JUMPI PUSH1 0x0 DUP1 REVERT JUMPDEST POP JUMP JUMPDEST PUSH2 0x4B4A DUP2 PUSH2 0x443F JUMP JUMPDEST DUP2 EQ PUSH2 0x4B55 JUMPI PUSH1 0x0 DUP1 REVERT JUMPDEST POP JUMP JUMPDEST PUSH2 0x4B61 DUP2 PUSH2 0x446B JUMP JUMPDEST DUP2 EQ PUSH2 0x4B6C JUMPI PUSH1 0x0 DUP1 REVERT JUMPDEST POP JUMP JUMPDEST PUSH2 0x4B78 DUP2 PUSH2 0x4499 JUMP JUMPDEST DUP2 EQ PUSH2 0x4B83 JUMPI PUSH1 0x0 DUP1 REVERT JUMPDEST POP JUMP JUMPDEST PUSH2 0x4B8F DUP2 PUSH2 0x44A3 JUMP JUMPDEST DUP2 EQ PUSH2 0x4B9A JUMPI PUSH1 0x0 DUP1 REVERT JUMPDEST POP JUMP INVALID LOG2 PUSH5 0x6970667358 0x22 SLT KECCAK256 0xBD 0xBF 0x4C MSIZE POP LT BLOCKHASH 0x2C 0xF8 0x4C 0xDF 0xA5 0xE PUSH30 0x5FA6550256F00C875E767C9BBA29EC11D13A64736F6C6343000801003368 PUSH21 0x7470733A2F2F697066732E696F2F697066732F516D PUSH4 0x334C3554 CHAINID PUSH20 0x466F517151427055584C67744E77454358725058 SSTORE CODESIZE 0x4D PUSH5 0x4136545A56 CALLDATACOPY GAS GASLIMIT JUMPI PUSH12 0x4D6D66000000000000000000 "},"methodIdentifiers":{"INTERFACE_ID_ERC1155()":"33bf6156","attributes(uint8)":"79f3b872","balanceOf(address,uint256)":"00fdd58e","balanceOfBatch(address[],uint256[])":"4e1273f4","changeImageURI(uint16,string)":"2c50b6b7","characters(uint16)":"88d2f6cf","elements(uint8)":"61499c1a","gainEXP(uint16,uint256)":"b3999751","gainUserEXP(address,uint256)":"9fe48a86","getAttribute(uint8)":"7dedef61","getCurrentLevel(uint16)":"9fef1767","getCurrentStats(uint16)":"65752f08","getElement(uint8)":"5847df80","getMetadata(uint16)":"e304c64c","getPrimaryStats(uint16)":"ad48473b","getUserCurrentStats(address)":"b1e4ef06","getUserMetadata(address)":"ef2a8764","getUserPrimaryStats(address)":"591e992e","getUserTokenID(address)":"423411b1","isApprovedForAll(address,address)":"e985e9c5","levelUp(address,string)":"59fd58a6","mint(uint8,string)":"3d04979d","nftCounter()":"e574609e","safeBatchTransferFrom(address,address,uint256[],uint256[],bytes)":"2eb2c2d6","safeTransferFrom(address,address,uint256,uint256,bytes)":"f242432a","setApprovalForAll(address,bool)":"a22cb465","setMetadata(uint16,string)":"0e5585e1","supportsInterface(bytes4)":"01ffc9a7","tokenMetadata(uint16)":"b281e3e3","tokenOwners(address,uint256)":"8b5e51d2","updateCharacter(uint16,uint8,uint256,string)":"2db05c6b","uri(uint256)":"0e89341c"}}}}}